:100F7000EF14601C14602B14603C2403704AC8ED0D
:100F8000C87401088002C333D8FCF45292529322F1
:100F9000C8EDC87401088002C333D8FCFFF4529234
:100FA0008023C8EDC87401088002C333D8FCFF4217
:100FB00092EFF4529322C8EDC87401088002C33343
:090FC000D8FCFF4292EF4293229B
:100FC900EF14601C14602B14603C2403704AC8EDB4
:100FD900C87401088002C333D8FCF4529652972290
:100FE900C8EDC87401088002C333D8FCFFF45296D7
:100FF9008023C8EDC87401088002C333D8FCFF42BE
:1010090096EFF4529722C8EDC87401088002C333E1
:09101900D8FCFF4296EF42972239
:0913720053C77F43C73CD2EE22B1
:0412380041002A0047
:101282007D027F03120F707D037F03120F707D05B5
:101292007F03120FC97D037F03120FC9E4FD7F0391
:0312A200020F70C8
:100D1400D292D293D2B5D2B3D290C29220930890F9
:100D2400002B7401F08005E490002BF020B50890AE
:100D3400002C7401F08005E490002CF020B308909E
:100D4400002D7401F08005E490002DF020900890AF
:100D5400002E7401F08005E490002EF0D292C2932C
:100D640020920890002F7401F08005E490002FF089
:100D740020B5089000307401F08005E4900030F054
:100D840020B3089000317401F08005E4900031F044
:100D94002090089000327401F08005E4900032F055
:100DA400D293C2B52092089000337401F08005E418
:100DB400900033F02093089000347401F08005E42F
:100DC400900034F020B3089000357401F08005E4FD
:100DD400900035F0D2B5C2B3209208900036740169
:100DE400F08005E4900036F02093089000377401F9
:100DF400F08005E4900037F020B5089000387401C5
:100E0400F08005E4900038F0D2B3C29020920890AC
:100E140000397401F08005E4900039F020930890C3
:100E2400003A7401F08005E490003AF020B508908F
:0F0E3400003B7401F08005E490003BF0D2902267
:071394007D06E4FF020FC912
:1012A50030B60890002A7401F0800F90002AE0B44F
:0C12B500010820B605E4F07F01227F0054
:0112C100220A
:05139B0052756E0A000E
:10123C0042003C000041003E0142003F00004100E2
:0B124C0041014200420000410044014B
:1011460090003EE0600E1213A090003CEEF0A3EF7C
:10115600F0E4A3F090003CE0FEA3E0FF1212C2D33D
:10116600EF94F4EE9401400DB2B01213A090003C3F
:05117600EEF0A3EFF014
:01117B002251
:10117C00900041E0600E1213A090003FEEF0A3EF40
:10118C00F0E4A3F090003FE0FEA3E0FF1212C2D304
:10119C00EF94BCEE9402400B1213A090003FEEF0C3
:0311AC00A3EFF0BE
:0111AF00221D
:10102200900044E0600E1213A0900042EEF0A3EF95
:10103200F0E4A3F0900042E0FEA3E0FF1212C2D35C
:10104200EF9432EE940040141212A5EF60031212D4
:0C1052005E1213A0900042EEF0A3EFF03D
:01105E00226F
:10109B00E4900000F0A3F01211E37F147E00121213
:1010AB00F8120E43E4FD7F01120FC9121340D2AFA9
:1010BB00D28C121394C2B07BFF7A13799B12086BFC
:0B10CB0012114612102212117C80F559
:1011B000EF7009E58954F04DF5898024EFB40111F1
:1011C000CFEDCFEFC454F0FFE589540F4FF5898080
:1011D0000FEFB40208C2CDC2CCC2C880037FFF2289
:0311E0007F00226B
:1010D600C3E49DFDE49CFCEF700ACFEDCFEFF58AEB
:1010E600ECF58C22EFB4010ACFEDCFEFF58BECF5E2
:1010F6008D22EFB40211CFEDCFEFF5CC8FCACEEC37
:07110600CEEEFFF5CD8FCB0B
:01110D0022BF
:10135600C2CDC2CCC2C9D2CBD2C8EF25E025E0426D
:02136600C9229A
:10131100C2CDC2CCD2C8C2C9EF25E025E0FFE5C9E4
:0813210054FD4F4401F5C922FF
:0612570004150000000078
:1013400053C9EF7D01E4FF1211B07DE87C03E4FF97
:061350001210D6D2A92202
:0A136800E4F518F517F516F5152247
:0413A000AF18AE17BD
:0113A4002226
:08137B00AF18AE17AD16AC155A
:011383002247
:0612C200CBEFCBCAEECA1F
:1012C800AF18AE17AD16AC15E4CCEACCCDEBCDC358
:0612D800EF9DFFEE9CFEFD
:0112DE0022ED
:06105F00900045120C3365
:10106500AF18AE17AD16AC15900045E0F8A3E0F942
:10107500A3E0FAA3E0FBE8C0E0E9C0E0EAC0E0D005
:10108500E0FAD0E0F9D0E0F8C3EF9BFFEE9AFEED71
:0510950099FDEC98FC40
:01109A002233
:03000B0002110ED1
:10110E00C0E0C0F0C083C082C0D075D008E51824FE
:10111E0001F518E43517F517E43516F516E435150F
:10112E00F515C28D7DE87C03E4FF1210D6D0D0D029
:08113E0082D083D0F0D0E03232
:10125E00C2AF900049E4F0A37438F0A3E4F07F64C9
:10126E00FE1212F8D2B6900049A3E0FAA3E0F912EA
:04127E000C7080FE72
:1011E30075A15575A1AA43B9407F0A7E001212F872
:1011F30075A15575A1AA53B97FE4F5A175A15575DC
:0E120300A1AAE5B954F84403F5B9E4F5A12217
:1012DF007802EFCEC313CE13D8F9FFEF4E60090596
:0912EF00A1EF1F70F61E80F3222E
:1012F800CDEFCDCCEECCED4C600E7FE87E03121224
:09130800DFED1D70F11C80EE22E6
:0413A50043C6102209
:100E4300C29FD29EC29DC2CDC2CC43878090000276
:100E5300120C3F00000041E47B0AFAF9F89000020B
:100E6300E0FCA3E0FDA3E0FEA3E0FF120BA1CCE8AE
:100E7300CCCDE9CDCEEACECFEBCF900006EFF0900C
:100E83000002E0FCA3E0FDA3E0FEA3E0FFE47B0A95
:100E9300FAF9F8120BA1900002120C33900006E04D
:100EA300C39405401F900002E0FCA3E0FDA3E0FE15
:100EB300A3E02401FFE43EFEE43DFDE43CFC90009E
:100EC30002120C33E589540F4420F58943C9A090DD
:100ED3000002A3A3A3E0F404F58DD28ED299D29C91
:010EE30022EC
:081384003098FDC298AF9922D8
:08138C008F993099FDC29922EE
:1013290075A15575A1AAEF600543B101800353B1B9
:07133900FEE4F5A1F5FF221F
:0313A9008FFF2291
:03000000020EE409
:0C0EE400787FE4F6D8FD758121020F2B09
:100B650075F008758200EF2FFFEE33FECD33CDCC47
:100B750033CCC58233C5829BED9AEC99E5829840CA
:100B85000CF582EE9BFEED9AFDEC99FC0FD5F0D6A7
:100B9500E4CEFBE4CDFAE4CCF9A88222B800C1B9D1
:100BA5000059BA002DEC8BF084CFCECDFCE5F0CB0F
:100BB500F97818EF2FFFEE33FEED33FDEC33FCEB48
:100BC50033FB10D703994004EB99FB0FD8E5E4F903
:100BD500FA227818EF2FFFEE33FEED33FDEC33FCF0
:100BE500C933C910D7059BE99A4007EC9BFCE99AE4
:100BF500F90FD8E0E4C9FAE4CCFB2275F010EF2F29
:100C0500FFEE33FEED33FDCC33CCC833C810D70728
:100C15009BEC9AE899400AED9BFDEC9AFCE899F863
:0E0C25000FD5F0DAE4CDFBE4CCFAE4C8F922F6
:0C0C3300ECF0A3EDF0A3EEF0A3EFF02234
:100C3F00A8828583F0D083D082120C56120C5612E4
:100C4F000C56120C56E473E493A3C583C5F0C58309
:100C5F00C8C582C8F0A3C583C5F0C583C8C582C8FF
:010C6F002262
:060C70008A838982E4730F
:10080000E5102405F582E43400F583E0051022901C
:100810000002300703900005E475F001120CCE02CF
:100820000C762000E97F2ED2008018EF540F249020
:10083000D43440D4FF30040BEF24BFB41A0050036B
:100840002461FFE511600215110514E5147002051D
:100850001330070E900002E475F001120CCEEF0287
:100860000CBC0212117403D2078003E4C207F51016
:10087000900002120CE5E4F511F513F514E5116092
:10088000077F2012084380F57512FFC201C200C223
:1008900002C203C205C206C20812080FFF700D3063
:1008A00007057F00120854AF14AE1322B4255FC2AF
:1008B000D5C20412080FFF24D0B40A00501A75F0F4
:1008C0000A781130D50508B6FF0106C6A426F62021
:1008D000D5047002D20380D924CFB41A00EF50049B
:1008E000C2E5D204020A55D20180C6D20080C0D22D
:1008F0000280BCD2D580BAD20580B47F20120843D2
:100900002002077401B5110040F1120800FF12081F
:100910004302087DD208D2068095120800FB120817
:1009200000FA120800F94A4B700679267A0B7BFF11
:1009300020022EE511602A7E008E82758300120C43
:100940008F60060EEE651270F0C2D5EBC0E0EAC013
:10095000E0E9C0E0EE120A9CD0E0F9D0E0FAD0E085
:10096000FB120C76FF60AAEBC0E0EAC0E0E9C0E051
:10097000120843D0E02401F9D0E03400FAD0E0FBC3
:10098000E5120460DCD512D980877BFF7A0A79985A
:10099000D202809C791080027908C206C2088008C1
:1009A000D2D5790A8004790AC2D5E512047002F51D
:1009B00012E4FAFDFEFF120800FC7B08200113126E
:1009C0000800FD7B1030000A120800FE120800FF2C
:1009D0007B20EC3382D592D55013C3E43000069FC0
:1009E000FFE49EFEE42001039DFDE49CFCE4CBF8C3
:1009F000C201EC700CCFCECDCCE824F8F870F380B7
:100A000017C3EF33FFEE33FEED33FDEC33FCEB3376
:100A1000FB994002FB0FD8E9EB300105F8D0E0C4A8
:100A200048B201C0E00AEC4D4E4F78207B0070C206
:100A3000EAB5120040BCC0E0120A9ED0F0D0E0201F
:100A40000104C4C0E0C4B201C0F012082CD0F0D53B
:100A5000F0EB02087D120CEE091A5309945808EBCA
:100A60004C08E74209984F09A04409A049090043EE
:080A700009A655098A46098A0E
:100A780045098A470B465008EF2D08F32E09162B17
:100A880008F7230914200B2F2A08AF480000090E85
:100A98003F3F3F00790AA2D5200314300509B91059
:100AA800020404B9080104A2D5200602500104205A
:100AB80002689202B511005034C0E07F203003195B
:100AC8007F30A20272067205500F120AF5C202C2E6
:100AD80006C205C2087F30800F300503E9C0E01266
:100AE8000843300503D0E0F9D0E0B511CC30051744
:100AF8007F30B9100C1208437F583004077F788084
:100B080003B908031208433002057F2D0208437F0A
:100B1800202008F87F2B2006F322920280CF286E2F
:100B2800756C6C2900D2011208003001F8C20178F6
:100B38001130D50108F60208AF2D50434958120864
:100B4800002403B405004001E4900B4193120834DB
:0D0B5800743A120834D20375110402099496
:100EF00002109BE493A3F8E493A34003F68001F26D
:100F000008DFF48029E493A3F85407240CC8C33302
:100F1000C4540F4420C8834004F456800146F6DFD1
:100F2000E4800B0102040810204080901238E47E17
:100F3000019360BCA3FF543F30E509541FFEE493C6
:100F4000A360010ECF54C025E060A840B8E493A38D
:100F5000FAE493A3F8E493A3C8C582C8CAC583CAB8
:100F6000F0A3C8C582C8CAC583CADFE9DEE780BE70
:01125D000090
:100C7600BB010689828A83E0225002E722BBFE027C
:090C8600E32289828A83E49322AF
:100C8F00BB010CE58229F582E5833AF583E022501A
:100C9F0006E92582F8E622BBFE06E92582F8E22264
:0D0CAF00E58229F582E5833AF583E493227E
:100CBC00BB010689828A83F0225002F722BBFE0117
:020CCC00F32211
:100CCE00F8E0FBA3A3E0F925F0F0E58215827002AF
:070CDE001583E0FA38F02253
:090CE500EBF0A3EAF0A3E9F02210
:100CEE00D083D082F8E4937012740193700DA3A395
:100CFE0093F8740193F5828883E4737402936860A9
:060D0E00EFA3A3A380DFA8
:10121100EFB40A07740D12121C740A309811A899C0
:10122100B8130CC2983098FDA899C298B811F6303D
:0712310099FDC299F5992215
:00000001FF
