:10119200EF14601C14602B14603C2403704AC8EDE9
:1011A200C87401088002C333D8FCF45292529322CD
:1011B200C8EDC87401088002C333D8FCFFF4529210
:1011C2008023C8EDC87401088002C333D8FCFF42F3
:1011D20092EFF4529322C8EDC87401088002C3331F
:0911E200D8FCFF4292EF42932277
:1011EB00EF14601C14602B14603C2403704AC8ED90
:1011FB00C87401088002C333D8FCF452965297226C
:10120B00C8EDC87401088002C333D8FCFFF45296B2
:10121B008023C8EDC87401088002C333D8FCFF4299
:10122B0096EFF4529722C8EDC87401088002C333BD
:09123B00D8FCFF4296EF42972215
:0916660053C77F43C73CD2EE22BA
:101588007D027F031211927D037F031211927D0564
:101598007F031211EB7D037F031211EBE4FD7F0340
:0315A8000211929B
:100D3A00D292D293D2B5D2B3D290C29220930890D3
:100D4A00012B7401F08005E490012BF020B5089086
:100D5A00012C7401F08005E490012CF020B3089076
:100D6A00012D7401F08005E490012DF02090089087
:100D7A00012E7401F08005E490012EF0D292C29304
:100D8A0020920890012F7401F08005E490012FF061
:100D9A0020B5089001307401F08005E4900130F02C
:100DAA0020B3089001317401F08005E4900131F01C
:100DBA002090089001327401F08005E4900132F02D
:100DCA00D293C2B52092089001337401F08005E4F1
:100DDA00900133F02093089001347401F08005E407
:100DEA00900134F020B3089001357401F08005E4D5
:100DFA00900135F0D2B5C2B3209208900136740141
:100E0A00F08005E4900136F02093089001377401D0
:100E1A00F08005E4900137F020B50890013874019C
:100E2A00F08005E4900138F0D2B3C2902092089085
:100E3A0001397401F08005E4900139F0209308909B
:100E4A00013A7401F08005E490013AF020B5089067
:0F0E5A00013B7401F08005E490013BF0D290223F
:1014C30090014EEBF0A3EAF0A3E9F090014EE0FBAC
:1014D300A3E0FAA3E0F9C8E9C8CCEACCCDEBCD7B15
:0C14E300017A01792B7E007F11020B13AF
:101563007D027F031211927D037F031211927D0589
:101573007F031211EB7D037F031211EBC2B3D292EF
:05158300D2B5D2932255
:10153D00756172745F64656275670A004B65792029
:10154D00256420697320707265737365640A007376
:06155D00746172740A00C3
:100E690042013C000041013E0142013F00004101B5
:0B0E7900410142014200004101440120
:1013870090013EE0601012168090013CEEF0A3EF52
:10139700F0E4A3F0C2B090013CE0FEA3E0FF12002E
:1013A70026D3EF94E8EE9403400DB2B01216809066
:0713B700013CEEF0A3EFF092
:0113BE00220C
:1012D400900141E0600E12168090013FEEF0A3EF02
:1012E400F0E4A3F090013FE0FEA3E0FF120026D358
:1012F400EF94F4EE940140147BFF7A15793D1204C7
:0C1304004E12168090013FEEF0A3EFF0B7
:0113100022BA
:10111F00900144E0600E121680900142EEF0A3EFB2
:10112F00F0E4A3F0900142E0FEA3E0FF120026D30B
:10113F00EF9432EE9400404A7B017A017919121430
:10114F00C3E490012AF090012AE0FFC394115027C5
:10115F0074192FF582E43401F583E0B401117BFF9C
:10116F007A15794990012AE09000F4F012044E901C
:10117F00012AE004F080CF121680900142EEF0A316
:02118F00EFF07F
:01119100223B
:10146200E49000EFF0A3F012162B7F147E00121509
:10147200CD120F517BFF7A15795C12044E12129233
:10148200121615D2AFD28C12163D1212D41214EFCC
:0214920080F8E0
:10142F00EF7009E58954F04DF5898024EFB401116F
:10143F00CFEDCFEFC454F0FFE589540F4FF58980FE
:10144F000FEFB40208C2CDC2CCC2C880037FFF2207
:03145F007F0022E9
:1013BF00C3E49DFDE49CFCEF700ACFEDCFEFF58AFF
:1013CF00ECF58C22EFB4010ACFEDCFEFF58BECF5F6
:1013DF008D22EFB40211CFEDCFEFF5CC8FCACEEC4B
:0713EF00CEEEFFF5CD8FCB20
:0113F60022D4
:10000E00C2CDC2CCC2C9D2CBD2C8EF25E025E042C8
:02001E00C922F5
:1015E600C2CDC2CCD2C8C2C9EF25E025E0FFE5C90D
:0815F60054FD4F4401F5C92228
:060E84000427000000003D
:1016150053C9EF7D01E4FF12142F7DE87C03E4FF3D
:061625001213BFD2A9223E
:0A165C00E4F52AF529F528F5272208
:04168000AF2AAE29B6
:011684002243
:08166F00AF2AAE29AD28AC271B
:011677002250
:06002600CBEFCBCAEECACD
:10002C00AF2AAE29AD28AC27E4CCEACCCDEBCDC3BE
:06003C00EF9DFFEE9CFEAB
:01004200229B
:0613110090014A120C33AA
:10131700AF2AAE29AD28AC2790014AE0F8A3E0F93F
:10132700A3E0FAA3E0FBE8C0E0E9C0E0EAC0E0D050
:10133700E0FAD0E0F9D0E0F8C3EF9BFFEE9AFEEDBC
:0513470099FDEC98FC8B
:01134C00227E
:03000B000213F7E6
:1013F700C0E0C0F0C083C082C0D075D018E52A24F1
:1014070001F52AE43529F529E43528F528E43527B7
:10141700F527C28D7DE87C03E4FF1213BFD0D0D03F
:0814270082D083D0F0D0E03246
:100F5100C29FD29EC29DC2CDC2CC4387809000F178
:100F6100120C3F00000082E47B0AFAF9F89000F1CC
:100F7100E0FCA3E0FDA3E0FEA3E0FF120BA1CCE89F
:100F8100CCCDE9CDCEEACECFEBCF9000F5EFF0900E
:100F910000F1E0FCA3E0FDA3E0FEA3E0FFE47B0A97
:100FA100FAF9F8120BA19000F1120C339000F5E060
:100FB100C39405401F9000F1E0FCA3E0FDA3E0FE17
:100FC100A3E02401FFE43EFEE43DFDE43CFC90008F
:100FD100F1120C33E589540F4420F58943C9A090DF
:100FE10000F1A3A3A3E0F404F58DD28ED299D29C93
:010FF10022DD
:030023000215AB18
:0D15AB00C0E0C0F0C083C082C0D075D01079
:0A15B800309807AF9912134DC29846
:0B15C200D0D0D082D083D0F0D0E03237
:051685004F4B0D0A00AF
:100E8A00603E00AC05010906A101050719E029E742
:100E9A0015002501750195088102950175088101E2
:100EAA009503750105081901290391029505750134
:100EBA0091019506750826FF0005071900299181F9
:100ECA0000C052005712010002000000083D41070D
:100EDA0021000000000001602200690902220001CD
:100EEA000100A032090400000103000000092111D9
:100EFA00010001223E000705810308000448004C56
:100F0A00000000000000000050008F0000000000F8
:100F1A00000000000000000000000042009F0000E6
:100F2A0042008D00004200A200004100A1004100E1
:100F3A008C004100ED00410055004100560041007F
:060F4A00540041008B0081
:10129200C2EAE4F5E2CE7400CECF7400CF8EED8FB9
:1012A200ECCE7400CECF740ACF8EEF8FEE75EA6764
:1012B20075DC0275D242F5E375D18075E22943D11E
:1012C2000175D8FF75E107D2EA7BFF7A16798502AC
:0212D200044EC8
:0F149400E4F0FE7F08FD7B017A00794C120C70AA
:1014A300C8740AC8CC7400CCCD7401CD7B017A001A
:1014B300794C7E007F08120B1375D30853D2FC229C
:0300430002004672
:0D004600C0E0C0F0C083C082C0D075D008FB
:1000530020D9030203B9E5D9543F70030203952461
:10006300E0700302031B14601924F16029240E605D
:10007300030203B775D500E5D454FC4402F5D4025A
:1000830003B775D300E5D254FC4402F5D290005671
:100093007401F00203B79000EEE5DBF0E064086062
:1000A300030202EE900006E090008CF0900007E05F
:1000B300700990008CE0D3947F400690008C747F8D
:1000C300F09000EEE4F0900001E09000A1F09000C9
:1000D30000E05460601A9000A1E01424FD40030284
:1000E30002F424FB24FD40030202F480000202EE2A
:1000F3009000A1E0B40B0040030202EC900106F86B
:100103002828730202CF02021F0202EC02025902E4
:1001130002EC0201EC0201270202EC0201F70202E7
:10012300140202F4900003E024FE601E24E0603019
:100133002421704F9000EA7401F0A37400F0A374BB
:1001430057F09000EE7412F0803F9000EA7401F0D3
:10015300A37400F0A37469F09000EE7422F0802978
:10016300900004E0701D9000EA04F0A37400F0A373
:1001730074ACF09000EE743EF09000ED7401F0D298
:10018300AC80069000EE74FFF09000EEE0FF90006C
:100193008CE0D39F4002EFF090008CE0FFC3940803
:1001A30040077E08CFEECF80009000EEEFF07E0098
:1001B300C87400C8CC7400CCCD7401CD9000EAE0C3
:1001C300FBA3E0FAA3E0F9120B1390008CE0FF907D
:1001D30000EEE0FEC3EF9E90008CF0EEFF9000EB8C
:1001E300E48FF0120B390202F4900002E090008CCD
:1001F300F00202F4900054E0900000F090008CE0D4
:10020300C3940150030202F49000EE7401F0020261
:10021300F4900002E0900054F00202F4900000E039
:10022300541F6402702D900004E014601D2480604C
:100233000E14701CE5D454BC4402F5D40202F4E558
:10024300D254BC4402F5D20202F453D2730202F434
:100253000202EE0202EE900000E0541FFD701B90BC
:100263000003E0FE900002E0FBEB64014E70099096
:100273000070E020E57B80738071ED6402704B9029
:100283000003E0FE900002E0FDED4E703B900005A0
:10029300E0FE900004E0FDEDFFEE702AEF24FE6027
:1002A300112481601714701EE5D454BF4403F5D4A0
:1002B300803FE5D4547F440CF5D48035E5D254BF58
:1002C3004403F5D2802B80238021801F900000E41B
:1002D300F0A3F090008CE0FFC394029000EE400581
:1002E3007402F0800CEFF0800880009000EE74FF41
:1002F300F09000EEE0FFB4FF0C9000A174FFF075E6
:10030300DCCF0203B7EFD3940850048FDD8003756D
:10031300DD0075DCC00203B79000A1E024FB605C44
:1003230014706790008CE0FFC3940840077E08CFE9
:10033300EECF80009000EEEFF07E00C87400C8CCD2
:100343007400CCCD7401CD9000EAE0FBA3E0FAA3E6
:10035300E0F9120B1390008CE0FF9000EEE0FEC377
:10036300EF9E90008CF0EEFF9000EBE48FF0120B09
:10037300399000EEE0F5DD63DC408038E5E354803E
:10038300FF90008CE04FF5E3800375DD0075DC0220
:1003930080229000EEE5DBF09000A1E0B4090F901D
:1003A30000EEE0B40108900000E090008BF075DDF2
:1003B3000075DC00C2D930D81275DC0275D2107515
:1003C300D41275E300C2DAC2D9C2D830DA04C2DA71
:0503D300800375D8FF56
:0B03D800D0D0D082D083D0F0D0E03233
:100748009000F1EFF0E490004CF0EFC39461403674
:100758009000F1E0D3947A502D90008BE030E11DA9
:10076800E4900056F090004E7439F01214A39000F3
:1007780056E060FA121494900056E060FA9000F186
:10078800E024A3020A3C9000F1E0FFC39441403307
:10079800EFD3945A502D90008BE020E11DE4900097
:1007A80056F090004E7439F01214A3900056E06091
:1007B800FA121494900056E060FA9000F1E024C315
:1007C800020A3C9000F1E0FFC39431400CEFD3944F
:1007D800395006E024ED020A3C9000F1E0FFB43005
:1007E8000790004E7427F022EFD3942F400302089D
:1007F800B7EFB4200790004E742CF022EFB4210814
:1008080090004E741E0209ADEFB4220890004E7499
:10081800340209ADEFB4230890004E74200209ADEC
:10082800EFB4240890004E74210209ADEFB42508F6
:1008380090004E74220209ADEFB4260890004E7461
:10084800240209ADEFB4270790004E7434F022EF6C
:10085800B4280890004E74260209ADEFB429089018
:10086800004E74270209ADEFB42A0890004E742593
:100878000209ADEFB42B0890004E742E0209ADEFBB
:10088800B42C0790004E7436F022EFB42D07900078
:100898004E742DF022EFB42E0790004E7437F022DC
:1008A800EF642F6003020A4290004E7438F022EF82
:1008B800D3943F5058EFB43A0790004E74338044B5
:1008C8009000F1E0FFB43B0790004E7433F022EF44
:1008D800B43C0790004E7436802A9000F1E0FFB4D3
:1008E8003D0790004E742EF022EFB43E0790004E64
:1008F800743780109000F1E0643F6003020A429070
:10090800004E7438F090004CE04402F0229000F160
:10091800E0FFB4400890004E741F0209ADEFC39485
:100928005B404CEFD394605046EFB45B0790004EA9
:10093800742FF022EFB45C0790004E7431F022EF70
:10094800B45D0790004E7430F022EFB45E0790005B
:100958004E74238050EFB45F0790004E742D80458D
:10096800EF64606003020A4290004E7435F022EF93
:10097800C3947B4047EFD3947F5041EFB47B0790FB
:10098800004E742F801FEFB47C0790004E743180A6
:1009980014EFB47D0790004E74308009EFB47E0DDB
:1009A80090004E7435F090004C7402F022EF647F92
:1009B8006003020A4290004E744CF022EFC3948008
:1009C8004020EFD39487501AEF540F9000F1F0E0D5
:1009D800FFC8EFC87401088002C333D8FC90004CEC
:1009E800F0229000F1E0FFC394D7400BEFD394DAE4
:1009F8005005E02478803D9000F1E0FFC394B040BA
:100A08000BEFD394B35005E0247880289000F1E0F0
:100A1800FFC394D1400BEFD394D55005E0247880E0
:100A2800139000F1E0FFC394C1400FEFD394CD5071
:0B0A380009E02478F0E090004EF0226E
:10163D00E4F5D3900056F09000EDF090008B04F09F
:01164D00227A
:1012440090008DE0FEA3E0248FF58274003EF583C8
:10125400E0FF12074890008EE004F0700690008DC5
:10126400E004F0C390008EE0941090008DE09400B0
:101274004004E4F0A3F0E4900056F01214A39000AC
:0E12840056E060FA121494900056E060FA22D0
:1014EF009000EDE06020D39000A0E0940090009F6A
:1014FF00E0940040111212449000A0E024FFF090FD
:07150F00009FE034FFF02211
:10134D009000A2E475F001120B4FFC748F25F0F59F
:10135D008274003CF583EFF09000A0E004F070067D
:10136D0090009FE004F0C39000A3E094109000A2C1
:0A137D00E094004004E4F0A3F02225
:10162B0075A15575A1AAE5B954F84404F5B9E4F5CB
:02163B00A122EA
:0E164E00EF4E600905A1EF1F70F61E80F3221B
:1015CD00CDEFCDCCEECCED4C600E7FE87E03121648
:0915DD004EED1D70F11C80EE22A0
:04168A0043C6102221
:100FF200C29FD29EC29DC2CDC2CC43878090014582
:10100200120C3F00000082E47B0AFAF9F8900145D5
:10101200E0FCA3E0FDA3E0FEA3E0FF120BA1CCE8FD
:10102200CCCDE9CDCEEACECFEBCF900149EFF09017
:101032000145E0FCA3E0FDA3E0FEA3E0FFE47B0AA0
:10104200FAF9F8120BA1900145120C33900149E014
:10105200C39405401F900145E0FCA3E0FDA3E0FE20
:10106200A3E02401FFE43EFEE43DFDE43CFC9001EC
:1010720045120C33E589540F4420F58943C9A090E9
:101082000145A3A3A3E0F404F58DD28ED299D29C9C
:01109200223B
:080003003098FDC298AF99226C
:081678008F993099FDC29922FF
:1015FE0075A15575A1AAEF600543B101800353B1E2
:07160E00FEE4F5A1F5FF2247
:030020008FFF222D
:0300000002109358
:0C109300787FE4F6D8FD75812A0210DA9F
:100A4300E709F608DFFA8046E709F208DFFA803E95
:100A530088828C83E709F0A3DFFA8032E309F60882
:100A6300DFFA8078E309F208DFFA807088828C83EA
:100A7300E309F0A3DFFA806489828A83E0A3F6089E
:100A8300DFFA805889828A83E0A3F208DFFA804C78
:100A930080D280FA80C680D4806980F2803380104F
:100AA30080A680EA809A80A880DA80E280CA8033B8
:100AB30089828A83ECFAE493A3C8C582C8CCC58330
:100AC300CCF0A3C8C582C8CCC583CCDFE9DEE78000
:100AD3000D89828A83E493A3F608DFF9ECFAA9F07F
:100AE300EDFB2289828A83ECFAE0A3C8C582C8CCD5
:100AF300C583CCF0A3C8C582C8CCC583CCDFEADEEE
:100B0300E880DB89828A83E493A3F208DFF980CC4F
:100B130088F0EF60010E4E60C388F0ED2402B40448
:100B23000050B9F582EB2402B4040050AF232345EF
:060B33008223900A937377
:100B3900C5F0F8A3E028F0C5F0F8E5821582700247
:060B49001583E038F022E4
:100B4F00A3F8E0C5F025F0F0E58215827002158359
:060B5F00E0C838F0E822B6
:100B650075F008758200EF2FFFEE33FECD33CDCC47
:100B750033CCC58233C5829BED9AEC99E5829840CA
:100B85000CF582EE9BFEED9AFDEC99FC0FD5F0D6A7
:100B9500E4CEFBE4CDFAE4CCF9A88222B800C1B9D1
:100BA5000059BA002DEC8BF084CFCECDFCE5F0CB0F
:100BB500F97818EF2FFFEE33FEED33FDEC33FCEB48
:100BC50033FB10D703994004EB99FB0FD8E5E4F903
:100BD500FA227818EF2FFFEE33FEED33FDEC33FCF0
:100BE500C933C910D7059BE99A4007EC9BFCE99AE4
:100BF500F90FD8E0E4C9FAE4CCFB2275F010EF2F29
:100C0500FFEE33FEED33FDCC33CCC833C810D70728
:100C15009BEC9AE899400AED9BFDEC9AFCE899F863
:0E0C25000FD5F0DAE4CDFBE4CCFAE4C8F922F6
:0C0C3300ECF0A3EDF0A3EEF0A3EFF02234
:100C3F00A8828583F0D083D082120C56120C5612E4
:100C4F000C56120C56E473E493A3C583C5F0C58309
:100C5F00C8C582C8F0A3C583C5F0C583C8C582C8FF
:010C6F002262
:1003E300E52224F4F582E43400F583E0052222902B
:1003F30000F13007039000F4E475F001120CF402ED
:100403000C9C2000E97F2ED2008018EF540F24901B
:10041300D43440D4FF30040BEF24BFB41A0050038C
:100423002461FFE523600215230526E526700205F6
:100433002530070E9000F1E475F001120CF4EF0281
:100443000CE20215167403D2078003E4C207F522F7
:100453009000F1120D0BE4F523F525F526E5236055
:10046300077F2012042680F57524FFC201C200C253
:1004730002C203C205C206C2081203F2FF700D30A6
:1004830007057F00120437AF26AE2522B4255FC2CD
:10049300D5C2041203F2FF24D0B40A00501A75F037
:1004A3000A782330D50508B6FF0106C6A426F62030
:1004B300D5047002D20380D924CFB41A00EF5004BC
:1004C300C2E5D204020638D20180C6D20080C0D26F
:1004D3000280BCD2D580BAD20580B47F2012042614
:1004E3002002077401B5230040F11203E3FF120455
:1004F30026020460D208D20680951203E3FB12039E
:10050300E3FA1203E3F94A4B700679097A077BFF92
:1005130020022EE523602A7E008E82758300120C52
:10052300B560060EEE652470F0C2D5EBC0E0EAC0FC
:10053300E0E9C0E0EE12067FD0E0F9D0E0FAD0E0C7
:10054300FB120C9CFF60AAEBC0E0EAC0E0E9C0E04C
:10055300120426D0E02401F9D0E03400FAD0E0FB05
:10056300E5240460DCD524D980877BFF7A06797B78
:10057300D202809C791080027908C206C2088008E2
:10058300D2D5790A8004790AC2D5E524047002F52C
:1005930024E4FAFDFEFF1203E3FC7B08200113129F
:1005A30003E3FD7B1030000A1203E3FE1203E3FFB3
:1005B3007B20EC3382D592D55013C3E43000069FE1
:1005C300FFE49EFEE42001039DFDE49CFCE4CBF8E4
:1005D300C201EC700CCFCECDCCE824F8F870F380D8
:1005E30017C3EF33FFEE33FEED33FDEC33FCEB3398
:1005F300FB994002FB0FD8E9EB300105F8D0E0C4CA
:1006030048B201C0E00AEC4D4E4F78207B0070C227
:10061300EAB5240040BCC0E0120681D0F0D0E0204F
:100623000104C4C0E0C4B201C0F012040FD0F0D57D
:10063300F0EB020460120D1404FD5305775804CE49
:100643004C04CA42057B4F05834405834904E343B5
:08065300058955056D46056D92
:10065B0045056D4707295004D22D04D62E04F92BDE
:10066B0004DA2304F72007122A049248000004F14D
:10067B003F3F3F00790AA2D5200314300509B9107A
:10068B00020404B9080104A2D5200602500104207B
:10069B0002689202B523005034C0E07F203003196A
:1006AB007F30A20272067205500F1206D8C202C228
:1006BB0006C205C2087F30800F300503E9C0E01287
:1006CB000426300503D0E0F9D0E0B523CC30051774
:1006DB007F30B9100C1204267F583004077F7880C6
:1006EB0003B908031204263002057F2D0204267F6E
:1006FB00202008F87F2B2006F322920280CF286E51
:10070B00756C6C2900D2011203E33001F8C2017839
:10071B002330D50108F60204922D50434958120399
:10072B00E32403B405004001E4900724931204175B
:0D073B00743A120417D203752304020577E7
:100C7000EF4E6012EF60010EEDBB010B89828A839B
:100C8000F0A3DFFCDEFA2289F05007F709DFFCA9A8
:0C0C9000F022BBFEFCF309DFFCA9F022FF
:10109F00021462E493A3F8E493A34003F68001F2F1
:1010AF0008DFF48029E493A3F85407240CC8C33352
:1010BF00C4540F4420C8834004F456800146F6DF21
:1010CF00E4800B0102040810204080900E69E47E3A
:1010DF00019360BCA3FF543F30E509541FFEE49316
:1010EF00A360010ECF54C025E060A840B8E493A3DD
:1010FF00FAE493A3F8E493A3C8C582C8CAC583CA08
:10110F00F0A3C8C582C8CAC583CADFE9DEE780BEBF
:010F500000A0
:100C9C00BB010689828A83E0225002E722BBFE0256
:090CAC00E32289828A83E4932289
:100CB500BB010CE58229F582E5833AF583E02250F4
:100CC50006E92582F8E622BBFE06E92582F8E2223E
:0D0CD500E58229F582E5833AF583E4932258
:100CE200BB010689828A83F0225002F722BBFE01F1
:020CF200F322EB
:100CF400F8E0FBA3A3E0F925F0F0E5821582700289
:070D04001583E0FA38F0222C
:090D0B00EBF0A3EAF0A3E9F022E9
:100D1400D083D082F8E4937012740193700DA3A36E
:100D240093F8740193F5828883E473740293686082
:060D3400EFA3A3A380DF82
:10151600EFB40A07740D121521740A309811A899B0
:10152600B8130CC2983098FDA899C298B811F63035
:0715360099FDC299F599220D
:00000001FF
