:100F6A00EF14601C14602B14603C2403704AC8ED13
:100F7A00C87401088002C333D8FCF45292529322F7
:100F8A00C8EDC87401088002C333D8FCFFF452923A
:100F9A008023C8EDC87401088002C333D8FCFF421D
:100FAA0092EFF4529322C8EDC87401088002C33349
:090FBA00D8FCFF4292EF429322A1
:100FC300EF14601C14602B14603C2403704AC8EDBA
:100FD300C87401088002C333D8FCF4529652972296
:100FE300C8EDC87401088002C333D8FCFFF45296DD
:100FF3008023C8EDC87401088002C333D8FCFF42C4
:1010030096EFF4529722C8EDC87401088002C333E7
:09101300D8FCFF4296EF4297223F
:0913620053C77F43C73CD2EE22C1
:0412380041002A0047
:10125E007D027F03120F6A7D037F03120F6A7D05E5
:10126E007F03120FC37D037F03120FC3E4FD7F03C1
:03127E00020F6AF2
:100D0E00D292D293D2B5D2B3D290C29220930890FF
:100D1E00002B7401F08005E490002BF020B50890B4
:100D2E00002C7401F08005E490002CF020B30890A4
:100D3E00002D7401F08005E490002DF020900890B5
:100D4E00002E7401F08005E490002EF0D292C29332
:100D5E0020920890002F7401F08005E490002FF08F
:100D6E0020B5089000307401F08005E4900030F05A
:100D7E0020B3089000317401F08005E4900031F04A
:100D8E002090089000327401F08005E4900032F05B
:100D9E00D293C2B52092089000337401F08005E41E
:100DAE00900033F02093089000347401F08005E435
:100DBE00900034F020B3089000357401F08005E403
:100DCE00900035F0D2B5C2B320920890003674016F
:100DDE00F08005E4900036F02093089000377401FF
:100DEE00F08005E4900037F020B5089000387401CB
:100DFE00F08005E4900038F0D2B3C29020920890B3
:100E0E0000397401F08005E4900039F020930890C9
:100E1E00003A7401F08005E490003AF020B5089095
:0F0E2E00003B7401F08005E490003BF0D290226D
:071384007D06E4FF020FC328
:1012810030B60890002A7401F0800F90002AE0B473
:0C129100010820B605E4F07F01227F0078
:01129D00222E
:101332004B6579626F61726420746573740A00523E
:04134200756E0A00BA
:10123C0042003C000041003E0142003F00004100E2
:0B124C0041014200420000410044014B
:1011460090003EE0600E12138B90003CEEF0A3EF91
:10115600F0E4A3F090003CE0FEA3E0FF12129ED361
:10116600EF9464EE9400400DB2B012138B90003CE5
:05117600EEF0A3EFF014
:01117B002251
:10117C00900041E0600E12138B90003FEEF0A3EF55
:10118C00F0E4A3F090003FE0FEA3E0FF12129ED328
:10119C00EF94BCEE9402400B12138B90003FEEF0D8
:0311AC00A3EFF0BE
:0111AF00221D
:10101C00900044E0600E12138B900042EEF0A3EFB0
:10102C00F0E4A3F0900042E0FEA3E0FF12129ED386
:10103C00EF9414EE9400401A121281EF60097BFFBA
:10104C007A13793212086B12138B900042EEF0A3D4
:02105C00EFF0B3
:01105E00226F
:10109B00E4900000F0A3F01211E37F147E00121213
:1010AB00D4120E3DE4FD7F01120FC312131CD2AFFD
:1010BB00D28C121384C2B07BFF7A13794112086B66
:0B10CB0012114612101C12117C80F55F
:1011B000EF7009E58954F04DF5898024EFB40111F1
:1011C000CFEDCFEFC454F0FFE589540F4FF5898080
:1011D0000FEFB40208C2CDC2CCC2C880037FFF2289
:0311E0007F00226B
:1010D600C3E49DFDE49CFCEF700ACFEDCFEFF58AEB
:1010E600ECF58C22EFB4010ACFEDCFEFF58BECF5E2
:1010F6008D22EFB40211CFEDCFEFF5CC8FCACEEC37
:07110600CEEEFFF5CD8FCB0B
:01110D0022BF
:10134600C2CDC2CCC2C9D2CBD2C8EF25E025E0427D
:02135600C922AA
:1012ED00C2CDC2CCD2C8C2C9EF25E025E0FFE5C909
:0812FD0054FD4F4401F5C92224
:0612570004150000000078
:10131C0053C9EF7D01E4FF1211B07DE87C03E4FFBB
:06132C001210D6D2A92226
:0A135800E4F518F517F516F5152257
:04138B00AF18AE17D2
:01138F00223B
:08136B00AF18AE17AD16AC156A
:011373002257
:06129E00CBEFCBCAEECA43
:1012A400AF18AE17AD16AC15E4CCEACCCDEBCDC37C
:0612B400EF9DFFEE9CFE21
:0112BA002211
:06105F00900045120C3365
:10106500AF18AE17AD16AC15900045E0F8A3E0F942
:10107500A3E0FAA3E0FBE8C0E0E9C0E0EAC0E0D005
:10108500E0FAD0E0F9D0E0F8C3EF9BFFEE9AFEED71
:0510950099FDEC98FC40
:01109A002233
:03000B0002110ED1
:10110E00C0E0C0F0C083C082C0D075D008E51824FE
:10111E0001F518E43517F517E43516F516E435150F
:10112E00F515C28D7DE87C03E4FF1210D6D0D0D029
:08113E0082D083D0F0D0E03232
:1011E30075A15575A1AA43B9407F0A7E001212D496
:1011F30075A15575A1AA53B97FE4F5A175A15575DC
:0E120300A1AAE5B954F84403F5B9E4F5A12217
:1012BB007802EFCEC313CE13D8F9FFEF4E600905BA
:0912CB00A1EF1F70F61E80F32252
:1012D400CDEFCDCCEECCED4C600E7FE87E03121248
:0912E400BBED1D70F11C80EE222F
:0413900043C610221E
:100E3D00C29FD29EC29DC2CDC2CC4387809000027C
:100E4D00120C3F00000041E47B0AFAF9F890000211
:100E5D00E0FCA3E0FDA3E0FEA3E0FF120BA1CCE8B4
:100E6D00CCCDE9CDCEEACECFEBCF900006EFF09012
:100E7D000002E0FCA3E0FDA3E0FEA3E0FFE47B0A9B
:100E8D00FAF9F8120BA1900002120C33900006E053
:100E9D00C39405401F900002E0FCA3E0FDA3E0FE1B
:100EAD00A3E02401FFE43EFEE43DFDE43CFC9000A4
:100EBD0002120C33E589540F4420F58943C9A090E3
:100ECD000002A3A3A3E0F404F58DD28ED299D29C97
:010EDD0022F2
:081374003098FDC298AF9922E8
:08137C008F993099FDC29922FE
:1013050075A15575A1AAEF600543B101800353B1DD
:07131500FEE4F5A1F5FF2243
:031394008FFF22A6
:03000000020EDE0F
:0C0EDE00787FE4F6D8FD758121020F2515
:100B650075F008758200EF2FFFEE33FECD33CDCC47
:100B750033CCC58233C5829BED9AEC99E5829840CA
:100B85000CF582EE9BFEED9AFDEC99FC0FD5F0D6A7
:100B9500E4CEFBE4CDFAE4CCF9A88222B800C1B9D1
:100BA5000059BA002DEC8BF084CFCECDFCE5F0CB0F
:100BB500F97818EF2FFFEE33FEED33FDEC33FCEB48
:100BC50033FB10D703994004EB99FB0FD8E5E4F903
:100BD500FA227818EF2FFFEE33FEED33FDEC33FCF0
:100BE500C933C910D7059BE99A4007EC9BFCE99AE4
:100BF500F90FD8E0E4C9FAE4CCFB2275F010EF2F29
:100C0500FFEE33FEED33FDCC33CCC833C810D70728
:100C15009BEC9AE899400AED9BFDEC9AFCE899F863
:0E0C25000FD5F0DAE4CDFBE4CCFAE4C8F922F6
:0C0C3300ECF0A3EDF0A3EEF0A3EFF02234
:100C3F00A8828583F0D083D082120C56120C5612E4
:100C4F000C56120C56E473E493A3C583C5F0C58309
:100C5F00C8C582C8F0A3C583C5F0C583C8C582C8FF
:010C6F002262
:10080000E5102405F582E43400F583E0051022901C
:100810000002300703900005E475F001120CC802D5
:100820000C702000E97F2ED2008018EF540F249026
:10083000D43440D4FF30040BEF24BFB41A0050036B
:100840002461FFE511600215110514E5147002051D
:100850001330070E900002E475F001120CC8EF028D
:100860000CB60212117403D2078003E4C207F5101C
:10087000900002120CDFE4F511F513F514E5116098
:10088000077F2012084380F57512FFC201C200C223
:1008900002C203C205C206C20812080FFF700D3063
:1008A00007057F00120854AF14AE1322B4255FC2AF
:1008B000D5C20412080FFF24D0B40A00501A75F0F4
:1008C0000A781130D50508B6FF0106C6A426F62021
:1008D000D5047002D20380D924CFB41A00EF50049B
:1008E000C2E5D204020A55D20180C6D20080C0D22D
:1008F0000280BCD2D580BAD20580B47F20120843D2
:100900002002077401B5110040F1120800FF12081F
:100910004302087DD208D2068095120800FB120817
:1009200000FA120800F94A4B700679267A0B7BFF11
:1009300020022EE511602A7E008E82758300120C43
:100940008960060EEE651270F0C2D5EBC0E0EAC019
:10095000E0E9C0E0EE120A9CD0E0F9D0E0FAD0E085
:10096000FB120C70FF60AAEBC0E0EAC0E0E9C0E057
:10097000120843D0E02401F9D0E03400FAD0E0FBC3
:10098000E5120460DCD512D980877BFF7A0A79985A
:10099000D202809C791080027908C206C2088008C1
:1009A000D2D5790A8004790AC2D5E512047002F51D
:1009B00012E4FAFDFEFF120800FC7B08200113126E
:1009C0000800FD7B1030000A120800FE120800FF2C
:1009D0007B20EC3382D592D55013C3E43000069FC0
:1009E000FFE49EFEE42001039DFDE49CFCE4CBF8C3
:1009F000C201EC700CCFCECDCCE824F8F870F380B7
:100A000017C3EF33FFEE33FEED33FDEC33FCEB3376
:100A1000FB994002FB0FD8E9EB300105F8D0E0C4A8
:100A200048B201C0E00AEC4D4E4F78207B0070C206
:100A3000EAB5120040BCC0E0120A9ED0F0D0E0201F
:100A40000104C4C0E0C4B201C0F012082CD0F0D53B
:100A5000F0EB02087D120CE8091A5309945808EBD0
:100A60004C08E74209984F09A04409A049090043EE
:080A700009A655098A46098A0E
:100A780045098A470B465008EF2D08F32E09162B17
:100A880008F7230914200B2F2A08AF480000090E85
:100A98003F3F3F00790AA2D5200314300509B91059
:100AA800020404B9080104A2D5200602500104205A
:100AB80002689202B511005034C0E07F203003195B
:100AC8007F30A20272067205500F120AF5C202C2E6
:100AD80006C205C2087F30800F300503E9C0E01266
:100AE8000843300503D0E0F9D0E0B511CC30051744
:100AF8007F30B9100C1208437F583004077F788084
:100B080003B908031208433002057F2D0208437F0A
:100B1800202008F87F2B2006F322920280CF286E2F
:100B2800756C6C2900D2011208003001F8C20178F6
:100B38001130D50108F60208AF2D50434958120864
:100B4800002403B405004001E4900B4193120834DB
:0D0B5800743A120834D20375110402099496
:100EEA0002109BE493A3F8E493A34003F68001F273
:100EFA0008DFF48029E493A3F85407240CC8C33309
:100F0A00C4540F4420C8834004F456800146F6DFD7
:100F1A00E4800B0102040810204080901238E47E1D
:100F2A00019360BCA3FF543F30E509541FFEE493CC
:100F3A00A360010ECF54C025E060A840B8E493A393
:100F4A00FAE493A3F8E493A3C8C582C8CAC583CABE
:100F5A00F0A3C8C582C8CAC583CADFE9DEE780BE76
:01125D000090
:100C7000BB010689828A83E0225002E722BBFE0282
:090C8000E32289828A83E49322B5
:100C8900BB010CE58229F582E5833AF583E0225020
:100C990006E92582F8E622BBFE06E92582F8E2226A
:0D0CA900E58229F582E5833AF583E4932284
:100CB600BB010689828A83F0225002F722BBFE011D
:020CC600F32217
:100CC800F8E0FBA3A3E0F925F0F0E58215827002B5
:070CD8001583E0FA38F02259
:090CDF00EBF0A3EAF0A3E9F02216
:100CE800D083D082F8E4937012740193700DA3A39B
:100CF80093F8740193F5828883E4737402936860AF
:060D0800EFA3A3A380DFAE
:10121100EFB40A07740D12121C740A309811A899C0
:10122100B8130CC2983098FDA899C298B811F6303D
:0712310099FDC299F5992215
:00000001FF
