:10000000020D948F993099FDC29922020F0575A1B6
:100010005575A1AAE5B954F84404F5B9E4F5A1224F
:10002300020EE1AD07AC06ED4C600E7FE87E0312D5
:0E0033000F5FED1D70F11C80EE2243C61022FF
:10004300020046C0E0C0F0C083C082C0D075D008B3
:1000530020D9030203B9E5D9543F70030203952461
:10006300E0700302031B14601924F16029240E605D
:10007300030203B775D500E5D454FC4402F5D4025A
:1000830003B775D300E5D254FC4402F5D290005671
:100093007401F00203B79000E6E5DBF0E06408606A
:1000A300030202EE900006E090008CF0900007E05F
:1000B300700990008CE0D3947F400690008C747F8D
:1000C300F09000E6E4F0900001E0900099F09000D9
:1000D30000E05460601A900099E01424FD4003028C
:1000E30002F424FB24FD40030202F480000202EE2A
:1000F300900099E0B40B0040030202EC900106F873
:100103002828730202CF02021F0202EC02025902E4
:1001130002EC0201EC0201270202EC0201F70202E7
:10012300140202F4900003E024FE601E24E0603019
:100133002421704F9000E27401F0A37400F0A374C3
:1001430057F09000E67412F0803F9000E27401F0E3
:10015300A37400F0A37469F09000E67422F0802980
:10016300900004E0701D9000E204F0A37400F0A37B
:1001730074A4F09000E6743EF09000E57401F0D2B0
:10018300AC80069000E674FFF09000E6E0FF90007C
:100193008CE0D39F4002EFF090008CE0FFC3940803
:1001A30040077E08CFEECF80009000E6EFF07E00A0
:1001B300C87400C8CC7400CCCD7401CD9000E2E0CB
:1001C300FBA3E0FAA3E0F912081890008CE0FF907B
:1001D30000E6E0FEC3EF9E90008CF0EEFF9000E39C
:1001E300E48FF012083E0202F4900002E090008CCB
:1001F300F00202F4900054E0900000F090008CE0D4
:10020300C3940150030202F49000E67401F0020269
:10021300F4900002E0900054F00202F4900000E039
:10022300541F6402702D900004E014601D2480604C
:100233000E14701CE5D454BC4402F5D40202F4E558
:10024300D254BC4402F5D20202F453D2730202F434
:100253000202EE0202EE900000E0541FFD701B90BC
:100263000003E0FE900002E0FBEB64014E70099096
:100273000070E020E57B80738071ED6402704B9029
:100283000003E0FE900002E0FDED4E703B900005A0
:10029300E0FE900004E0FDEDFFEE702AEF24FE6027
:1002A300112481601714701EE5D454BF4403F5D4A0
:1002B300803FE5D4547F440CF5D48035E5D254BF58
:1002C3004403F5D2802B80238021801F900000E41B
:1002D300F0A3F090008CE0FFC394029000E6400589
:1002E3007402F0800CEFF0800880009000E674FF49
:1002F300F09000E6E0FFB4FF0C90009974FFF075F6
:10030300DCCF0203B7EFD3940850048FDD8003756D
:10031300DD0075DCC00203B7900099E024FB605C4C
:1003230014706790008CE0FFC3940840077E08CFE9
:10033300EECF80009000E6EFF07E00C87400C8CCDA
:100343007400CCCD7401CD9000E2E0FBA3E0FAA3EE
:10035300E0F912081890008CE0FF9000E6E0FEC37D
:10036300EF9E90008CF0EEFF9000E3E48FF0120814
:100373003E9000E6E0F5DD63DC408038E5E3548041
:10038300FF90008CE04FF5E3800375DD0075DC0220
:1003930080229000E6E5DBF0900099E0B4090F902D
:1003A30000E6E0B40108900000E090008BF075DDFA
:1003B3000075DC00C2D930D81275DC0275D2107515
:1003C300D41275E300C2DAC2D9C2D830DA04C2DA71
:1003D300800375D8FFD0D0D082D083D0F0D0E03264
:1003E300E52224F2F582E43400F583E0052222902D
:1003F30000EF3007039000F2E475F001120A0A02DD
:1004030009B22000E97F2ED2008018EF540F249008
:10041300D43440D4FF30040BEF24BFB41A0050038C
:100423002461FFE523600215230526E526700205F6
:100433002530070E9000EFE475F001120A0AEF026F
:1004430009F8020EBA7403D2078003E4C207F52247
:100453009000EF120A21E4F523F525F526E5236044
:10046300077F2012042680F57524FFC201C200C253
:1004730002C203C205C206C2081203F2FF700D30A6
:1004830007057F00120437AF26AE2522B4255FC2CD
:10049300D5C2041203F2FF24D0B40A00501A75F037
:1004A3000A782330D50508B6FF0106C6A426F62030
:1004B300D5047002D20380D924CFB41A00EF5004BC
:1004C300C2E5D204020638D20180C6D20080C0D26F
:1004D3000280BCD2D580BAD20580B47F2012042614
:1004E3002002077401B5230040F11203E3FF120455
:1004F30026020460D208D20680951203E3FB12039E
:10050300E3FA1203E3F94A4B700679097A077BFF92
:1005130020022EE523602A7E008E82758300120955
:10052300CB60060EEE652470F0C2D5EBC0E0EAC0E6
:10053300E0E9C0E0EE12067FD0E0F9D0E0FAD0E0C7
:10054300FB1209B2FF60AAEBC0E0EAC0E0E9C0E039
:10055300120426D0E02401F9D0E03400FAD0E0FB05
:10056300E5240460DCD524D980877BFF7A06797B78
:10057300D202809C791080027908C206C2088008E2
:10058300D2D5790A8004790AC2D5E524047002F52C
:1005930024E4FAFDFEFF1203E3FC7B08200113129F
:1005A30003E3FD7B1030000A1203E3FE1203E3FFB3
:1005B3007B20EC3382D592D55013C3E43000069FE1
:1005C300FFE49EFEE42001039DFDE49CFCE4CBF8E4
:1005D300C201EC700CCFCECDCCE824F8F870F380D8
:1005E30017C3EF33FFEE33FEED33FDEC33FCEB3398
:1005F300FB994002FB0FD8E9EB300105F8D0E0C4CA
:1006030048B201C0E00AEC4D4E4F78207B0070C227
:10061300EAB5240040BCC0E0120681D0F0D0E0204F
:100623000104C4C0E0C4B201C0F012040FD0F0D57D
:10063300F0EB020460120A2A04FD5305775804CE36
:100643004C04CA42057B4F05834405834904E343B5
:10065300058955056D46056D45056D470729500408
:10066300D22D04D62E04F92B04DA2304F720071223
:100673002A049248000004F13F3F3F00790AA2D5C3
:10068300200314300509B910020404B9080104A2B7
:10069300D52006025001042002689202B5230050BF
:1006A30034C0E07F203003197F30A2027206720546
:1006B300500F1206D8C202C206C205C2087F30809C
:1006C3000F300503E9C0E0120426300503D0E0F93A
:1006D300D0E0B523CC3005177F30B9100C120426B7
:1006E3007F583004077F788003B90803120426304B
:1006F30002057F2D0204267F202008F87F2B200689
:10070300F322920280CF286E756C6C2900D20112FD
:1007130003E33001F8C201782330D50108F602045F
:10072300922D504349581203E32403B405004001BA
:10073300E490072493120417743A120417D2037532
:100743002304020577E709F608DFFA8046E709F292
:1007530008DFFA803E88828C83E709F0A3DFFA8002
:1007630032E309F608DFFA8078E309F208DFFA805A
:100773007088828C83E309F0A3DFFA806489828A1C
:1007830083E0A3F608DFFA805889828A83E0A3F224
:1007930008DFFA804C80D280FA80C680D4806980DA
:1007A300F28033801080A680EA809A80A880DA8065
:1007B300E280CA803389828A83ECFAE493A3C8C5B2
:1007C30082C8CCC583CCF0A3C8C582C8CCC583CCB2
:1007D300DFE9DEE7800D89828A83E493A3F608DFED
:1007E300F9ECFAA9F0EDFB2289828A83ECFAE0A303
:1007F300C8C582C8CCC583CCF0A3C8C582C8CCC544
:1008030083CCDFEADEE880DB89828A83E493A3F288
:1008130008DFF980CC88F0EF60010E4E60C388F0EA
:10082300ED2402B4040050B9F582EB2402B40400B1
:1008330050AF232345822390079873C5F0F8A3E0B4
:1008430028F0C5F0F8E582158270021583E038F0D0
:1008530022A3F8E0C5F025F0F0E5821582700215B9
:1008630083E0C838F0E82275F008758200EF2FFFA7
:10087300EE33FECD33CDCC33CCC58233C5829BED75
:100883009AEC99E58298400CF582EE9BFEED9AFD79
:10089300EC99FC0FD5F0D6E4CEFBE4CDFAE4CCF929
:1008A300A88222B800C1B90059BA002DEC8BF0849C
:1008B300CFCECDFCE5F0CBF97818EF2FFFEE33FE6A
:1008C300ED33FDEC33FCEB33FB10D703994004EB22
:1008D30099FB0FD8E5E4F9FA227818EF2FFFEE33EE
:1008E300FEED33FDEC33FCC933C910D7059BE99A00
:1008F3004007EC9BFCE99AF90FD8E0E4C9FAE4CC91
:10090300FB2275F010EF2FFFEE33FEED33FDCC33FA
:10091300CCC833C810D7079BEC9AE899400AED9BE3
:10092300FDEC9AFCE899F80FD5F0DAE4CDFBE4CCC2
:10093300FAE4C8F922EB9FF5F0EA9E42F0E99D4202
:10094300F0E89C45F022ECF0A3EDF0A3EEF0A3EF6A
:10095300F022A8828583F0D083D08212096C120919
:100963006C12096C12096CE473E493A3C583C5F09C
:10097300C583C8C582C8F0A3C583C5F0C583C8C5F0
:1009830082C822EF4E6012EF60010EEDBB010B89AE
:10099300828A83F0A3DFFCDEFA2289F05007F7098D
:1009A300DFFCA9F022BBFEFCF309DFFCA9F022BBAC
:1009B300010689828A83E0225002E722BBFE02E31A
:1009C3002289828A83E49322BB010CE58229F58282
:1009D300E5833AF583E0225006E92582F8E622BB57
:1009E300FE06E92582F8E222E58229F582E5833ACB
:1009F300F583E49322BB010689828A83F0225002A5
:100A0300F722BBFE01F322F8E0FBA3A3E0F925F0F4
:100A1300F0E582158270021583E0FA38F022EBF0DC
:100A2300A3EAF0A3E9F022D083D082F8E493701212
:100A3300740193700DA3A393F8740193F5828883D3
:100A4300E4737402936860EFA3A3A380DF9000E7CD
:100A5300120955000000009000EB12095500000038
:100A63000012000E7F147E00120026120CFF1200EB
:100A73003D7BFF7A0F796D12044E120F49D2AFD22C
:100A83008C9000E7E0FCA3E0FDA3E0FEA3E02401DB
:100A9300FFE43EFEE43DFDE43CFC9000E71209491F
:100AA300E47F107E27FDFC9000E7E0F8A3E0F9A3C4
:100AB300E0FAA3E0FBD312093840C69000E712091D
:100AC3005500000000120F28E4FCFD9000EB120912
:100AD30049E47F107E27FDFC9000EBE0F8A3E0F9EA
:100AE300A3E0FAA3E0FBD3120938401FE47B107A9A
:100AF30027F9F89000EBE0FCA3E0FDA3E0FEA3E000
:100B0300FF1208A6EF2430FF120003E47FE87E0300
:100B1300FDFC9000EBE0F8A3E0F9A3E0FAA3E0FB0F
:100B2300D31209384035E47B107A27F9F89000EBAB
:100B3300E0FCA3E0FDA3E0FEA3E0FF1208A6CCE8DF
:100B4300CCCDE9CDCEEACECFEBCFE47BE87A03F987
:100B5300F81208A6EF2430FF120003E47F64FEFDC1
:100B6300FC9000EBE0F8A3E0F9A3E0FAA3E0FBD3E9
:100B73001209384034E47BE87A03F9F89000EBE09B
:100B8300FCA3E0FDA3E0FEA3E0FF1208A6CCE8CCA3
:100B9300CDE9CDCEEACECFEBCFE47B64FAF9F81200
:100BA30008A6EF2430FF120003E47F0AFEFDFC9049
:100BB30000EBE0F8A3E0F9A3E0FAA3E0FBD312090A
:100BC300384033E47B64FAF9F89000EBE0FCA3E0EF
:100BD300FDA3E0FEA3E0FF1208A6CCE8CCCDE9CD4F
:100BE300CEEACECFEBCFE47B0AFAF9F81208A6EFF0
:100BF3002430FF120003E47B0AFAF9F89000EBE0DB
:100C0300FCA3E0FDA3E0FEA3E0FF1208A6CCE8CC22
:100C1300CDE9CDCEEACECFEBCFEF2430FF120003E8
:100C23007F0A120003020A84012700420128000000
:100C330041012A0142012C000041012E01603E00C6
:100C4300A405010906A101050719E029E7150025F7
:100C53000175019508810295017508810195037558
:100C63000105081901290391029505750191019563
:100C730006750826FF000507190029918100C05257
:100C8300005712010002000000083D410721000047
:100C9300000000016022006909022200010100A096
:100CA30032090400000103000000092111010001C1
:100CB300223E000705810308000148004C000000A4
:100CC300000000000048008F00000000000000004A
:100CD300420097000042008D000042009A0000414C
:100CE30000990041008C004100E50041005500419E
:100CF3000056004100540041008B0000C29FD29E69
:100D0300C29DC2CDC2CC4387809000EF120955002B
:100D1300000082E47B0AFAF9F89000EFE0FCA3E01C
:100D2300FDA3E0FEA3E0FF1208A69000F3EBF09012
:100D330000EFE0FCA3E0FDA3E0FEA3E0FFE47B0AF9
:100D4300FAF9F81208A69000EF1209499000F3E0AF
:100D5300C39405401F9000EFE0FCA3E0FDA3E0FE79
:100D6300A3E02401FFE43EFEE43DFDE43CFC9000EF
:100D7300EF120949E589540F4420F58943C9A0902E
:100D830000EFA3A3A3E0F404F58DD28ED299D29CF5
:100D930022787FE4F6D8FD758127020DDB020A5025
:100DA300E493A3F8E493A34003F68001F208DFF48D
:100DB3008029E493A3F85407240CC8C333C4540F05
:100DC3004420C8834004F456800146F6DFE4800BD8
:100DD3000102040810204080900C2BE47E019360F4
:100DE300BCA3FF543F30E509541FFEE493A3600105
:100DF3000ECF54C025E060A840B8E493A3FAE4936F
:100E0300A3F8E493A3C8C582C8CAC583CAF0A3C81C
:100E1300C582C8CAC583CADFE9DEE780BE90009AEF
:100E2300E475F001120854FC748F25F0F582740008
:100E33003CF583EFF0900098E004F0700690009783
:100E4300E004F0C390009BE0940890009AE09400C3
:100E53004004E4F0A3F022EF7009E58954F04DF566
:100E6300898023EFB40110AF05EFC454F0FFE58987
:100E7300540F4FF589800FEFB40208C2CDC2CCC224
:100E8300C880037FFF227F0022C3E49DFDE49CFC16
:100E9300EF7007EDF58AECF58C22EFB40107EDF561
:100EA3008BECF58D22EFB4020DAF05EDF5CC8FCAB7
:100EB300ECFFF5CD8FCB22EFB40A07740D120EC5EC
:100EC300740A309811A899B8130CC2983098FDA8E9
:100ED30099C298B811F63099FDC299F59922C0E0EC
:100EE300C0F0C083C082C0D075D010309807AF99CE
:100EF300C298120E20C299D0D0D082D083D0F0D025
:100F0300E032C0E0C0F0C083C082C0D075D0180505
:100F1300277DE87C03E4FF120E8CD0D0D082D083EF
:100F2300D0F0D0E0327F01EFB40110AF27E4FCFD35
:100F3300FE9000EF120949E4FF80EC9000EFA3A3B9
:100F4300E0FEA3E0FF2253C9EF7D01E4FF120E5A36
:100F53007DE87C03E4FF120E8CD2A922EF4E6009D8
:100F630005A1EF1F70F61E80F32273746172740A79
:0E0F730000756172745F64656275670D0A0037
:00000001FF
