:0A000000020C757B017A0179F022F1
:10000B0002110DC874BFC8CC7400CCCD7401CD7B6C
:10001B00017A0079A67E007F091201167E007F0906
:10002B007D007B017A0079A61204809000A67401F2
:10003B00F09001117403F0220204ACE709F608DF1B
:10004B00FA8046E709F208DFFA803E88828C83E764
:10005B0009F0A3DFFA8032E309F608DFFA8078E3D0
:10006B0009F208DFFA807088828C83E309F0A3DF42
:10007B00FA806489828A83E0A3F608DFFA805889C4
:10008B00828A83E0A3F208DFFA804C80D280FA8068
:10009B00C680D4806980F28033801080A680EA808D
:1000AB009A80A880DA80E280CA803389828A83ECC6
:1000BB00FAE493A3C8C582C8CCC583CCF0A3C8C54A
:1000CB0082C8CCC583CCDFE9DEE7800D89828A83C9
:1000DB00E493A3F608DFF9ECFAA9F0EDFB22898291
:1000EB008A83ECFAE0A3C8C582C8CCC583CCF0A345
:1000FB00C8C582C8CCC583CCDFEADEE880DB898249
:10010B008A83E493A3F208DFF980CC88F0EF6001D7
:10011B000E4E60C388F0ED2402B4040050B9F58292
:10012B00EB2402B4040050AF2323458223900096A6
:10013B0073BB010689828A83E0225002E722BBFE51
:10014B0002E32289828A83E49322BB010CE5822994
:10015B00F582E5833AF583E0225006E92582F8E63D
:10016B0022BBFE06E92582F8E222E58229F582E52B
:10017B00833AF583E49322C5F0F8A3E028F0C5F0A9
:10018B00F8E582158270021583E038F022A3F8E0BF
:10019B00C5F025F0F0E582158270021583E0C838B2
:1001AB00F0E82275F008758200EF2FFFEE33FECDDD
:1001BB0033CDCC33CCC58233C5829BED9AEC99E51C
:1001CB008298400CF582EE9BFEED9AFDEC99FC0FAC
:1001DB00D5F0D6E4CEFBE4CDFAE4CCF9A88222B874
:1001EB0000C1B90059BA002DEC8BF084CFCECDFCF9
:1001FB00E5F0CBF97818EF2FFFEE33FEED33FDEC86
:10020B0033FCEB33FB10D703994004EB99FB0FD86E
:10021B00E5E4F9FA227818EF2FFFEE33FEED33FD0C
:10022B00EC33FCC933C910D7059BE99A4007EC9B0B
:10023B00FCE99AF90FD8E0E4C9FAE4CCFB2275F09B
:10024B0010EF2FFFEE33FEED33FDCC33CCC833C8AC
:10025B0010D7079BEC9AE899400AED9BFDEC9AFCB2
:10026B00E899F80FD5F0DAE4CDFBE4CCFAE4C8F961
:10027B0022EB9FF5F0EA9E42F0E99D42F0E89C45A7
:10028B00F022ECF0A3EDF0A3EEF0A3EFF022A882A6
:10029B008583F0D083D0821202B01202B01202B06A
:1002AB001202B0E473E493A3C583C5F0C583C8C53C
:1002BB0082C8F0A3C583C5F0C583C8C582C822A474
:1002CB002582F582E5F03583F58322E3F5F009E22B
:1002DB0008B5F06BDFF58067E3F5F009E608B5F0DC
:1002EB005EDFF5805A87F009E608B5F052DFF6803D
:1002FB004E87F009E208B5F046DFF6804288828C23
:10030B008387F009E0A3B5F036DFF6803288828C64
:10031B008387F009E493A3B5F025DFF5802188826C
:10032B008C83E3F5F009E0A3B5F014DFF5801088BA
:10033B00828C83E3F5F009E493A3B5F002DFF402BA
:10034B000405808780E9809080D4803E8015806E84
:10035B00807E809D80B7808D80A380518074803C8F
:10036B0002041189828A83ECFAE493F5F0A3C8C5E1
:10037B0082C8CCC583CCE493A3C8C582C8CCC58343
:10038B00CCB5F076DFE3DEE1807089828A83E4937B
:10039B00F5F0A3E208B5F062DFF4805E89828A8310
:1003AB00E0F5F0A3E608B5F051DFF5804D89828AC0
:1003BB0083E0F5F0A3E208B5F040DFF5803C8982DD
:1003CB008A83E493F5F0A3E608B5F02EDFF4802AD8
:1003DB008002805789828A83ECFAE493F5F0A3C8F4
:1003EB00C582C8CCC583CCE0A3C8C582C8CCC583A5
:1003FB00CCB5F006DFE4DEE280007FFFB5F0020F44
:10040B002240027F012289828A83ECFAE0F5F0A375
:10041B00C8C582C8CCC583CCE0A3C8C582C8CCC52F
:10042B0083CCB5F0D5DFE5DEE380CF89828A83EC20
:10043B00FAE0F5F0A3C8C582C8CCC583CCE493A37E
:10044B00C8C582C8CCC583CCB5F0AFDFE4DEE28093
:10045B00A988F0EF60010E4E60ABED2402B40400EE
:10046B005098F582EB2402B40400508E232345826E
:10047B002390034D73EF4E6012EF60010EEDBB0145
:10048B000B89828A83F0A3DFFCDEFA2289F0500706
:10049B00F709DFFCA9F022BBFEFCF309DFFCA9F096
:1004AB0022C0E0C0F0C083C082C0D075D00820D974
:1004BB0003020823E5D9543F70030207FF24E070C1
:1004CB000302078514603824F16044242E60030274
:1004DB00082120DE030208219001F5E5DBF0E0FFA7
:1004EB007E00C874DAC8CC7400CCCD7401CD7B010E
:1004FB007A00796412011653D4F3D20502082175E0
:10050B00D300E5D254FC4402F5D2D2060208219066
:10051B0001F5E5DBF0E06408600302075890000684
:10052B00E090010FF09001F5E4F0900001E09001F4
:10053B0010F0900000E05460601A900110E0142459
:10054B00FD400302075E24FB24FD400302075E808F
:10055B0000020758900110E0B40B0040030207564D
:10056B00900572F82828730207390206890207568C
:10057B000206C302075602065602059302075602ED
:10058B00066102067E02075E900003E024FE601EF9
:10059B0024E060302421704D9001127401F0A3749B
:1005AB0000F0A374C8F09001F57412F0803D900137
:1005BB00127401F0A37400F0A374E5F09001F574CC
:1005CB0029F08027900004E0701B90011204F0A327
:1005DB007401F0A37423F09001F57483F09001A6DD
:1005EB007401F080069001F574FFF09001F5E0FFC7
:1005FB0090010FE0D39F4002EFF090010FE0FFC39B
:10060B00942040077E20CFEECF80009001F5EFF0D5
:10061B007E00C87400C8CC7400CCCD7401CD9001A1
:10062B0012E0FBA3E0FAA3E0F912011690010FE030
:10063B00FF9001F5E0FEC3EF9E90010FF0EEFF90EF
:10064B000113E48FF012018202075E900002E0902A
:10065B00010FF002075E9000BDE0900000F09001EA
:10066B000FE0C39401500302075E9001F57401F093
:10067B0002075E900002E09000BDF002075E900062
:10068B0000E0541F6402702D900004E014601D24E0
:10069B0080600E14701CE5D454BC4402F5D40207E0
:1006AB005EE5D254BC4402F5D202075E53D273020C
:1006BB00075E020758020758900000E0541FFD70B8
:1006CB001B900003E0FE900002E0FBEB64014E7018
:1006DB00099000ECE020E57B80738071ED64027083
:1006EB004B900003E0FE900002E0FDED4E703B905E
:1006FB000005E0FE900004E0FDEDFFEE702AEF2414
:10070B00FE60112481601714701EE5D454BF44039E
:10071B00F5D4803FE5D4547F440CF5D48035E5D235
:10072B0054BF4403F5D2802B80238021801F90007F
:10073B0000E4F0A3F090010FE0FFC394029001F5E9
:10074B0040057402F0800CEFF0800880009001F5FA
:10075B0074FFF09001F5E0FFB4FF0C90011074FFF3
:10076B00F075DCCF020821EFD3942050048FDD808D
:10077B000375DD0075DCC0020821900110E024FB3D
:10078B00605C14706790010FE0FFC3942040077EFC
:10079B0020CFEECF80009001F5EFF07E00C8740003
:1007AB00C8CC7400CCCD7401CD900112E0FBA3E05A
:1007BB00FAA3E0F912011690010FE0FF9001F5E0AA
:1007CB00FEC3EF9E90010FF0EEFF900113E48FF04C
:1007DB001201829001F5E0F5DD63DC408038E5E342
:1007EB005480FF90010FE04FF5E3800375DD00753A
:1007FB00DC0280229001F5E5DBF0900110E0B409FA
:10080B000F9001F5E0B40108900000E090010EF0AC
:10081B0075DD0075DC00C2D930D81275DC0275D2DB
:10082B001E75D41375E300C2DAC2D9C2D830DA040C
:10083B00C2DA800375D8FFD0D0D082D083D0F0D06D
:10084B00E032C107602801A7005300540055005641
:10085B00005F006000610057005C005D005E0000FF
:10086B000059005A005B0000006200000063005852
:10087B006083012305010906A1018501050719E024
:10088B0029E7150025017501950881029501750869
:10089B00810195037501050819012903910295053D
:1008AB00750191019506750826FF000507190029AA
:1008BB00918100C005010906A101850205071904F4
:1008CB002967150025017501956381027501950551
:1008DB008103C00600FF0901A10185030902150070
:1008EB0026FF00950A750881060902150026FF00F0
:1008FB00950A75089106C05200C81201000200004B
:10090B0000203D410721000000000001602900E5A7
:10091B0009022900010100A03209040000020300B2
:10092B00000009211101000122830007058103202A
:10093B000001070502032000014900A6000000008A
:10094B0000000000004900BF000000000000000094
:10095B00004E011500000000000000000000000028
:10096B0000004E00AF00000000000000000000007F
:10097B000000004B00DA0000000000000000000047
:10098B0000410111034101100041010F004101A67B
:10099B00004100BE004100BD0041010E00C106C177
:1009AB00054201CF00004101D1014201D3000041BA
:1009BB0001D501C18804100000000000EFC39408AA
:1009CB005058ED14601E14602C14603C240360031B
:1009DB00020A8BA8077401088002C333D8FCF452B7
:1009EB0092529322A8077401088002C333D8FCFEED
:1009FB00F452928021A8077401088002C333D8FCFB
:100A0B00FE4292EEF4529322A8077401088002C3AF
:100A1B0033D8FCFE4292EE429322EFD3940840600F
:100A2B00ED14601E14602F14604224037052EF24E7
:100A3B00F7FEF87401088002C333D8FCF4529652C7
:100A4B009722EF24F7FEF87401088002C333D8FC19
:100A5B00FEF452968027EF24F7FEF874010880020B
:100A6B00C333D8FCFE4296EEF4529722EF24F7FEE6
:100A7B00F87401088002C333D8FCFE4296EE42970D
:100A8B00229001F6EBF0A3EAF0A3E9F0E4A3F0A3C4
:100A9B00F09001F9F09001F9E0FFC39405400302D7
:100AAB000B3C9001F6E0FBA3E0FAA3E0F98F827513
:100ABB0083001201556071E49001FAF09001FAE0A5
:100ACB00FFC3940450629001F6E0FBA3E0FAA3E0AD
:100ADB00F9A3E0F582758300120155FD7C007E00C1
:100AEB007401A807088005C333CE33CED8F9FFEEC7
:100AFB005CFEEF5D4E60299001F9E075F008A424CF
:100B0B00A7F582E43401F583C083C0829001FAE03B
:100B1B00D082D08375F0021202CAA3E0FF12130A2F
:100B2B009001FAE004F080949001F9E004F0020ADD
:100B3B00A0229001F6EBF0A3EAF0A3E9F0C204E4E3
:100B4B009001FDF0A3F030030FD20712126A90024E
:100B5B0003EEF0A3EFF08073300770900203E0FE1A
:100B6B00A3E0FF1211DCC3EF9405EE9400405C9000
:100B7B0001FCE0FFA3E4F0A3EFF09001FDE0FEA386
:100B8B00E0FF9001F9E0FBA3E0FAA3E0F8AC02ADC3
:100B9B00039001F6E0FBA3E0FAA3E0F912045CEF8B
:100BAB0060279001FDE0FEA3E0FF9001F9E0FBA3BD
:100BBB00E0FAA3E0F8AC02AD039001F6E0FBA3E092
:100BCB00FAA3E0F9120116D204C207A204227D0394
:100BDB007F091209C77D037F0A1209C77D037F04B2
:100BEB001209C77D037F0B1209C77D037F02120910
:100BFB00C77D037F031209C77D037F0E1209C77DD3
:100C0B00037F0C1209C77D03E4FF1209C7D2037FD0
:100C1B0009120F72D2037F0A120F72D2037F0412D2
:100C2B000F72D2037F0B120F72D2037F02120F725D
:100C3B00D2037F03120F72D2037F0E120F72D203F5
:100C4B007F0C120F72D203E4FF120F727E007F052E
:100C5B007D007B017A0179F01204807E007F057D97
:100C6B00007B017A0179EB020480787FE4F6D8FDF2
:100C7B00758121020CBC0210D7E493A3F8E493A373
:100C8B004003F68001F208DFF48029E493A3F854C3
:100C9B0007240CC8C333C4540F4420C8834004F446
:100CAB0056800146F6DFE4800B0102040810204059
:100CBB008090084DE47E019360BCA3FF543F30E568
:100CCB0009541FFEE493A360010ECF54C025E060CE
:100CDB00A840B8E493A3FAE493A3F8E493A3C8C59C
:100CEB0082C8CAC583CAF0A3C8C582C8CAC583CA8D
:100CFB00DFE9DEE780BEC200C201C20230081EC2BD
:100D0B00081200039001D6EBF0A3EAF0A3E9F0126E
:100D1B00135E9001D9EBF0A3EAF0A3E9F012129065
:100D2B001212AF92009001D9E0F9A3E0FAA3E09080
:100D3B0001F9C9F0A3EAF0A3E9F0A37405F0A2004E
:100D4B0092039001D6E0FBA3E0FAA3E0F9120B3D6E
:100D5B0092013001119001D9E0FBA3E0FAA3E0F975
:100D6B00120A8C120EB922C2037F09120F727F0274
:100D7B0012105F9001F0E040054401F0800354FE37
:100D8B00F07F0312105F9001F1E040054408F08002
:100D9B000354F7F07F0E12105F9001F2E040054410
:100DAB0001F0800354FEF07F0C12105F9001F3E012
:100DBB0040054404F0800354FBF0E4FF12105F90F5
:100DCB0001F4E040054401F0800354FEF0D2037FB0
:100DDB0009020F72C2037F0A120F727F0212105F99
:100DEB009001F0E040054402F0800354FDF07F03D6
:100DFB0012105F9001F1E040054404F0800354FBB6
:100E0B00F07F0E12105F9001F2E040054402F0807B
:100E1B000354FDF07F0C12105F9001F3E04005448A
:100E2B0002F0800354FDF0E4FF12105F9001F4E038
:100E3B0040054404F0800354FBF0D2037F0A020FF9
:100E4B0072C2037F04120F727F0212105F9001F0C7
:100E5B00E040054404F0800354FBF07F0312105F65
:100E6B009001F1E040054402F0800354FDF07F0E49
:100E7B0012105F9001F2E040054404F0800354FB34
:100E8B00F07F0C12105F9001F3E040054401F080FD
:100E9B000354FEF0E4FF12105F9001F4E0400544B0
:100EAB0008F0800354F7F0D2037F04020F72C8746A
:100EBB00A6C8CC7400CCCD7401CD7B017A0079BF70
:100ECB007E007F0912045CEF6012C2067B017A0080
:100EDB0079A67D091211773006FDC206C87415C8B4
:100EEB00CC7401CCCD7401CD7B017A0079AF7E003F
:100EFB007F0E12045CEF6012C2067B017A0179153A
:100F0B007D0E1211773006FDC20612000E02120D75
:100F1B00C2EAE4F5E2CE7400CECF7400CF8EED8F33
:100F2B00EC75DC02CE7400CECF7422CF8EEF8FEE39
:100F3B00E5EA54EF4440F5EA75D21ECE7400CECFED
:100F4B007464CF8EE58FE4E5EB54FE4408F5EB7546
:100F5B00D413E4F5E375D18075E22943D10175D83B
:100F6B00FF75E107D2EA22EFC39408502030030E3D
:100F7B00A8077401088002C333D8FC429022A8074B
:100F8B007401088002C333D8FCF4529022EFD3943F
:100F9B00084025300311EF24F7FFF8740108800295
:100FAB00C333D8FC42B022EF24F7FFF8740108805A
:100FBB0002C333D8FCF452B0229001157402F074C2
:100FCB00FC2FFFD394075015A3E0FEC8EFC87401A4
:100FDB00088002C333D8FC4E900116F022EF131396
:100FEB0013541F2416F582E43401F583C083C082A9
:100FFB00E0FEEF5407FFC8EFC87401088002C3334B
:10100B00D8FC4ED082D083F0229000A67401F0EF72
:10101B00C394E04020EFD394E7501AA3E0FEEF24F3
:10102B0020FFC8EFC87401088002C333D8FC4E9070
:10103B0000A7F0D322900111E0FED39408400122C7
:10104B0074A62EF582E43400F583EFF0900111E0E5
:10105B0004F0D322EFC3940850157E007401A80747
:10106B00088005C333CE33CED8F9FFAD90801DEF8A
:10107B00D39408401CEF24F7FF7E007401A80708E7
:10108B008005C333CE33CED8F9FFADB0EF5D24FF6F
:10109B0022C3229001F6EBF0A3EAF0A3E9F03005AE
:1010AB002AC2059000DAE0B403219001F6E0FBA31D
:1010BB00E0FAA3E0F9C8E9C8CCEACCCDEBCD7B01D3
:1010CB007A0079DB7E007F0A1201162212131E7F33
:1010DB00147E001212DD120F1B1212F4E4FF121316
:1010EB00697F011212C6120BD9D2AFD28C7F0A7E46
:1010FB00001212DD121341120D011213301213657F
:10110B0080F5C0E0C0F0C083C082C0D075D018E5B8
:10111B00132401F513E43512F512E43511F511E43E
:10112B003510F5107DE87C03E4FF12123CD0D0D0D3
:10113B0082D083D0F0D0E032C2037F0B120F727FCC
:10114B000212105F9001F0E040054408F080035458
:10115B00F7F07F0312105F9001F1E040054401F0BE
:10116B00800354FEF0D2037F0B020F729001F6ED59
:10117B00F0FF7E00EBC0E0EAC0E0E9C0E0C87422FB
:10118B00C8CC7400CCCD7401CDD0E0F9D0E0FAD04E
:10119B00E0FB1201169001F6E0F5D353D2FC22EFDF
:1011AB007009E58954F04DF5898023EFB40110AF38
:1011BB0005EFC454F0FFE589540F4FF589800FEF0D
:1011CB00B40208C2CDC2CCC2C880037FFF227F000D
:1011DB0022AB07AA067F01D2AEEF6014AF13AE129B
:1011EB00AD11AC109001FF12028DE4FFC2AE80E98D
:1011FB009001FFA3A3E0FEA3E0FFC3EF9BFFEE9ADA
:10120B00FE22C874AFC8CC7400CCCD7401CD7B0169
:10121B007A0179157E007F0E1201167E007F0E7DFE
:10122B00007B017A0179151204809001157402F08C
:10123B0022C3E49DFDE49CFCEF7007EDF58AECF511
:10124B008C22EFB40107EDF58BECF58D22EFB40298
:10125B000DAF05EDF5CC8FCAECFFF5CD8FCB227F13
:10126B0001D2AEEF6014AF13AE12AD11AC10900102
:10127B00FF12028DE4FFC2AE80E99001FFA3A3E051
:10128B00FEA3E0FF2278E67C017D017B017A0179E8
:10129B00F07E007F05120116120D72120DDF120E79
:1012AB004C02114378E67C017D017B017A0179F0D8
:1012BB007E007F0512045CEF24FF2275A15575A1FA
:1012CB00AAEF600543B101800353B1FEE4F5A1F52C
:1012DB00FF22AD07AC06ED4C600E7FE87E031213C8
:1012EB0050ED1D70F11C80EE2253C9EF7D01E4FF20
:1012FB001211AA7DE87C03E4FF12123CD2A922CD85
:10130B00EFCDCFCF1210149203200306CFEDCF12E7
:10131B000FC42275A15575A1AAE5B954F84404F57B
:10132B00B9E4F5A1227B017A0179DC12109E9001C0
:10133B00DCE0B4A50022E4F5D3C2069001A6F09040
:10134B00010E04F022EF4E600905A1EF1F70F61E8F
:10135B0080F3227B017A0179EB22E4F5FF228FFFE8
:01136B00225F
:00000001FF
