:10000000020EB2AF2AAE292202003D02107075A185
:100010005575A1AAE5B954F84404F5B9E4F5A1224F
:1000230002118BAD07AC06ED4C600E7FE87E031228
:0E00330011E6ED1D70F11C80EE22E4F5FF22B7
:10004300020046C0E0C0F0C083C082C0D075D008B3
:1000530020D9030203B9E5D9543F70030203952461
:10006300E0700302031B14601924F16029240E605D
:10007300030203B775D500E5D454FC4402F5D4025A
:1000830003B775D300E5D254FC4402F5D290005671
:100093007401F00203B79000E6E5DBF0E06408606A
:1000A300030202EE900006E090008CF0900007E05F
:1000B300700990008CE0D3947F400690008C747F8D
:1000C300F09000E6E4F0900001E0900099F09000D9
:1000D30000E05460601A900099E01424FD4003028C
:1000E30002F424FB24FD40030202F480000202EE2A
:1000F300900099E0B40B0040030202EC900106F873
:100103002828730202CF02021F0202EC02025902E4
:1001130002EC0201EC0201270202EC0201F70202E7
:10012300140202F4900003E024FE601E24E0603019
:100133002421704F9000E27401F0A37400F0A374C3
:1001430057F09000E67412F0803F9000E27401F0E3
:10015300A37400F0A37469F09000E67422F0802980
:10016300900004E0701D9000E204F0A37400F0A37B
:1001730074A4F09000E6743EF09000E57401F0D2B0
:10018300AC80069000E674FFF09000E6E0FF90007C
:100193008CE0D39F4002EFF090008CE0FFC3940803
:1001A30040077E08CFEECF80009000E6EFF07E00A0
:1001B300C87400C8CC7400CCCD7401CD9000E2E0CB
:1001C300FBA3E0FAA3E0F9120B1390008CE0FF907D
:1001D30000E6E0FEC3EF9E90008CF0EEFF9000E39C
:1001E300E48FF0120B390202F4900002E090008CCD
:1001F300F00202F4900054E0900000F090008CE0D4
:10020300C3940150030202F49000E67401F0020269
:10021300F4900002E0900054F00202F4900000E039
:10022300541F6402702D900004E014601D2480604C
:100233000E14701CE5D454BC4402F5D40202F4E558
:10024300D254BC4402F5D20202F453D2730202F434
:100253000202EE0202EE900000E0541FFD701B90BC
:100263000003E0FE900002E0FBEB64014E70099096
:100273000070E020E57B80738071ED6402704B9029
:100283000003E0FE900002E0FDED4E703B900005A0
:10029300E0FE900004E0FDEDFFEE702AEF24FE6027
:1002A300112481601714701EE5D454BF4403F5D4A0
:1002B300803FE5D4547F440CF5D48035E5D254BF58
:1002C3004403F5D2802B80238021801F900000E41B
:1002D300F0A3F090008CE0FFC394029000E6400589
:1002E3007402F0800CEFF0800880009000E674FF49
:1002F300F09000E6E0FFB4FF0C90009974FFF075F6
:10030300DCCF0203B7EFD3940850048FDD8003756D
:10031300DD0075DCC00203B7900099E024FB605C4C
:1003230014706790008CE0FFC3940840077E08CFE9
:10033300EECF80009000E6EFF07E00C87400C8CCDA
:100343007400CCCD7401CD9000E2E0FBA3E0FAA3EE
:10035300E0F9120B1390008CE0FF9000E6E0FEC37F
:10036300EF9E90008CF0EEFF9000E3E48FF0120B11
:10037300399000E6E0F5DD63DC408038E5E3548046
:10038300FF90008CE04FF5E3800375DD0075DC0220
:1003930080229000E6E5DBF0900099E0B4090F902D
:1003A30000E6E0B40108900000E090008BF075DDFA
:1003B3000075DC00C2D930D81275DC0275D2107515
:1003C300D41275E300C2DAC2D9C2D830DA04C2DA71
:1003D300800375D8FFD0D0D082D083D0F0D0E03264
:1003E300E52224ECF582E43400F583E00522229033
:1003F30000E93007039000ECE475F001120CF402FD
:100403000C9C2000E97F2ED2008018EF540F24901B
:10041300D43440D4FF30040BEF24BFB41A0050038C
:100423002461FFE523600215230526E526700205F6
:100433002530070E9000E9E475F001120CF4EF0289
:100443000CE20211647403D2078003E4C207F522AD
:100453009000E9120D0BE4F523F525F526E523605D
:10046300077F2012042680F57524FFC201C200C253
:1004730002C203C205C206C2081203F2FF700D30A6
:1004830007057F00120437AF26AE2522B4255FC2CD
:10049300D5C2041203F2FF24D0B40A00501A75F037
:1004A3000A782330D50508B6FF0106C6A426F62030
:1004B300D5047002D20380D924CFB41A00EF5004BC
:1004C300C2E5D204020638D20180C6D20080C0D26F
:1004D3000280BCD2D580BAD20580B47F2012042614
:1004E3002002077401B5230040F11203E3FF120455
:1004F30026020460D208D20680951203E3FB12039E
:10050300E3FA1203E3F94A4B700679097A077BFF92
:1005130020022EE523602A7E008E82758300120C52
:10052300B560060EEE652470F0C2D5EBC0E0EAC0FC
:10053300E0E9C0E0EE12067FD0E0F9D0E0FAD0E0C7
:10054300FB120C9CFF60AAEBC0E0EAC0E0E9C0E04C
:10055300120426D0E02401F9D0E03400FAD0E0FB05
:10056300E5240460DCD524D980877BFF7A06797B78
:10057300D202809C791080027908C206C2088008E2
:10058300D2D5790A8004790AC2D5E524047002F52C
:1005930024E4FAFDFEFF1203E3FC7B08200113129F
:1005A30003E3FD7B1030000A1203E3FE1203E3FFB3
:1005B3007B20EC3382D592D55013C3E43000069FE1
:1005C300FFE49EFEE42001039DFDE49CFCE4CBF8E4
:1005D300C201EC700CCFCECDCCE824F8F870F380D8
:1005E30017C3EF33FFEE33FEED33FDEC33FCEB3398
:1005F300FB994002FB0FD8E9EB300105F8D0E0C4CA
:1006030048B201C0E00AEC4D4E4F78207B0070C227
:10061300EAB5240040BCC0E0120681D0F0D0E0204F
:100623000104C4C0E0C4B201C0F012040FD0F0D57D
:10063300F0EB020460120D1404FD5305775804CE49
:100643004C04CA42057B4F05834405834904E343B5
:10065300058955056D46056D45056D470729500408
:10066300D22D04D62E04F92B04DA2304F720071223
:100673002A049248000004F13F3F3F00790AA2D5C3
:10068300200314300509B910020404B9080104A2B7
:10069300D52006025001042002689202B5230050BF
:1006A30034C0E07F203003197F30A2027206720546
:1006B300500F1206D8C202C206C205C2087F30809C
:1006C3000F300503E9C0E0120426300503D0E0F93A
:1006D300D0E0B523CC3005177F30B9100C120426B7
:1006E3007F583004077F788003B90803120426304B
:1006F30002057F2D0204267F202008F87F2B200689
:10070300F322920280CF286E756C6C2900D20112FD
:1007130003E33001F8C201782330D50108F602045F
:10072300922D504349581203E32403B405004001BA
:10073300E490072493120417743A120417D2037532
:1007430023040205779000E9EFF0E490004CF0EF0A
:10075300C3946140369000E9E0D3947A502D900021
:100763008BE030E11DE4900056F090004E7439F0B8
:1007730012111D900056E060FA12110E900056E01F
:1007830060FA9000E9E024A3020A3C9000E9E0FF4C
:10079300C394414033EFD3945A502D90008BE02003
:1007A300E11DE4900056F090004E7439F012111DD3
:1007B300900056E060FA12110E900056E060FA9035
:1007C30000E9E024C3020A3C9000E9E0FFC394314E
:1007D300400CEFD394395006E024ED020A3C90001C
:1007E300E9E0FFB4300790004E7427F022EFD39472
:1007F3002F40030208B7EFB4200790004E742CF08B
:1008030022EFB4210890004E741E0209ADEFB4220A
:100813000890004E74340209ADEFB4230890004EE3
:1008230074200209ADEFB4240890004E742102092C
:10083300ADEFB4250890004E74220209ADEFB42643
:100843000890004E74240209ADEFB4270790004EC0
:100853007434F022EFB4280890004E74260209ADD8
:10086300EFB4290890004E74270209ADEFB42A08AB
:1008730090004E74250209ADEFB42B0890004E741E
:100883002E0209ADEFB42C0790004E7436F022EF20
:10089300B42D0790004E742DF022EFB42E07900074
:1008A3004E7437F022EF642F6003020A4290004E29
:1008B3007438F022EFD3943F5058EFB43A079000C6
:1008C3004E743380449000E9E0FFB43B0790004E40
:1008D3007433F022EFB43C0790004E7436802A90B4
:1008E30000E9E0FFB43D0790004E742EF022EFB410
:1008F3003E0790004E743780109000E9E0643F603B
:1009030003020A4290004E7438F090004CE0440217
:10091300F0229000E9E0FFB4400890004E741F02FB
:1009230009ADEFC3945B404CEFD394605046EFB4F2
:100933005B0790004E742FF022EFB45C0790004EDB
:100943007431F022EFB45D0790004E7430F022EF63
:10095300B45E0790004E74238050EFB45F0790009D
:100963004E742D8045EF64606003020A4290004E8E
:100973007435F022EFC3947B4047EFD3947F50410B
:10098300EFB47B0790004E742F801FEFB47C079069
:10099300004E74318014EFB47D0790004E743080A4
:1009A30009EFB47E0D90004E7435F090004C740244
:1009B300F022EF647F6003020A4290004E744CF011
:1009C30022EFC394804020EFD39487501AEF540F43
:1009D3009000E9F0E0FFC8EFC87401088002C33358
:1009E300D8FC90004CF0229000E9E0FFC394D7407C
:1009F3000BEFD394DA5005E02478803D9000E9E0D2
:100A0300FFC394B0400BEFD394B35005E024788038
:100A1300289000E9E0FFC394D1400BEFD394D55065
:100A230005E0247880139000E9E0FFC394C1400FF0
:100A3300EFD394CD5009E02478F0E090004EF022FB
:100A4300E709F608DFFA8046E709F208DFFA803E95
:100A530088828C83E709F0A3DFFA8032E309F60882
:100A6300DFFA8078E309F208DFFA807088828C83EA
:100A7300E309F0A3DFFA806489828A83E0A3F6089E
:100A8300DFFA805889828A83E0A3F208DFFA804C78
:100A930080D280FA80C680D4806980F2803380104F
:100AA30080A680EA809A80A880DA80E280CA8033B8
:100AB30089828A83ECFAE493A3C8C582C8CCC58330
:100AC300CCF0A3C8C582C8CCC583CCDFE9DEE78000
:100AD3000D89828A83E493A3F608DFF9ECFAA9F07F
:100AE300EDFB2289828A83ECFAE0A3C8C582C8CCD5
:100AF300C583CCF0A3C8C582C8CCC583CCDFEADEEE
:100B0300E880DB89828A83E493A3F208DFF980CC4F
:100B130088F0EF60010E4E60C388F0ED2402B40448
:100B23000050B9F582EB2402B4040050AF232345EF
:100B33008223900A9373C5F0F8A3E028F0C5F0F878
:100B4300E582158270021583E038F022A3F8E0C530
:100B5300F025F0F0E582158270021583E0C838F0C5
:100B6300E82275F008758200EF2FFFEE33FECD33D8
:100B7300CDCC33CCC58233C5829BED9AEC99E5820B
:100B830098400CF582EE9BFEED9AFDEC99FC0FD597
:100B9300F0D6E4CEFBE4CDFAE4CCF9A88222B80087
:100BA300C1B90059BA002DEC8BF084CFCECDFCE552
:100BB300F0CBF97818EF2FFFEE33FEED33FDEC3376
:100BC300FCEB33FB10D703994004EB99FB0FD8E5FB
:100BD300E4F9FA227818EF2FFFEE33FEED33FDEC44
:100BE30033FCC933C910D7059BE99A4007EC9BFC3A
:100BF300E99AF90FD8E0E4C9FAE4CCFB2275F010C6
:100C0300EF2FFFEE33FEED33FDCC33CCC833C810EA
:100C1300D7079BEC9AE899400AED9BFDEC9AFCE818
:100C230099F80FD5F0DAE4CDFBE4CCFAE4C8F92265
:100C3300ECF0A3EDF0A3EEF0A3EFF022A8828583FE
:100C4300F0D083D082120C56120C56120C56120C92
:100C530056E473E493A3C583C5F0C583C8C582C8AE
:100C6300F0A3C583C5F0C583C8C582C822EF4E6013
:100C730012EF60010EEDBB010B89828A83F0A3DFC3
:100C8300FCDEFA2289F05007F709DFFCA9F022BB4A
:100C9300FEFCF309DFFCA9F022BB010689828A83EB
:100CA300E0225002E722BBFE02E32289828A83E428
:100CB3009322BB010CE58229F582E5833AF583E0B3
:100CC300225006E92582F8E622BBFE06E92582F8D2
:100CD300E222E58229F582E5833AF583E49322BB98
:100CE300010689828A83F0225002F722BBFE01F3B8
:100CF30022F8E0FBA3A3E0F925F0F0E5821582706A
:100D0300021583E0FA38F022EBF0A3EAF0A3E9F04E
:100D130022D083D082F8E4937012740193700DA3F0
:100D2300A393F8740193F5828883E4737402936840
:100D330060EFA3A3A380DF04270000000042012289
:100D43000000410124014201250000410127014225
:100D53000128000041012A01603E00A405010906A3
:100D6300A101050719E029E715002501750195087B
:100D73008102950175088101950375010508190123
:100D8300290391029505750191019506750826FFC2
:100D9300000507190029918100C052005712010074
:100DA30002000000083D410721000000000001602F
:100DB30022006909022200010100A0320904000097
:100DC3000103000000092111010001223E00070573
:100DD300810308000148004C0000000000000000EF
:100DE30048008F0000000000000000420097000050
:100DF30042008D000042009A00004100990041002A
:100E03008C004100E50041005500410056004100BF
:100E1300540041008B0000C29FD29EC29DC2CDC22E
:100E2300CC4387809000E9120C3F00000082E47BF2
:100E33000AFAF9F89000E9E0FCA3E0FDA3E0FEA3C1
:100E4300E0FF120BA19000EDEBF09000E9E0FCA3B2
:100E5300E0FDA3E0FEA3E0FFE47B0AFAF9F8120B3E
:100E6300A19000E9120C339000EDE0C39405401FFC
:100E73009000E9E0FCA3E0FDA3E0FEA3E02401FF72
:100E8300E43EFEE43DFDE43CFC9000E9120C33E556
:100E930089540F4420F58943C9A09000E9A3A3A373
:100EA300E0F404F58DD28ED29943C610D29C2278F9
:100EB3007FE4F6D8FD75812A020EF90210A6E493A9
:100EC300A3F8E493A34003F68001F208DFF480293A
:100ED300E493A3F85407240CC8C333C4540F442029
:100EE300C8834004F456800146F6DFE4800B010218
:100EF300040810204080900D3AE47E019360BCA367
:100F0300FF543F30E509541FFEE493A360010ECF65
:100F130054C025E060A840B8E493A3FAE493A3F88F
:100F2300E493A3C8C582C8CAC583CAF0A3C8C5824F
:100F3300C8CAC583CADFE9DEE780BE90008DE0FE44
:100F4300A3E0248FF58274003EF583E0FF12074887
:100F530090008EE004F0700690008DE004F0C390E2
:100F6300008EE0940890008DE094004004E4F0A328
:100F7300F0E4900056F012111D900056E060FA1252
:100F8300110E900056E060FA22C2EAE4F5E2CE7454
:100F930000CECF7400CF8EED8FECCE7400CECF7425
:100FA3000ACF8EEF8FEE75EA6775DC0275D242F5D4
:100FB300E375D18075E22943D10175D8FF75E10747
:100FC300D2EA2290009AE475F001120B4FFC748F61
:100FD30025F0F58274003CF583EFF0900098E0046F
:100FE300F07006900097E004F0C390009BE0940833
:100FF30090009AE094004004E4F0A3F022900124CE
:10100300E06010120003900122EEF0A3EFF0E4A3DE
:10101300F0C2B0900122E0FEA3E0FF1211D6D3EF9D
:1010230094E8EE9403400DB2B0120003900122EE57
:10103300F0A3EFF022C3E49DFDE49CFCEF700ACF24
:10104300EDCFEFF58AECF58C22EFB4010ACFEDCFAB
:10105300EFF58BECF58D22EFB40211CFEDCFEFF569
:10106300CC8FCACEECCEEEFFF5CD8FCB22C0E0C045
:10107300F0C083C082C0D075D018E52A2401F52AB8
:10108300E43529F529E43528F528E43527F5277DC6
:10109300E87C03E4FF121038D0D0D082D083D0F0A4
:1010A300D0E032E49000E7F0A3F012000E7F147E4C
:1010B30000120026120E1A7BFF7A12791312044EC5
:1010C300120F8C1211AFD2AFD28C1211C5120008BD
:1010D30012100012113D80F5EF7009E58954F04DAF
:1010E300F5898024EFB40111CFEDCFEFC454F0FFA5
:1010F300E589540F4FF589800FEFB40208C2CDC2C2
:10110300CCC2C880037FFF227F0022E4F0FE7F0869
:10111300FD7B017A00794C120C70C8740AC8CC7438
:1011230000CCCD7401CD7B017A00794C7E007F0821
:10113300120B1375D30853D2FC229000E5E0602014
:10114300D3900098E09400900097E094004011122F
:101153000F3E900098E024FFF0900097E034FFF0FA
:1011630022EFB40A07740D12116F740A309811A894
:1011730099B8130CC2983098FDA899C298B811F683
:101183003099FDC299F59922C0E0C0F0C083C082B6
:10119300C0D075D010309807AF99C298120FC6C24D
:1011A30099D0D0D082D083D0F0D0E03253C9EF7D34
:1011B30001E4FF1210DB7DE87C03E4FF121038D258
:1011C300A922E4F5D3900056F09000E5F090008B4F
:1011D30004F022AB07AA06AF2AAE29C3EF9BFFEEAA
:1011E3009AFE22EF4E600905A1EF1F70F61E80F3F1
:1011F30022756172745F64656275670A004B657975
:1012030020256420697320707265737365640A0016
:0712130073746172740A009C
:00000001FF
