:0A000000020C757B017A0179E922F8
:10000B00021131C874BFC8CC7400CCCD7401CD7B48
:10001B00017A0079A67E007F091201167E007F0906
:10002B007D007B017A0079A61204809000A67401F2
:10003B00F09001117403F0220204ACE709F608DF1B
:10004B00FA8046E709F208DFFA803E88828C83E764
:10005B0009F0A3DFFA8032E309F608DFFA8078E3D0
:10006B0009F208DFFA807088828C83E309F0A3DF42
:10007B00FA806489828A83E0A3F608DFFA805889C4
:10008B00828A83E0A3F208DFFA804C80D280FA8068
:10009B00C680D4806980F28033801080A680EA808D
:1000AB009A80A880DA80E280CA803389828A83ECC6
:1000BB00FAE493A3C8C582C8CCC583CCF0A3C8C54A
:1000CB0082C8CCC583CCDFE9DEE7800D89828A83C9
:1000DB00E493A3F608DFF9ECFAA9F0EDFB22898291
:1000EB008A83ECFAE0A3C8C582C8CCC583CCF0A345
:1000FB00C8C582C8CCC583CCDFEADEE880DB898249
:10010B008A83E493A3F208DFF980CC88F0EF6001D7
:10011B000E4E60C388F0ED2402B4040050B9F58292
:10012B00EB2402B4040050AF2323458223900096A6
:10013B0073BB010689828A83E0225002E722BBFE51
:10014B0002E32289828A83E49322BB010CE5822994
:10015B00F582E5833AF583E0225006E92582F8E63D
:10016B0022BBFE06E92582F8E222E58229F582E52B
:10017B00833AF583E49322C5F0F8A3E028F0C5F0A9
:10018B00F8E582158270021583E038F022A3F8E0BF
:10019B00C5F025F0F0E582158270021583E0C838B2
:1001AB00F0E82275F008758200EF2FFFEE33FECDDD
:1001BB0033CDCC33CCC58233C5829BED9AEC99E51C
:1001CB008298400CF582EE9BFEED9AFDEC99FC0FAC
:1001DB00D5F0D6E4CEFBE4CDFAE4CCF9A88222B874
:1001EB0000C1B90059BA002DEC8BF084CFCECDFCF9
:1001FB00E5F0CBF97818EF2FFFEE33FEED33FDEC86
:10020B0033FCEB33FB10D703994004EB99FB0FD86E
:10021B00E5E4F9FA227818EF2FFFEE33FEED33FD0C
:10022B00EC33FCC933C910D7059BE99A4007EC9B0B
:10023B00FCE99AF90FD8E0E4C9FAE4CCFB2275F09B
:10024B0010EF2FFFEE33FEED33FDCC33CCC833C8AC
:10025B0010D7079BEC9AE899400AED9BFDEC9AFCB2
:10026B00E899F80FD5F0DAE4CDFBE4CCFAE4C8F961
:10027B0022EB9FF5F0EA9E42F0E99D42F0E89C45A7
:10028B00F022ECF0A3EDF0A3EEF0A3EFF022A882A6
:10029B008583F0D083D0821202B01202B01202B06A
:1002AB001202B0E473E493A3C583C5F0C583C8C53C
:1002BB0082C8F0A3C583C5F0C583C8C582C822A474
:1002CB002582F582E5F03583F58322E3F5F009E22B
:1002DB0008B5F06BDFF58067E3F5F009E608B5F0DC
:1002EB005EDFF5805A87F009E608B5F052DFF6803D
:1002FB004E87F009E208B5F046DFF6804288828C23
:10030B008387F009E0A3B5F036DFF6803288828C64
:10031B008387F009E493A3B5F025DFF5802188826C
:10032B008C83E3F5F009E0A3B5F014DFF5801088BA
:10033B00828C83E3F5F009E493A3B5F002DFF402BA
:10034B000405808780E9809080D4803E8015806E84
:10035B00807E809D80B7808D80A380518074803C8F
:10036B0002041189828A83ECFAE493F5F0A3C8C5E1
:10037B0082C8CCC583CCE493A3C8C582C8CCC58343
:10038B00CCB5F076DFE3DEE1807089828A83E4937B
:10039B00F5F0A3E208B5F062DFF4805E89828A8310
:1003AB00E0F5F0A3E608B5F051DFF5804D89828AC0
:1003BB0083E0F5F0A3E208B5F040DFF5803C8982DD
:1003CB008A83E493F5F0A3E608B5F02EDFF4802AD8
:1003DB008002805789828A83ECFAE493F5F0A3C8F4
:1003EB00C582C8CCC583CCE0A3C8C582C8CCC583A5
:1003FB00CCB5F006DFE4DEE280007FFFB5F0020F44
:10040B002240027F012289828A83ECFAE0F5F0A375
:10041B00C8C582C8CCC583CCE0A3C8C582C8CCC52F
:10042B0083CCB5F0D5DFE5DEE380CF89828A83EC20
:10043B00FAE0F5F0A3C8C582C8CCC583CCE493A37E
:10044B00C8C582C8CCC583CCB5F0AFDFE4DEE28093
:10045B00A988F0EF60010E4E60ABED2402B40400EE
:10046B005098F582EB2402B40400508E232345826E
:10047B002390034D73EF4E6012EF60010EEDBB0145
:10048B000B89828A83F0A3DFFCDEFA2289F0500706
:10049B00F709DFFCA9F022BBFEFCF309DFFCA9F096
:1004AB0022C0E0C0F0C083C082C0D075D00820D974
:1004BB0003020823E5D9543F70030207FF24E070C1
:1004CB000302078514603824F16044242E60030274
:1004DB00082120DE030208219001CFE5DBF0E0FFCD
:1004EB007E00C874DAC8CC7400CCCD7401CD7B010E
:1004FB007A00796412011653D4F3D20502082175E0
:10050B00D300E5D254FC4402F5D2D2060208219066
:10051B0001CFE5DBF0E064086003020758900006AA
:10052B00E090010FF09001CFE4F0900001E090011A
:10053B0010F0900000E05460601A900110E0142459
:10054B00FD400302075E24FB24FD400302075E808F
:10055B0000020758900110E0B40B0040030207564D
:10056B00900572F82828730207390206890207568C
:10057B000206C302075602065602059302075602ED
:10058B00066102067E02075E900003E024FE601EF9
:10059B0024E060302421704D9001127401F0A3749B
:1005AB0000F0A374C8F09001CF7412F0803D90015D
:1005BB00127401F0A37400F0A374E5F09001CF74F2
:1005CB0029F08027900004E0701B90011204F0A327
:1005DB007401F0A37423F09001CF7483F09001A603
:1005EB007401F080069001CF74FFF09001CFE0FF13
:1005FB0090010FE0D39F4002EFF090010FE0FFC39B
:10060B00942040077E20CFEECF80009001CFEFF0FB
:10061B007E00C87400C8CC7400CCCD7401CD9001A1
:10062B0012E0FBA3E0FAA3E0F912011690010FE030
:10063B00FF9001CFE0FEC3EF9E90010FF0EEFF9015
:10064B000113E48FF012018202075E900002E0902A
:10065B00010FF002075E9000BDE0900000F09001EA
:10066B000FE0C39401500302075E9001CF7401F0B9
:10067B0002075E900002E09000BDF002075E900062
:10068B0000E0541F6402702D900004E014601D24E0
:10069B0080600E14701CE5D454BC4402F5D40207E0
:1006AB005EE5D254BC4402F5D202075E53D273020C
:1006BB00075E020758020758900000E0541FFD70B8
:1006CB001B900003E0FE900002E0FBEB64014E7018
:1006DB00099000ECE020E57B80738071ED64027083
:1006EB004B900003E0FE900002E0FDED4E703B905E
:1006FB000005E0FE900004E0FDEDFFEE702AEF2414
:10070B00FE60112481601714701EE5D454BF44039E
:10071B00F5D4803FE5D4547F440CF5D48035E5D235
:10072B0054BF4403F5D2802B80238021801F90007F
:10073B0000E4F0A3F090010FE0FFC394029001CF0F
:10074B0040057402F0800CEFF0800880009001CF20
:10075B0074FFF09001CFE0FFB4FF0C90011074FF19
:10076B00F075DCCF020821EFD3942050048FDD808D
:10077B000375DD0075DCC0020821900110E024FB3D
:10078B00605C14706790010FE0FFC3942040077EFC
:10079B0020CFEECF80009001CFEFF07E00C8740029
:1007AB00C8CC7400CCCD7401CD900112E0FBA3E05A
:1007BB00FAA3E0F912011690010FE0FF9001CFE0D0
:1007CB00FEC3EF9E90010FF0EEFF900113E48FF04C
:1007DB001201829001CFE0F5DD63DC408038E5E368
:1007EB005480FF90010FE04FF5E3800375DD00753A
:1007FB00DC0280229001CFE5DBF0900110E0B40920
:10080B000F9001CFE0B40108900000E090010EF0D2
:10081B0075DD0075DC00C2D930D81275DC0275D2DB
:10082B001E75D41375E300C2DAC2D9C2D830DA040C
:10083B00C2DA800375D8FFD0D0D082D083D0F0D06D
:10084B00E032C107602801A7005300540055005641
:10085B00005F006000610057005C005D005E0000FF
:10086B000059005A005B0000006200000063005852
:10087B006083012305010906A1018501050719E024
:10088B0029E7150025017501950881029501750869
:10089B00810195037501050819012903910295053D
:1008AB00750191019506750826FF000507190029AA
:1008BB00918100C005010906A101850205071904F4
:1008CB002967150025017501956381027501950551
:1008DB008103C00600FF0901A10185030902150070
:1008EB0026FF00950A750881060902150026FF00F0
:1008FB00950A75089106C05200C81201000200004B
:10090B0000203D410721000000000001602900E5A7
:10091B0009022900010100A03209040000020300B2
:10092B00000009211101000122830007058103202A
:10093B000001070502032000014900A6000000008A
:10094B0000000000004900BF000000000000000094
:10095B00004E011500000000000000000000000028
:10096B0000004E00AF00000000000000000000007F
:10097B000000004B00DA0000000000000000000047
:10098B0000410111034101100041010F004101A67B
:10099B00004100BE004100BD0041010E00C106C177
:1009AB00054201EE00004101F0014201F20000415D
:1009BB0001F401C18804100000000000EFC394088B
:1009CB005058ED14601E14602C14603C240360031B
:1009DB00020A8BA8077401088002C333D8FCF452B7
:1009EB0092529322A8077401088002C333D8FCFEED
:1009FB00F452928021A8077401088002C333D8FCFB
:100A0B00FE4292EEF4529322A8077401088002C3AF
:100A1B0033D8FCFE4292EE429322EFD3940840600F
:100A2B00ED14601E14602F14604224037052EF24E7
:100A3B00F7FEF87401088002C333D8FCF4529652C7
:100A4B009722EF24F7FEF87401088002C333D8FC19
:100A5B00FEF452968027EF24F7FEF874010880020B
:100A6B00C333D8FCFE4296EEF4529722EF24F7FEE6
:100A7B00F87401088002C333D8FCFE4296EE42970D
:100A8B00229001D0EBF0A3EAF0A3E9F0E4A3F0A3EA
:100A9B00F09001D3F09001D3E0FFC3940540030223
:100AAB000B3C9001D0E0FBA3E0FAA3E0F98F827539
:100ABB0083001201556071E49001D4F09001D4E0F1
:100ACB00FFC3940450629001D0E0FBA3E0FAA3E0D3
:100ADB00F9A3E0F582758300120155FD7C007E00C1
:100AEB007401A807088005C333CE33CED8F9FFEEC7
:100AFB005CFEEF5D4E60299001D3E075F008A424F5
:100B0B00A7F582E43401F583C083C0829001D4E061
:100B1B00D082D08375F0021202CAA3E0FF12134CED
:100B2B009001D4E004F080949001D3E004F0020A29
:100B3B00A0229001D0EBF0A3EAF0A3E9F0C204E409
:100B4B009001D7F0A3F030030FD20712128E900151
:100B5B00FBEEF0A3EFF080733007709001FBE0FE2B
:100B6B00A3E0FF121200C3EF9405EE9400405C90DB
:100B7B0001D6E0FFA3E4F0A3EFF09001D7E0FEA3D2
:100B8B00E0FF9001D3E0FBA3E0FAA3E0F8AC02ADE9
:100B9B00039001D0E0FBA3E0FAA3E0F912045CEFB1
:100BAB0060279001D7E0FEA3E0FF9001D3E0FBA309
:100BBB00E0FAA3E0F8AC02AD039001D0E0FBA3E0B8
:100BCB00FAA3E0F9120116D204C207A204227D0394
:100BDB007F091209C77D037F0A1209C77D037F04B2
:100BEB001209C77D037F0B1209C77D037F02120910
:100BFB00C77D037F031209C77D037F0E1209C77DD3
:100C0B00037F0C1209C77D03E4FF1209C7D2037FD0
:100C1B0009120FCFD2037F0A120FCFD2037F041218
:100C2B000FCFD2037F0B120FCFD2037F02120FCF46
:100C3B00D2037F03120FCFD2037F0E120FCFD2033B
:100C4B007F0C120FCFD203E4FF120FCF7E007F0574
:100C5B007D007B017A0179E91204807E007F057D9E
:100C6B00007B017A0179E4020480787FE4F6D8FDF9
:100C7B00758121020CBC0210FBE493A3F8E493A34F
:100C8B004003F68001F208DFF48029E493A3F854C3
:100C9B0007240CC8C333C4540F4420C8834004F446
:100CAB0056800146F6DFE4800B0102040810204059
:100CBB008090084DE47E019360BCA3FF543F30E568
:100CCB0009541FFEE493A360010ECF54C025E060CE
:100CDB00A840B8E493A3FAE493A3F8E493A3C8C59C
:100CEB0082C8CAC583CAF0A3C8C582C8CAC583CA8D
:100CFB00DFE9DEE780BEC200C201C20230081EC2BD
:100D0B00081200039001F5EBF0A3EAF0A3E9F0124F
:100D1B00138F9001F8EBF0A3EAF0A3E9F01212B4F1
:100D2B001212F192009001F8E0F9A3E0FAA3E0901F
:100D3B0001D3C9F0A3EAF0A3E9F0A37405F0A20074
:100D4B0092039001F5E0FBA3E0FAA3E0F9120B3D4F
:100D5B0092013001119001F8E0FBA3E0FAA3E0F956
:100D6B00120A8C120EB922C2037F09120FCF7F0217
:100D7B001210BC9001E9E040054401F0800354FEE1
:100D8B00F07F031210BC9001EAE040054408F080AC
:100D9B000354F7F07F0E1210BC9001EBE0400544BA
:100DAB0001F0800354FEF07F0C1210BC9001ECE0BC
:100DBB0040054404F0800354FBF0E4FF1210BC9098
:100DCB0001EDE040054401F0800354FEF0D2037FB7
:100DDB0009020FCFC2037F0A120FCF7F021210BC82
:100DEB009001E9E040054402F0800354FDF07F03DD
:100DFB001210BC9001EAE040054404F0800354FB60
:100E0B00F07F0E1210BC9001EBE040054402F08025
:100E1B000354FDF07F0C1210BC9001ECE040054434
:100E2B0002F0800354FDF0E4FF1210BC9001EDE0E2
:100E3B0040054404F0800354FBF0D2037F0A020FF9
:100E4B00CFC2037F04120FCF7F021210BC9001E9B7
:100E5B00E040054404F0800354FBF07F031210BC08
:100E6B009001EAE040054402F0800354FDF07F0E50
:100E7B001210BC9001EBE040054404F0800354FBDE
:100E8B00F07F0C1210BC9001ECE040054401F080A7
:100E9B000354FEF0E4FF1210BC9001EDE04005445A
:100EAB0008F0800354F7F0D2037F04020FCFC8740D
:100EBB00A6C8CC7400CCCD7401CD7B017A0079BF70
:100ECB007E007F0912045CEF6012C2067B017A0080
:100EDB0079A67D0912119B3006FDC206C87415C890
:100EEB00CC7401CCCD7401CD7B017A0079AF7E003F
:100EFB007F0E12045CEF6012C2067B017A0179153A
:100F0B007D0E12119B3006FDC20612000E0212312D
:100F1B009001D0EBF0A3EAF0A3E9F0C874D3C8CCEE
:100F2B007401CCCD7401CD7BFF7A13799D7E007F4C
:100F3B000B1201169001D3E064037030C874D3C850
:100F4B00CC7401CCCD7401CD9001D0E0FBA3E0FAC1
:100F5B00A3E0F97E007F0B120116C2067B017A011A
:100F6B0079D37D0B12119B3006FDC20622C2EAE437
:100F7B00F5E2CE7400CECF7400CF8EED8FEC75DC26
:100F8B0002CE7400CECF7422CF8EEF8FEEE5EA54F3
:100F9B00EF4440F5EA75D21ECE7400CECF7464CF09
:100FAB008EE58FE4E5EB54FE4408F5EB75D413E4C2
:100FBB00F5E375D18075E22943D10175D8FF75E151
:100FCB0007D2EA22EFC39408502030030EA807740F
:100FDB0001088002C333D8FC429022A80774010891
:100FEB008002C333D8FCF4529022EFD394084025EF
:100FFB00300311EF24F7FFF87401088002C333D8D4
:10100B00FC42B022EF24F7FFF87401088002C333CF
:10101B00D8FCF452B0229001157402F074FC2FFF2F
:10102B00D394075015A3E0FEC8EFC87401088002E3
:10103B00C333D8FC4E900116F022EF131313541F39
:10104B002416F582E43401F583C083C082E0FEEF01
:10105B005407FFC8EFC87401088002C333D8FC4E95
:10106B00D082D083F0229000A67401F0EFC394E0FD
:10107B004020EFD394E7501AA3E0FEEF2420FFC8E3
:10108B00EFC87401088002C333D8FC4E9000A7F060
:10109B00D322900111E0FED3940840012274A62EB6
:1010AB00F582E43400F583EFF0900111E004F0D306
:1010BB0022EFC3940850157E007401A80708800521
:1010CB00C333CE33CED8F9FFAD90801DEFD3940848
:1010DB00401CEF24F7FF7E007401A807088005C3AE
:1010EB0033CE33CED8F9FFADB0EF5D24FF22C32250
:1010FB001213607F147E0012131F120F7812133617
:10110B00E4FF12139A7F01121308120BD9D2AFD23C
:10111B008C7F0A7E0012131F121372120D01121212
:10112B00D312139680F5C0E0C0F0C083C082C0D04C
:10113B0075D018E5132401F513E43512F512E435D7
:10114B0011F511E43510F5107DE87C03E4FF121264
:10115B0060D0D0D082D083D0F0D0E032C2037F0BEE
:10116B00120FCF7F021210BC9001E9E0400544083A
:10117B00F0800354F7F07F031210BC9001EAE040BB
:10118B00054401F0800354FEF0D2037F0B020FCF16
:10119B009001DEEDF0FF7E00EBC0E0EAC0E0E9C0BD
:1011AB00E0C87422C8CC7400CCCD7401CDD0E0F96A
:1011BB00D0E0FAD0E0FB1201169001DEE0F5D3533C
:1011CB00D2FC22EF7009E58954F04DF5898023EFAD
:1011DB00B40110AF05EFC454F0FFE589540F4FF580
:1011EB0089800FEFB40208C2CDC2CCC2C880037F86
:1011FB00FF227F0022AB07AA067F01D2AEEF60145D
:10120B00AF13AE12AD11AC109001D912028DE4FFE9
:10121B00C2AE80E99001D9A3A3E0FEA3E0FFC3EF28
:10122B009BFFEE9AFE22C874AFC8CC7400CCCD7471
:10123B0001CD7B017A0179157E007F0E1201167E9E
:10124B00007F0E7D007B017A0179151204809001DD
:10125B00157402F022C3E49DFDE49CFCEF7007EDD6
:10126B00F58AECF58C22EFB40107EDF58BECF58DDF
:10127B0022EFB4020DAF05EDF5CC8FCAECFFF5CD27
:10128B008FCB227F01D2AEEF6014AF13AE12AD1134
:10129B00AC109001D912028DE4FFC2AE80E990012F
:1012AB00D9A3A3E0FEA3E0FF2278DF7C017D017BC5
:1012BB00017A0179E97E007F05120116120D721277
:1012CB000DDF120E4C02116730051AC2057B017A35
:1012DB000079DA120F1B7E007F0B7D007B017A00F9
:1012EB0079DA1204802278DF7C017D017B017A019F
:1012FB0079E97E007F0512045CEF24FF2275A1556E
:10130B0075A1AAEF600543B101800353B1FEE4F56B
:10131B00A1F5FF22AD07AC06ED4C600E7FE87E0316
:10132B00121381ED1D70F11C80EE2253C9EF7D016C
:10133B00E4FF1211CE7DE87C03E4FF121260D2A908
:10134B0022CDEFCDCFCF1210719203200306CFED3C
:10135B00CF1210212275A15575A1AAE5B954F844F5
:10136B0004F5B9E4F5A122E4F5D3C2069001A6F089
:10137B0090010E04F022EF4E600905A1EF1F70F6ED
:10138B001E80F3227B017A0179E422E4F5FF228FA0
:0D139B00FF22000000000000000000000024
:00000001FF
