:0A000000020C4D7B017A0179792290
:10000B00021068C8747DC8CC7400CCCD7401CD7B54
:10001B00017A0079647E007F091201167E007F0948
:10002B007D007B017A007964120480900064740176
:10003B00F09000BE7403F0220204ACE709F608DF6F
:10004B00FA8046E709F208DFFA803E88828C83E764
:10005B0009F0A3DFFA8032E309F608DFFA8078E3D0
:10006B0009F208DFFA807088828C83E309F0A3DF42
:10007B00FA806489828A83E0A3F608DFFA805889C4
:10008B00828A83E0A3F208DFFA804C80D280FA8068
:10009B00C680D4806980F28033801080A680EA808D
:1000AB009A80A880DA80E280CA803389828A83ECC6
:1000BB00FAE493A3C8C582C8CCC583CCF0A3C8C54A
:1000CB0082C8CCC583CCDFE9DEE7800D89828A83C9
:1000DB00E493A3F608DFF9ECFAA9F0EDFB22898291
:1000EB008A83ECFAE0A3C8C582C8CCC583CCF0A345
:1000FB00C8C582C8CCC583CCDFEADEE880DB898249
:10010B008A83E493A3F208DFF980CC88F0EF6001D7
:10011B000E4E60C388F0ED2402B4040050B9F58292
:10012B00EB2402B4040050AF2323458223900096A6
:10013B0073BB010689828A83E0225002E722BBFE51
:10014B0002E32289828A83E49322BB010CE5822994
:10015B00F582E5833AF583E0225006E92582F8E63D
:10016B0022BBFE06E92582F8E222E58229F582E52B
:10017B00833AF583E49322C5F0F8A3E028F0C5F0A9
:10018B00F8E582158270021583E038F022A3F8E0BF
:10019B00C5F025F0F0E582158270021583E0C838B2
:1001AB00F0E82275F008758200EF2FFFEE33FECDDD
:1001BB0033CDCC33CCC58233C5829BED9AEC99E51C
:1001CB008298400CF582EE9BFEED9AFDEC99FC0FAC
:1001DB00D5F0D6E4CEFBE4CDFAE4CCF9A88222B874
:1001EB0000C1B90059BA002DEC8BF084CFCECDFCF9
:1001FB00E5F0CBF97818EF2FFFEE33FEED33FDEC86
:10020B0033FCEB33FB10D703994004EB99FB0FD86E
:10021B00E5E4F9FA227818EF2FFFEE33FEED33FD0C
:10022B00EC33FCC933C910D7059BE99A4007EC9B0B
:10023B00FCE99AF90FD8E0E4C9FAE4CCFB2275F09B
:10024B0010EF2FFFEE33FEED33FDCC33CCC833C8AC
:10025B0010D7079BEC9AE899400AED9BFDEC9AFCB2
:10026B00E899F80FD5F0DAE4CDFBE4CCFAE4C8F961
:10027B0022EB9FF5F0EA9E42F0E99D42F0E89C45A7
:10028B00F022ECF0A3EDF0A3EEF0A3EFF022A882A6
:10029B008583F0D083D0821202B01202B01202B06A
:1002AB001202B0E473E493A3C583C5F0C583C8C53C
:1002BB0082C8F0A3C583C5F0C583C8C582C822A474
:1002CB002582F582E5F03583F58322E3F5F009E22B
:1002DB0008B5F06BDFF58067E3F5F009E608B5F0DC
:1002EB005EDFF5805A87F009E608B5F052DFF6803D
:1002FB004E87F009E208B5F046DFF6804288828C23
:10030B008387F009E0A3B5F036DFF6803288828C64
:10031B008387F009E493A3B5F025DFF5802188826C
:10032B008C83E3F5F009E0A3B5F014DFF5801088BA
:10033B00828C83E3F5F009E493A3B5F002DFF402BA
:10034B000405808780E9809080D4803E8015806E84
:10035B00807E809D80B7808D80A380518074803C8F
:10036B0002041189828A83ECFAE493F5F0A3C8C5E1
:10037B0082C8CCC583CCE493A3C8C582C8CCC58343
:10038B00CCB5F076DFE3DEE1807089828A83E4937B
:10039B00F5F0A3E208B5F062DFF4805E89828A8310
:1003AB00E0F5F0A3E608B5F051DFF5804D89828AC0
:1003BB0083E0F5F0A3E208B5F040DFF5803C8982DD
:1003CB008A83E493F5F0A3E608B5F02EDFF4802AD8
:1003DB008002805789828A83ECFAE493F5F0A3C8F4
:1003EB00C582C8CCC583CCE0A3C8C582C8CCC583A5
:1003FB00CCB5F006DFE4DEE280007FFFB5F0020F44
:10040B002240027F012289828A83ECFAE0F5F0A375
:10041B00C8C582C8CCC583CCE0A3C8C582C8CCC52F
:10042B0083CCB5F0D5DFE5DEE380CF89828A83EC20
:10043B00FAE0F5F0A3C8C582C8CCC583CCE493A37E
:10044B00C8C582C8CCC583CCB5F0AFDFE4DEE28093
:10045B00A988F0EF60010E4E60ABED2402B40400EE
:10046B005098F582EB2402B40400508E232345826E
:10047B002390034D73EF4E6012EF60010EEDBB0145
:10048B000B89828A83F0A3DFFCDEFA2289F0500706
:10049B00F709DFFCA9F022BBFEFCF309DFFCA9F096
:1004AB0022C0E0C0F0C083C082C0D075D00820D974
:1004BB000302081DE5D9543F70030207F924E070CD
:1004CB000302077F14601924F16029240E600302D4
:1004DB00081B75D500E5D454FC4402F5D402081B67
:1004EB0075D300E5D254FC4402F5D290008674011A
:1004FB00F002081B90017EE5DBF0E064086003026C
:10050B000752900006E09000BCF0900007E07009E5
:10051B009000BCE0D3947F40069000BC747FF090B9
:10052B00017EE4F0900001E09000BDF0900000E04F
:10053B005460601A9000BDE01424FD40030207587C
:10054B0024FB24FD40030207588000020752900051
:10055B00BDE0B40B00400302075090056CF828284F
:10056B00730207330206830207500206BD020750CF
:10057B0002065002058D02075002065B0206780246
:10058B000758900003E024FE601E24E06030242115
:10059B00704D9001357401F0A37400F0A37487F0D3
:1005AB0090017E7412F0803D9001357401F0A374BC
:1005BB0000F0A37499F090017E7422F080279000D4
:1005CB0004E0701B90013504F0A37400F0A374BF1A
:1005DB00F090017E7476F09001467401F0800690E5
:1005EB00017E74FFF090017EE0FF9000BCE0D39F92
:1005FB004002EFF09000BCE0FFC3942040077E2048
:10060B00CFEECF800090017EEFF07E00C87400C863
:10061B00CC7400CCCD7401CD900135E0FBA3E0FA96
:10062B00A3E0F91201169000BCE0FF90017EE0FE02
:10063B00C3EF9E9000BCF0EEFF900136E48FF012FA
:10064B000182020758900002E09000BCF0020758AC
:10065B0090007BE0900000F09000BCE0C394015050
:10066B000302075890017E7401F0020758900002B4
:10067B00E090007BF0020758900000E0541F6402EA
:10068B00702D900004E014601D2480600E14701C0B
:10069B00E5D454BC4402F5D4020758E5D254BC440B
:1006AB0002F5D202075853D27302075802075202BF
:1006BB000752900000E0541FFD701B900003E0FEFA
:1006CB00900002E0FBEB64014E70099000A0E0206B
:1006DB00E57B80738071ED6402704B900003E0FE4C
:1006EB00900002E0FDED4E703B900005E0FE9000A7
:1006FB0004E0FDEDFFEE702AEF24FE601124816013
:10070B001714701EE5D454BF4403F5D4803FE5D4D1
:10071B00547F440CF5D48035E5D254BF4403F5D255
:10072B00802B80238021801F900000E4F0A3F090A9
:10073B0000BCE0FFC3940290017E40057402F08080
:10074B000CEFF08008800090017E74FFF090017E2A
:10075B00E0FFB4FF0C9000BD74FFF075DCCF020816
:10076B001BEFD3942050048FDD800375DD0075DC07
:10077B00C002081B9000BDE024FB605C1470679006
:10078B0000BCE0FFC3942040077E20CFEECF80005B
:10079B0090017EEFF07E00C87400C8CC7400CCCD05
:1007AB007401CD900135E0FBA3E0FAA3E0F912014F
:1007BB00169000BCE0FF90017EE0FEC3EF9E900020
:1007CB00BCF0EEFF900136E48FF012018290017EB7
:1007DB00E0F5DD63DC408038E5E35480FF9000BC3E
:1007EB00E04FF5E3800375DD0075DC02802290019C
:1007FB007EE5DBF09000BDE0B4090F90017EE0B424
:10080B000108900000E09000BBF075DD0075DC0086
:10081B00C2D930D81275DC0275D21075D41275E3BB
:10082B0000C2DAC2D9C2D830DA04C2DA800375D872
:10083B00FFD0D0D082D083D0F0D0E032C105602879
:10084B0001470053005400550056005F00600061E3
:10085B000057005C005D005E00000059005A005B11
:10086B0000000062000000630058607600BF0501C5
:10087B000906A1018501050719E029E715002501E6
:10088B007501950881029501750881019503750124
:10089B00050819012903910295057501910195062A
:1008AB00750826FF000507190029918100C0050175
:1008BB000906A10185020507190429671500250101
:1008CB00750195638102750195058103C00600FFD3
:1008DB000901A10185030902150026FF00950A7580
:1008EB00088102C052008712010002000000203D67
:1008FB00410721000000000001602200990902223B
:10090B0000010100A03209040000010300000009EE
:10091B002111010001227600070581032000014906
:10092B00006400000000000000000049007D000092
:10093B00000000000000004E013800000000000025
:10094B0000000000000000004E006D0000000000E1
:10095B000000000000000000004100BE034100BD8C
:10096B00004100BC004101460041007C0041008673
:10097B000041007B004100BB0042018C00004101A3
:10098B008E01420190000041019201C186041000CA
:10099B0000000000EFC394085058ED14601E146063
:1009AB002C14603C24036003020A63A8077401083B
:1009BB008002C333D8FCF45292529322A8077401DD
:1009CB00088002C333D8FCFEF452928021A807742E
:1009DB0001088002C333D8FCFE4292EEF4529322FC
:1009EB00A8077401088002C333D8FCFE4292EE4282
:1009FB009322EFD394084060ED14601E14602F1403
:100A0B00604224037052EF24F7FEF8740108800251
:100A1B00C333D8FCF45296529722EF24F7FEF874A6
:100A2B0001088002C333D8FCFEF452968027EF24D2
:100A3B00F7FEF87401088002C333D8FCFE4296EE31
:100A4B00F4529722EF24F7FEF87401088002C333A7
:100A5B00D8FCFE4296EE42972290017FEBF0A3EA80
:100A6B00F0A3E9F0E4A3F0A3F0900182F0900182EF
:100A7B00E0FFC394054003020B1490017FE0FBA33E
:100A8B00E0FAA3E0F98F827583001201556071E4DF
:100A9B00900183F0900183E0FFC3940450629001B6
:100AAB007FE0FBA3E0FAA3E0F9A3E0F582758300F6
:100ABB00120155FD7C007E007401A807088005C358
:100ACB0033CE33CED8F9FFEE5CFEEF5D4E6029904E
:100ADB000182E075F008A42447F582E43401F58324
:100AEB00C083C082900183E0D082D08375F0021264
:100AFB0002CAA3E0FF1212CA900183E004F08094B3
:100B0B00900182E004F0020A782290017FEBF0A3BF
:100B1B00EAF0A3E9F0C204E4900186F0A3F03003FD
:100B2B000FD20512122A900199EEF0A3EFF0807309
:100B3B00300570900199E0FEA3E0FF12119CC3EF0A
:100B4B009405EE9400405C900185E0FFA3E4F0A3D4
:100B5B00EFF0900186E0FEA3E0FF900182E0FBA3A3
:100B6B00E0FAA3E0F8AC02AD0390017FE0FBA3E059
:100B7B00FAA3E0F912045CEF6027900186E0FEA374
:100B8B00E0FF900182E0FBA3E0FAA3E0F8AC02AD3A
:100B9B000390017FE0FBA3E0FAA3E0F9120116D268
:100BAB0004C205A204227D037F0912099F7D037FE6
:100BBB000A12099F7D037F0412099F7D037F0B128D
:100BCB00099F7D037F0212099F7D037F0312099FFB
:100BDB007D037F0E12099F7D037F0C12099F7D03FE
:100BEB00E4FF12099FD2037F09120F02D2037F0A7F
:100BFB00120F02D2037F04120F02D2037F0B120FCC
:100C0B0002D2037F02120F02D2037F03120F02D212
:100C1B00037F0E120F02D2037F0C120F02D203E4DA
:100C2B00FF120F027E007F057D007B017A0179792F
:100C3B001204807E007F057D007B017A01797402AE
:100C4B000480787FE4F6D8FD758120020C940211A4
:100C5B0005E493A3F8E493A34003F68001F208DFC5
:100C6B00F48029E493A3F85407240CC8C333C45469
:100C7B000F4420C8834004F456800146F6DFE4801D
:100C8B000B0102040810204080900847E47E01937A
:100C9B0060BCA3FF543F30E509541FFEE493A360EF
:100CAB00010ECF54C025E060A840B8E493A3FAE44A
:100CBB0093A3F8E493A3C8C582C8CAC583CAF0A39B
:100CCB00C8C582C8CAC583CADFE9DEE780BEC8745F
:100CDB0064C8CC7400CCCD7401CD7B017A00797DD6
:100CEB007E007F0912045CEF6018E4900086F07BB5
:100CFB00017A0079647D091210D2900086E060FAC7
:100D0B00E4F0C87438C8CC7401CCCD7401CD7B0130
:100D1B007A00796D7E007F0E12045CEF6018E49010
:100D2B000086F07B017A0179387D0E1210D290008B
:100D3B0086E060FAE4F012000E1211CD021138C2F7
:100D4B0000C201C20230061EC206120003900193BC
:100D5B00EBF0A3EAF0A3E9F012130F900196EBF07E
:100D6B00A3EAF0A3E9F012125012126F9200900155
:100D7B0096E0F9A3E0FAA3E0900182C9F0A3EAF0B0
:100D8B00A3E9F0A37405F0A2009203900193E0FB9A
:100D9B00A3E0FAA3E0F9120B1592013001119001B7
:100DAB0096E0FBA3E0FAA3E0F9120A64120CD92235
:100DBB00C2037F09120F027F02120FEF900179E03D
:100DCB0040054401F0800354FEF07F03120FEF90B7
:100DDB00017AE040054408F0800354F7F07F0E12CF
:100DEB000FEF90017BE040054401F0800354FEF0CF
:100DFB007F0C120FEF90017CE040054404F0800360
:100E0B0054FBF0E4FF120FEF90017DE0400544012D
:100E1B00F0800354FEF0D2037F09020F02C2037F5E
:100E2B000A120F027F02120FEF900179E040054486
:100E3B0002F0800354FDF07F03120FEF90017AE074
:100E4B0040054404F0800354FBF07F0E120FEF902B
:100E5B00017BE040054402F0800354FDF07F0C124F
:100E6B000FEF90017CE040054402F0800354FDF04D
:100E7B00E4FF120FEF90017DE040054404F0800386
:100E8B0054FBF0D2037F0A020F02C2037F04120F3E
:100E9B00027F02120FEF900179E040054404F080CD
:100EAB000354FBF07F03120FEF90017AE0400544EF
:100EBB0002F0800354FDF07F0E120FEF90017BE0E8
:100ECB0040054404F0800354FBF07F0C120FEF90AD
:100EDB00017CE040054401F0800354FEF0E4FF1276
:100EEB000FEF90017DE040054408F0800354F7F0CC
:100EFB00D2037F04020F02EFC39408502030030E7D
:100F0B00A8077401088002C333D8FC429022A807BB
:100F1B007401088002C333D8FCF4529022EFD394AF
:100F2B00084025300311EF24F7FFF8740108800205
:100F3B00C333D8FC42B022EF24F7FFF874010880CA
:100F4B0002C333D8FCF452B0229001387402F0740F
:100F5B00FC2FFFD394075015A3E0FEC8EFC8740114
:100F6B00088002C333D8FC4E900139F022EF1313E3
:100F7B0013541F2439F582E43401F583C083C082F6
:100F8B00E0FEEF5407FFC8EFC87401088002C333BB
:100F9B00D8FC4ED082D083F0229000647401F0EF25
:100FAB00C394E04020EFD394E7501AA3E0FEEF2464
:100FBB0020FFC8EFC87401088002C333D8FC4E90E1
:100FCB000065F0D3229000BEE0FED39408400122CE
:100FDB0074642EF582E43400F583EFF09000BEE0EC
:100FEB0004F0D322EFC3940850157E007401A807B8
:100FFB00088005C333CE33CED8F9FFAD90801DEFFB
:10100B00D39408401CEF24F7FF7E007401A8070857
:10101B008005C333CE33CED8F9FFADB0EF5D24FFDF
:10102B0022C322C2EAE4F5E2CE7400CECF7400CF25
:10103B008EED8FECCE7400CECF7422CF8EEF8FEE71
:10104B0075EA6775DC0275D242F5E375D18075E2FE
:10105B002943D10175D8FF75E107D2EA22C0E0C060
:10106B00F0C083C082C0D075D018E5132401F513EE
:10107B00E43512F512E43511F511E43510F5107D58
:10108B00E87C03E4FF1211FCD0D0D082D083D0F0E7
:10109B00D0E032C2037F0B120F027F02120FEF90D0
:1010AB000179E040054408F0800354F7F07F031208
:1010BB000FEF90017AE040054401F0800354FEF0FD
:1010CB00D2037F0B020F02900189EDF0FF7E00EB44
:1010DB00C0E0EAC0E0E9C0E0C87422C8CC7400CC20
:1010EB00CD7401CDD0E0F9D0E0FAD0E0FB120116BF
:1010FB00900189E0F5D353D2FC221212DE7F147ECD
:10110B000012129D12102E1212B4E4FF12131A7F4A
:10111B0001121286120BB1D2AFD28C7F0A7E001253
:10112B00129D1212F0120D4A12131680F8C8747F1A
:10113B00C8CC7401CCCD7401CD7BFF7A13791D7EA5
:10114B00007F0A120116E4900086F07B017A017988
:10115B007F7D0A1210D2900086E060FAE4F022EF55
:10116B007009E58954F04DF5898023EFB40110AF78
:10117B0005EFC454F0FFE589540F4FF589800FEF4D
:10118B00B40208C2CDC2CCC2C880037FFF227F004D
:10119B0022AB07AA067F01D2AEEF6014AF13AE12DB
:1011AB00AD11AC1090018812028DE4FFC2AE80E944
:1011BB00900188A3A3E0FEA3E0FFC3EF9BFFEE9A91
:1011CB00FE22C8746DC8CC7400CCCD7401CD7B01EC
:1011DB007A0179387E007F0E1201167E007F0E7D1C
:1011EB00007B017A0179381204809001387402F087
:1011FB0022C3E49DFDE49CFCEF7007EDF58AECF552
:10120B008C22EFB40107EDF58BECF58D22EFB402D8
:10121B000DAF05EDF5CC8FCAECFFF5CD8FCB227F53
:10122B0001D2AEEF6014AF13AE12AD11AC10900142
:10123B008812028DE4FFC2AE80E9900188A3A3E07F
:10124B00FEA3E0FF22786F7C017D017B017A01799F
:10125B00797E007F05120116120DBB120E28120E9D
:10126B009502109E786F7C017D017B017A01797963
:10127B007E007F0512045CEF24FF2275A15575A13A
:10128B00AAEF600543B101800353B1FEE4F5A1F56C
:10129B00FF22AD07AC06ED4C600E7FE87E03121308
:1012AB0001ED1D70F11C80EE2253C9EF7D01E4FFAF
:1012BB0012116A7DE87C03E4FF1211FCD2A922CD46
:1012CB00EFCDCFCF120FA49203200306CFEDCF1299
:1012DB000F542275A15575A1AAE5B954F84404F52C
:1012EB00B9E4F5A122E4F5D3900086F0900146F025
:1012FB009000BB04F022EF4E600905A1EF1F70F6C2
:10130B001E80F3227B017A01797422E4F5FF228F90
:0C131B00FF220301020304050607080975
:00000001FF
