:100000000213E78F993099FDC2992202177EEF7093
:1000100009E58954F04DF5898023EFB40110AF054F
:10002000EFC454F0FFE589540F4FF589800FEFB40A
:100030000208C2CDC2CCC2C880037FFF227F00224B
:100040008FFF220204F8E709F608DFFA8046E70985
:10005000F208DFFA803E88828C83E709F0A3DFFA9A
:100060008032E309F608DFFA8078E309F208DFFA64
:10007000807088828C83E309F0A3DFFA8064898230
:100080008A83E0A3F608DFFA805889828A83E0A396
:10009000F208DFFA804C80D280FA80C680D4806972
:1000A00080F28033801080A680EA809A80A880DA6F
:1000B00080E280CA803389828A83ECFAE493A3C801
:1000C000C582C8CCC583CCF0A3C8C582C8CCC583C3
:1000D000CCDFE9DEE7800D89828A83E493A3F6080A
:1000E000DFF9ECFAA9F0EDFB2289828A83ECFAE0D1
:1000F000A3C8C582C8CCC583CCF0A3C8C582C8CC70
:10010000C583CCDFEADEE880DB89828A83E493A3BF
:10011000F208DFF980CC88F0EF60010E4E60C388F2
:10012000F0ED2402B4040050B9F582EB2402B404CB
:100130000050AF232345822390009673BB010689AC
:10014000828A83E0225002E722BBFE02E3228982F8
:100150008A83E49322BB010CE58229F582E5833A88
:10016000F583E0225006E92582F8E622BBFE06E987
:100170002582F8E222E58229F582E5833AF583E4D7
:100180009322C5F0F8A3E028F0C5F0F8E5821582C7
:1001900070021583E038F022A3F8E0C5F025F0F0F6
:1001A000E582158270021583E0C838F0E82275F008
:1001B00008758200EF2FFFEE33FECD33CDCC33CC6C
:1001C000C58233C5829BED9AEC99E58298400CF587
:1001D00082EE9BFEED9AFDEC99FC0FD5F0D6E4CEB5
:1001E000FBE4CDFAE4CCF9A88222B800C1B90059E9
:1001F000BA002DEC8BF084CFCECDFCE5F0CBF978B6
:1002000018EF2FFFEE33FEED33FDEC33FCEB33FB49
:1002100010D703994004EB99FB0FD8E5E4F9FA22D3
:100220007818EF2FFFEE33FEED33FDEC33FCC933CE
:10023000C910D7059BE99A4007EC9BFCE99AF90F96
:10024000D8E0E4C9FAE4CCFB2275F010EF2FFFEE02
:1002500033FEED33FDCC33CCC833C810D7079BEC4D
:100260009AE899400AED9BFDEC9AFCE899F80FD5C5
:10027000F0DAE4CDFBE4CCFAE4C8F922EB9FF5F028
:10028000EA9E42F0E99D42F0E89C45F022ECF0A3A2
:10029000EDF0A3EEF0A3EFF022A8828583F0D083E7
:1002A000D0821202B01202B01202B01202B0E47395
:1002B000E493A3C583C5F0C583C8C582C8F0A3C5B0
:1002C00083C5F0C583C8C582C822E3F5F009E208FA
:1002D000B5F06BDFF58067E3F5F009E608B5F05E91
:1002E000DFF5805A87F009E608B5F052DFF6804E58
:1002F00087F009E208B5F046DFF6804288828C83F9
:1003000087F009E0A3B5F036DFF6803288828C836F
:1003100087F009E493A3B5F025DFF5802188828C6E
:1003200083E3F5F009E0A3B5F014DFF580108882CF
:100330008C83E3F5F009E493A3B5F002DFF4020344
:10034000F9808780E9809080D4803E8015806E801F
:100350007E809D80B7808D80A380518074803C0218
:10036000040589828A83ECFAE493F5F0A3C8C58278
:10037000C8CCC583CCE493A3C8C582C8CCC583CC04
:10038000B5F076DFE3DEE1807089828A83E493F55D
:10039000F0A3E208B5F062DFF4805E89828A83E030
:1003A000F5F0A3E608B5F051DFF5804D89828A8328
:1003B000E0F5F0A3E208B5F040DFF5803C89828AE1
:1003C00083E493F5F0A3E608B5F02EDFF4802A80ED
:1003D00002805789828A83ECFAE493F5F0A3C8C5BA
:1003E00082C8CCC583CCE0A3C8C582C8CCC583CCA9
:1003F000B5F006DFE4DEE280007FFFB5F0020F22F9
:1004000040027F012289828A83ECFAE0F5F0A3C8DA
:10041000C582C8CCC583CCE0A3C8C582C8CCC5837F
:10042000CCB5F0D5DFE5DEE380CF89828A83ECFAB4
:10043000E0F5F0A3C8C582C8CCC583CCE493A3C8BB
:10044000C582C8CCC583CCB5F0AFDFE4DEE280A9BD
:1004500088F0EF60010E4E60ABED2402B404005052
:1004600098F582EB2402B40400508E2323458223A6
:1004700090034173EF4E6012EF60010EEDBB010B74
:1004800089828A83F0A3DFFCDEFA2289F05007F725
:1004900009DFFCA9F022BBFEFCF309DFFCA9F02276
:1004A000BB010689828A83F0225002F722BBFE013B
:1004B000F322F8E0FBA3A3E0F925F0F0E582158232
:1004C00070021583E0FA38F022EBF0A3EAF0A3E91A
:1004D000F022D083D082F8E4937012740193700DEF
:1004E000A3A393F8740193F5828883E47374029351
:1004F0006860EFA3A3A380DFC0E0C0F0C083C08228
:10050000C0D075D00820D903020869E5D9543F70DE
:100510000302084524E070030207CB14601924F19C
:100520006029240E600302086775D500E5D454FCE9
:100530004402F5D402086775D300E5D254FC4402A6
:10054000F5D29000567401F00208679000E6E5DBF2
:10055000F0E06408600302079E900006E090008CC3
:10056000F0900007E0700990008CE0D3947F400683
:1005700090008C747FF09000E6E4F0900001E09031
:100580000099F0900000E05460601A900099E01427
:1005900024FD40030207A424FB24FD40030207A41A
:1005A000800002079E900099E0B40B004003020710
:1005B0009C9005B8F828287302077F0206CF02072F
:1005C0009C02070902079C02069C0205D902079CAF
:1005D0000206A70206C40207A4900003E024FE60FE
:1005E0001E24E060302421704D9000E27401F0A3DD
:1005F0007400F0A37457F09000E67412F0803D9000
:1006000000E27401F0A37400F0A37469F09000E6B6
:100610007422F08027900004E0701B9000E204F048
:10062000A37400F0A374A4F09000E6743EF0900070
:10063000E57401F080069000E674FFF09000E6E0BB
:10064000FF90008CE0D39F4002EFF090008CE0FF21
:10065000C3940840077E08CFEECF80009000E6EFFD
:10066000F07E00C87400C8CC7400CCCD7401CD906D
:1006700000E2E0FBA3E0FAA3E0F912011690008C7F
:10068000E0FF9000E6E0FEC3EF9E90008CF0EEFFEE
:100690009000E3E48FF01201820207A4900002E0D0
:1006A00090008CF00207A4900054E0900000F090BD
:1006B000008CE0C3940150030207A49000E674018B
:1006C000F00207A4900002E0900054F00207A4900A
:1006D0000000E0541F6402702D900004E014601DBF
:1006E0002480600E14701CE5D454BC4402F5D4027E
:1006F00007A4E5D254BC4402F5D20207A453D27336
:100700000207A402079E02079E900000E0541FFD0E
:10071000701B900003E0FE900002E0FBEB64014ED2
:100720007009900070E020E57B80738071ED6402B9
:10073000704B900003E0FE900002E0FDED4E703B38
:10074000900005E0FE900004E0FDEDFFEE702AEF62
:1007500024FE60112481601714701EE5D454BF4438
:1007600003F5D4803FE5D4547F440CF5D48035E5BF
:10077000D254BF4403F5D2802B80238021801F9068
:100780000000E4F0A3F090008CE0FFC3940290001E
:10079000E640057402F0800CEFF0800880009000C5
:1007A000E674FFF09000E6E0FFB4FF0C900099744F
:1007B000FFF075DCCF020867EFD3940850048FDD9B
:1007C000800375DD0075DCC0020867900099E024A5
:1007D000FB605C14706790008CE0FFC394084007D6
:1007E0007E08CFEECF80009000E6EFF07E00C87468
:1007F00000C8CC7400CCCD7401CD9000E2E0FBA326
:10080000E0FAA3E0F912011690008CE0FF9000E6F8
:10081000E0FEC3EF9E90008CF0EEFF9000E3E48FCB
:10082000F01201829000E6E0F5DD63DC408038E5FF
:10083000E35480FF90008CE04FF5E3800375DD000A
:1008400075DC0280229000E6E5DBF0900099E0B4D0
:10085000090F9000E6E0B40108900000E090008BE2
:10086000F075DD0075DC00C2D930D81275DC027578
:10087000D21075D41275E300C2DAC2D9C2D830DA08
:1008800004C2DA800375D8FFD0D0D082D083D0F0F4
:10089000D0E032E51024EAF582E43400F583E00587
:1008A00010229000E73007039000EAE475F001128F
:1008B00004B202013C2000E97F2ED2008018EF54E0
:1008C0000F2490D43440D4FF30040BEF24BFB41A6B
:1008D0000050032461FFE511600215110514E514B1
:1008E0007002051330070E9000E7E475F001120462
:1008F000B2EF0204A002189F7403D2078003E4C27F
:1009000007F5109000E71204C9E4F511F513F5148A
:10091000E51160077F201208D680F57512FFC2012D
:10092000C200C202C203C205C206C2081208A2FF68
:10093000700D3007057F001208E7AF14AE1322B424
:10094000255FC2D5C2041208A2FF24D0B40A005009
:100950001A75F00A781130D50508B6FF0106C6A44D
:1009600026F620D5047002D20380D924CFB41A0011
:10097000EF5004C2E5D204020AE8D20180C6D200D8
:1009800080C0D20280BCD2D580BAD20580B47F208C
:100990001208D62002077401B5110040F112089325
:1009A000FF1208D6020910D208D2068095120893C9
:1009B000FB120893FA120893F94A4B700679B97A38
:1009C0000B7BFF20022EE511602A7E008E8275834C
:1009D0000012015560060EEE651270F0C2D5EBC034
:1009E000E0EAC0E0E9C0E0EE120B2FD0E0F9D0E081
:1009F000FAD0E0FB12013CFF60AAEBC0E0EAC0E0E5
:100A0000E9C0E01208D6D0E02401F9D0E03400FAC1
:100A1000D0E0FBE5120460DCD512D980877BFF7A39
:100A20000B792BD202809C791080027908C206C211
:100A3000088008D2D5790A8004790AC2D5E5120463
:100A40007002F512E4FAFDFEFF120893FC7B082009
:100A50000113120893FD7B1030000A120893FE1256
:100A60000893FF7B20EC3382D592D55013C3E4303A
:100A700000069FFFE49EFEE42001039DFDE49CFC34
:100A8000E4CBF8C201EC700CCFCECDCCE824F8F862
:100A900070F38017C3EF33FFEE33FEED33FDEC331D
:100AA000FCEB33FB994002FB0FD8E9EB300105F872
:100AB000D0E0C448B201C0E00AEC4D4E4F78207B34
:100AC0000070C2EAB5120040BCC0E0120B31D0F099
:100AD000D0E0200104C4C0E0C4B201C0F01208BFDD
:100AE000D0F0D5F0EB0209101204D209AD530A2759
:100AF00058097E4C097A420A2B4F0A33440A33497B
:100B00000993430A39550A1D460A1D450A1D470B1C
:100B1000D95009822D09862E09A92B098A2309A7F4
:100B2000200BC22A094248000009A13F3F3F00793B
:100B30000AA2D5200314300509B910020404B9082B
:100B40000104A2D52006025001042002689202B5D9
:100B500011005034C0E07F203003197F30A20272B0
:100B6000067205500F120B88C202C206C205C208E7
:100B70007F30800F300503E9C0E01208D63005034E
:100B8000D0E0F9D0E0B511CC3005177F30B9100CAA
:100B90001208D67F583004077F788003B908031203
:100BA00008D63002057F2D0208D67F202008F87F66
:100BB0002B2006F322920280CF286E756C6C2900E0
:100BC000D2011208933001F8C201781130D5010822
:100BD000F60209422D504349581208932403B405E4
:100BE000004001E4900BD4931208C7743A1208C76E
:100BF000D203751104020A279000E7EFF0E4900099
:100C00004CF0EFC3946140369000E7E0D3947A5003
:100C10002D90008BE030E11DE4900056F090004EE6
:100C20007439F012182A900056E060FA12181B90DE
:100C30000056E060FA9000E7E024A3020EEC90007A
:100C4000E7E0FFC394414033EFD3945A502D900016
:100C50008BE020E11DE4900056F090004E7439F0D6
:100C600012182A900056E060FA12181B900056E005
:100C700060FA9000E7E024C3020EEC9000E7E0FF8A
:100C8000C39431400CEFD394395006E024ED020EAA
:100C9000EC9000E7E0FFB4300790004E7427F0229C
:100CA000EFD3942F4003020D67EFB4200790004E5E
:100CB000742CF022EFB4210890004E741E020E5DD9
:100CC000EFB4220890004E7434020E5DEFB4230896
:100CD00090004E7420020E5DEFB4240890004E7414
:100CE00021020E5DEFB4250890004E7422020E5DC5
:100CF000EFB4260890004E7424020E5DEFB427076F
:100D000090004E7434F022EFB4280890004E742600
:100D1000020E5DEFB4290890004E7427020E5DEFBD
:100D2000B42A0890004E7425020E5DEFB42B089093
:100D3000004E742E020E5DEFB42C0790004E7436F8
:100D4000F022EFB42D0790004E742DF022EFB42E58
:100D50000790004E7437F022EF642F6003020EF20A
:100D600090004E7438F022EFD3943F5058EFB43ACD
:100D70000790004E743380449000E7E0FFB43B07D7
:100D800090004E7433F022EFB43C0790004E74365E
:100D9000802A9000E7E0FFB43D0790004E742EF0EB
:100DA00022EFB43E0790004E743780109000E7E0C9
:100DB000643F6003020EF290004E7438F090004CD5
:100DC000E04402F0229000E7E0FFB4400890004EBB
:100DD000741F020E5DEFC3945B404CEFD3946050E0
:100DE00046EFB45B0790004E742FF022EFB45C071F
:100DF00090004E7431F022EFB45D0790004E7430D5
:100E0000F022EFB45E0790004E74238050EFB45F81
:100E10000790004E742D8045EF64606003020EF26F
:100E200090004E7435F022EFC3947B4047EFD3948B
:100E30007F5041EFB47B0790004E742F801FEFB4BA
:100E40007C0790004E74318014EFB47D0790004E03
:100E500074308009EFB47E0D90004E7435F0900030
:100E60004C7402F022EF647F6003020EF290004E99
:100E7000744CF022EFC394804020EFD39487501A33
:100E8000EF540F9000E7F0E0FFC8EFC8740108804E
:100E900002C333D8FC90004CF0229000E7E0FFC37F
:100EA00094D7400BEFD394DA5005E02478803D903E
:100EB00000E7E0FFC394B0400BEFD394B35005E0DC
:100EC000247880289000E7E0FFC394D1400BEFD353
:100ED00094D55005E0247880139000E7E0FFC39498
:100EE000C1400FEFD394CD5009E02478F0E090009A
:100EF0004EF022E49000E7F0A3F0C200C201300AF5
:100F000029C20A1218C690014DEEF0A3EFF0121993
:100F1000C190014FEBF0A3EAF0A3E9F01219C890D9
:100F20000152EBF0A3EAF0A3E9F090014DE0FEA33B
:100F3000E0FF1217EAD3EF94F4EE9401407912180F
:100F4000C690014DEEF0A3EFF0E49000E7F0A3F0BF
:100F50009000E7E0FEA3E0FF900152E0FBA3E0FA7F
:100F6000A3E0F98F828E83120155FD12164C900179
:100F70004FE0FBA3E0FAA3E0F99000E7E0FEA3E076
:100F8000F5828E831201552430FDE4FF1219B87BDF
:100F9000FF7A1979D7E4FF1217B49000E8E004F063
:100FA00070069000E7E004F0C39000E8E09405903C
:100FB00000E7E09400409912190D12195A9200307E
:100FC000000B7BFF7A1979DAE4FF1217B490015213
:100FD000E0F9A3E0FAA3E09000ECC9F0A3EAF0A3E3
:100FE000E9F0A37405F0A200920290014FE0FBA388
:100FF000E0FAA3E0F912121A920130014BE49000DA
:10100000E7F0A3F09000E7E0FEA3E0FFC39405EE55
:1010100094005034900152E0FBA3E0FAA3E0F98F72
:10102000828E8312015560109000E7A3E0F5828E56
:1010300083120155FD12164C9000E8E004F0700692
:101040009000E7E004F080BC22C1096028010F0095
:1010500053005400550056005F00600061005700C7
:101060005C005D005E00000059005A005B0000005B
:10107000620000006300584201460000410148013F
:1010800042014A000041014C0142014D0000C18A69
:10109000042200000000603E00A405010906A10131
:1010A000050719E029E7150025017501950881025A
:1010B000950175088101950375010508190129033A
:1010C00091029505750191019506750826FF0005A9
:1010D00007190029918100C0520057120100020037
:1010E0000000083D410721000000000001602200CF
:1010F0006909022200010100A03209040000010375
:10110000000000092111010001223E0007058103B2
:1011100008000148004C00000000000000004800EA
:101120008F00000000000000004200970000420015
:101130008D000042009A00004100990041008C009F
:101140004100E500410055004100560041005400B7
:1011500041008B0000EFC394085058ED14601E143A
:10116000602C14603C24036003021219A807740168
:10117000088002C333D8FCF45292529322A8077419
:1011800001088002C333D8FCFEF452928021A807E4
:101190007401088002C333D8FCFE4292EEF45293ED
:1011A00022A8077401088002C333D8FCFE4292EEE5
:1011B000429322EFD394084060ED14601E14602F18
:1011C00014604224037052EF24F7FEF87401088083
:1011D00002C333D8FCF45296529722EF24F7FEF85C
:1011E0007401088002C333D8FCFEF452968027EFC6
:1011F00024F7FEF87401088002C333D8FCFE42963F
:10120000EEF4529722EF24F7FEF87401088002C32F
:1012100033D8FCFE4296EE4297229000E9EBF0A311
:10122000EAF0A3E9F0C203E49000F0F0A3F030028A
:101230000FD2091218C6900155EEF0A3EFF080739B
:10124000300970900155E0FEA3E0FF1217EAC3EFEA
:101250009405EE9400405C9000EFE0FFA3E4F0A35F
:10126000EFF09000F0E0FEA3E0FF9000ECE0FBA3C5
:10127000E0FAA3E0F8AC02AD039000E9E0FBA3E0E4
:10128000FAA3E0F9120450EF60279000F0E0FEA30B
:10129000E0FF9000ECE0FBA3E0FAA3E0F8AC02ADC5
:1012A000039000E9E0FBA3E0FAA3E0F9120116D2F3
:1012B00003C209A203227D037F091211557D037F1A
:1012C0000A1211557D037F041211557D037F0B1205
:1012D00011557D037F021211557D037F03121155B5
:1012E0007D037F0E1211557D037F0C1211557D0376
:1012F000E4FF121155D2027F091215FAD2027F0AB9
:101300001215FAD2027F041215FAD2027F0B1215BF
:10131000FAD2027F021215FAD2027F031215FAD214
:10132000027F0E1215FAD2027F0C1215FAD202E4D5
:10133000FF1215FA7E007F057D007B017A0179415D
:101340001204747E007F057D007B017A01793C02E6
:101350000474C29FD29EC29DC2CDC2CC43878090EE
:1013600000E712029900000082E47B0AFAF9F89083
:1013700000E7E0FCA3E0FDA3E0FEA3E0FF1201EA2A
:101380009000EBEBF09000E7E0FCA3E0FDA3E0FEB3
:10139000A3E0FFE47B0AFAF9F81201EA9000E712F1
:1013A000028D9000EBE0C39405401F9000E7E0FC45
:1013B000A3E0FDA3E0FEA3E02401FFE43EFEE43D44
:1013C000FDE43CFC9000E712028DE589540F4420B7
:1013D000F58943C9A09000E7A3A3A3E0F404F58D29
:1013E000D28ED299D29C22787FE4F6D8FD758125E1
:1013F00002142E0216CCE493A3F8E493A34003F660
:101400008001F208DFF48029E493A3F85407240C48
:10141000C8C333C4540F4420C8834004F456800129
:1014200046F6DFE4800B0102040810204080901093
:1014300049E47E019360BCA3FF543F30E509541F8B
:10144000FEE493A360010ECF54C025E060A840B82D
:10145000E493A3FAE493A3F8E493A3C8C582C8CAAB
:10146000C583CAF0A3C8C582C8CAC583CADFE9DE7E
:10147000E780BE90008DE0FEA3E0248FF58274002B
:101480003EF583E0FFB4E12890004C7402F0900038
:101490008EE004F0700690008DE004F0C390008EA2
:1014A000E0940890008DE094004040E4F0A3F02226
:1014B000120BF890008EE004F0700690008DE004AE
:1014C000F0C390008EE0940890008DE094004004FA
:1014D000E4F0A3F0E4900056F012182A900056E0D1
:1014E00060FA12181B900056E060FA22C2027F09CF
:1014F0001215FA7F0212168D900141E04005440159
:10150000F0800354FEF07F0E12168D900143E040F0
:10151000054401F0800354FEF07F0C12168D9001FB
:1015200044E040054404F0800354FBF0E4FF12164D
:101530008D900145E040054401F0800354FEF0D257
:10154000027F090215FAC2027F0A1215FA7F0212FF
:10155000168D900141E040054402F0800354FDF0F7
:101560007F0E12168D900143E040054402F0800387
:1015700054FDF07F0C12168D900144E040054402AA
:10158000F0800354FDF0E4FF12168D900145E04019
:10159000054404F0800354FBF0D2027F0A0215FADE
:1015A000C2027F041215FA7F0212168D900141E0EB
:1015B00040054404F0800354FBF07F0E12168D901A
:1015C0000143E040054404F0800354FBF07F0C121B
:1015D000168D900144E040054401F0800354FEF074
:1015E000E4FF12168D900145E040054408F08003A9
:1015F00054F7F0D2027F040215FAEFC3940850208A
:1016000030020EA8077401088002C333D8FC429050
:1016100022A8077401088002C333D8FCF452902238
:10162000EFD394084025300211EF24F7FFF874013E
:10163000088002C333D8FC42B022EF24F7FFF874CD
:1016400001088002C333D8FCF452B0229000E9EEC6
:10165000F0A3EFF0A3EDF0E4A3F0F09000ECE0FFD6
:10166000C3940450277E007401A807088005C33383
:10167000CE33CED8F9FF9000EBE0FDEF5D60057F43
:10168000411217449000ECE004F080CF22EFC394A5
:101690000850157E007401A807088005C333CE33B7
:1016A000CED8F9FFAD90801DEFD39408401CEF24F5
:1016B000F7FF7E007401A807088005C333CE33CE40
:1016C000D8F9FFADB0EF5D24FF22C3221219877F46
:1016D000147E001219431213521219CF7BFF7A198C
:1016E00079E11208FE12170A121971E4FF12004084
:1016F0007F0112192C1212B6D2AFD28C1219991284
:101700000EF31218781219D380F5C2EAE4F5E2CE8E
:101710007400CECF7400CF8EED8FECCE7400CECFA0
:10172000740ACF8EEF8FEE75EA6775DC0275D242D0
:10173000F5E375D18075E22943D10175D8FF75E1D4
:1017400007D2EA2290009AE475F001120198FC7425
:101750008F25F0F58274003CF583EFF0900098E05F
:1017600004F07006900097E004F0C390009BE094B2
:101770000890009AE094004004E4F0A3F022C0E056
:10178000C0F0C083C082C0D075D018E5252401F513
:1017900025E43524F524E43523F523E43522F52228
:1017A0007DE87C03E4FF12184AD0D0D082D083D0E9
:1017B000F0D0E0329000E9EBF0A3EAF0A3E9F0EF1B
:1017C00070279000E9E0FBA3E0FAA3E0F912013CE6
:1017D00060179000E9A3E475F001120198A9F0FAEE
:1017E00012013CFF12000380D922AB07AA067F0139
:1017F000D2AEEF6014AF25AE24AD23AC229000F240
:1018000012028DE4FFC2AE80E99000F2A3A3E0FED5
:10181000A3E0FFC3EF9BFFEE9AFE22E4F0FE7F08F9
:10182000FD7B017A00794C120474C8740AC8CC7428
:1018300000CCCD7401CD7B017A00794C7E007F080D
:1018400012011675D30853D2FC22C3E49DFDE49C1B
:10185000FCEF7007EDF58AECF58C22EFB40107ED93
:10186000F58BECF58D22EFB4020DAF05EDF5CC8FC5
:10187000CAECFFF5CD8FCB229000E5E06020D3903D
:101880000098E09400900097E094004011121473C7
:10189000900098E024FFF0900097E034FFF022EFF2
:1018A000B40A07740D1218AA740A309811A899B8CE
:1018B000130CC2983098FDA899C298B811F63099C7
:1018C000FDC299F599227F01D2AEEF6014AF25AE2B
:1018D00024AD23AC229000F212028DE4FFC2AE8050
:1018E000E99000F2A3A3E0FEA3E0FF22C2027F0B77
:1018F0001215FA7F0212168D900141E0400544084E
:10190000F0800354F7F0D2027F0B0215FA78377C8F
:10191000017D017B017A0179417E007F051201166C
:101920001214EC1215461215A00218EC75A155758B
:10193000A1AAEF600543B101800353B1FEE4F5A114
:10194000F5FF22AD07AC06ED4C600E7FE87E03127A
:1019500019AAED1D70F11C80EE2278377C017D0103
:101960007B017A0179417E007F05120450EF24FF4C
:101970002253C9EF7D01E4FF12000E7DE87C03E4F1
:10198000FF12184AD2A92275A15575A1AAE5B9542A
:10199000F84404F5B9E4F5A122E4F5D3900056F03B
:1019A0009000E5F090008B04F022EF4E600905A155
:1019B000EF1F70F61E80F322EF7005AF05120003D3
:1019C000227B017A017941227B017A01793C224311
:1019D000C61022E4F5FF220D0A00547275650D0A47
:0919E0000073746172740D0A00B9
:00000001FF
