:0A000000020CA17B017A0179FB22BA
:10000B0002114DC874BFC8CC7400CCCD7401CD7B2C
:10001B00017A0079A67E007F091201167E007F0906
:10002B007D007B017A0079A61204809000A67401F2
:10003B00F09001237403F0220204ACE709F608DF09
:10004B00FA8046E709F208DFFA803E88828C83E764
:10005B0009F0A3DFFA8032E309F608DFFA8078E3D0
:10006B0009F208DFFA807088828C83E309F0A3DF42
:10007B00FA806489828A83E0A3F608DFFA805889C4
:10008B00828A83E0A3F208DFFA804C80D280FA8068
:10009B00C680D4806980F28033801080A680EA808D
:1000AB009A80A880DA80E280CA803389828A83ECC6
:1000BB00FAE493A3C8C582C8CCC583CCF0A3C8C54A
:1000CB0082C8CCC583CCDFE9DEE7800D89828A83C9
:1000DB00E493A3F608DFF9ECFAA9F0EDFB22898291
:1000EB008A83ECFAE0A3C8C582C8CCC583CCF0A345
:1000FB00C8C582C8CCC583CCDFEADEE880DB898249
:10010B008A83E493A3F208DFF980CC88F0EF6001D7
:10011B000E4E60C388F0ED2402B4040050B9F58292
:10012B00EB2402B4040050AF2323458223900096A6
:10013B0073BB010689828A83E0225002E722BBFE51
:10014B0002E32289828A83E49322BB010CE5822994
:10015B00F582E5833AF583E0225006E92582F8E63D
:10016B0022BBFE06E92582F8E222E58229F582E52B
:10017B00833AF583E49322C5F0F8A3E028F0C5F0A9
:10018B00F8E582158270021583E038F022A3F8E0BF
:10019B00C5F025F0F0E582158270021583E0C838B2
:1001AB00F0E82275F008758200EF2FFFEE33FECDDD
:1001BB0033CDCC33CCC58233C5829BED9AEC99E51C
:1001CB008298400CF582EE9BFEED9AFDEC99FC0FAC
:1001DB00D5F0D6E4CEFBE4CDFAE4CCF9A88222B874
:1001EB0000C1B90059BA002DEC8BF084CFCECDFCF9
:1001FB00E5F0CBF97818EF2FFFEE33FEED33FDEC86
:10020B0033FCEB33FB10D703994004EB99FB0FD86E
:10021B00E5E4F9FA227818EF2FFFEE33FEED33FD0C
:10022B00EC33FCC933C910D7059BE99A4007EC9B0B
:10023B00FCE99AF90FD8E0E4C9FAE4CCFB2275F09B
:10024B0010EF2FFFEE33FEED33FDCC33CCC833C8AC
:10025B0010D7079BEC9AE899400AED9BFDEC9AFCB2
:10026B00E899F80FD5F0DAE4CDFBE4CCFAE4C8F961
:10027B0022EB9FF5F0EA9E42F0E99D42F0E89C45A7
:10028B00F022ECF0A3EDF0A3EEF0A3EFF022A882A6
:10029B008583F0D083D0821202B01202B01202B06A
:1002AB001202B0E473E493A3C583C5F0C583C8C53C
:1002BB0082C8F0A3C583C5F0C583C8C582C822A474
:1002CB002582F582E5F03583F58322E3F5F009E22B
:1002DB0008B5F06BDFF58067E3F5F009E608B5F0DC
:1002EB005EDFF5805A87F009E608B5F052DFF6803D
:1002FB004E87F009E208B5F046DFF6804288828C23
:10030B008387F009E0A3B5F036DFF6803288828C64
:10031B008387F009E493A3B5F025DFF5802188826C
:10032B008C83E3F5F009E0A3B5F014DFF5801088BA
:10033B00828C83E3F5F009E493A3B5F002DFF402BA
:10034B000405808780E9809080D4803E8015806E84
:10035B00807E809D80B7808D80A380518074803C8F
:10036B0002041189828A83ECFAE493F5F0A3C8C5E1
:10037B0082C8CCC583CCE493A3C8C582C8CCC58343
:10038B00CCB5F076DFE3DEE1807089828A83E4937B
:10039B00F5F0A3E208B5F062DFF4805E89828A8310
:1003AB00E0F5F0A3E608B5F051DFF5804D89828AC0
:1003BB0083E0F5F0A3E208B5F040DFF5803C8982DD
:1003CB008A83E493F5F0A3E608B5F02EDFF4802AD8
:1003DB008002805789828A83ECFAE493F5F0A3C8F4
:1003EB00C582C8CCC583CCE0A3C8C582C8CCC583A5
:1003FB00CCB5F006DFE4DEE280007FFFB5F0020F44
:10040B002240027F012289828A83ECFAE0F5F0A375
:10041B00C8C582C8CCC583CCE0A3C8C582C8CCC52F
:10042B0083CCB5F0D5DFE5DEE380CF89828A83EC20
:10043B00FAE0F5F0A3C8C582C8CCC583CCE493A37E
:10044B00C8C582C8CCC583CCB5F0AFDFE4DEE28093
:10045B00A988F0EF60010E4E60ABED2402B40400EE
:10046B005098F582EB2402B40400508E232345826E
:10047B002390034D73EF4E6012EF60010EEDBB0145
:10048B000B89828A83F0A3DFFCDEFA2289F0500706
:10049B00F709DFFCA9F022BBFEFCF309DFFCA9F096
:1004AB0022C0E0C0F0C083C082C0D075D00820D974
:1004BB000302083DE5D9543F700302081924E0708C
:1004CB000302079F14603D24F16049242E60030250
:1004DB00083B20DE0302083B9001E1E5DBF0E0FF87
:1004EB007E00C874DAC8CC7400CCCD7401CD7B010E
:1004FB007A007964120116E5D454F34408F5D4D28A
:10050B000502083B75D300E5D254FC4402F5D2D268
:10051B000602083B9001E1E5DBF0E06408600302B2
:10052B000772900006E0900121F0900007E070093F
:10053B00900121E0D3947F4006900121747FF090CD
:10054B0001E1E4F0900001E0900122F0900000E066
:10055B005460601A900122E01424FD4003020778D6
:10056B0024FB24FD400302077880000207729001F0
:10057B0022E0B40B00400302077090058CF828288A
:10058B00730207530206A30207700206DD0207700F
:10059B000206700205AD02077002067B0206980286
:1005AB000778900003E024FE601E24E060302421D5
:1005BB00704D9001247401F0A37400F0A374C8F083
:1005CB009001E17412F0803D9001247401F0A3744A
:1005DB0000F0A374E5F09001E1743BF080279000EC
:1005EB0004E0701B90012404F0A37401F0A3743594
:1005FB00F09001E17483F09001B87401F0800690E3
:10060B0001E174FFF09001E1E0FF900121E0D39F45
:10061B004002EFF0900121E0FFC3942040077E20C1
:10062B00CFEECF80009001E1EFF07E00C87400C8E0
:10063B00CC7400CCCD7401CD900124E0FBA3E0FA87
:10064B00A3E0F9120116900121E0FF9001E1E0FE19
:10065B00C3EF9E900121F0EEFF900125E48FF01285
:10066B000182020778900002E0900121F0020778E6
:10067B009000BDE0900000F0900121E0C394015088
:10068B00030207789001E17401F0020778900002F1
:10069B00E09000BDF0020778900000E0541F640268
:1006AB00702D900004E014601D2480600E14701CEB
:1006BB00E5D454BC4402F5D4020778E5D254BC44CB
:1006CB0002F5D202077853D273020778020772023F
:1006DB000772900000E0541FFD701B900003E0FEBA
:1006EB00900002E0FBEB64014E70099000ECE020FF
:1006FB00E57B80738071ED6402704B900003E0FE2C
:10070B00900002E0FDED4E703B900005E0FE900086
:10071B0004E0FDEDFFEE702AEF24FE6011248160F2
:10072B001714701EE5D454BF4403F5D4803FE5D4B1
:10073B00547F440CF5D48035E5D254BF4403F5D235
:10074B00802B80238021801F900000E4F0A3F09089
:10075B000121E0FFC394029001E140057402F08097
:10076B000CEFF0800880009001E174FFF09001E144
:10077B00E0FFB4FF0C90012274FFF075DCCF020890
:10078B003BEFD3942050048FDD800375DD0075DCC7
:10079B00C002083B900122E024FB605C1470679060
:1007AB000121E0FFC3942040077E20CFEECF8000D5
:1007BB009001E1EFF07E00C87400C8CC7400CCCD82
:1007CB007401CD900124E0FBA3E0FAA3E0F9120140
:1007DB0016900121E0FF9001E1E0FEC3EF9E900136
:1007EB0021F0EEFF900125E48FF01201829001E1E0
:1007FB00E0F5DD63DC408038E5E35480FF900121B8
:10080B00E04FF5E3800375DD0075DC02802290017B
:10081B00E1E5DBF0900122E0B4090F9001E1E0B4D7
:10082B000108900000E0900120F075DD0075DC0000
:10083B00C2D930D81275DC0275D21075D41275E39B
:10084B0000C2DAC2D9C2D830DA04C2DA800375D852
:10085B00FFD0D0D082D083D0F0D0E032C107602857
:10086B0001B90053005400550056005F0060006151
:10087B000057005C005D005E00000059005A005BF1
:10088B0000000062000000630058420200000041BB
:10089B00020201420204000041020601C188041059
:1008AB00000000006083013505010906A1018501E7
:1008BB00050719E029E71500250175019508810247
:1008CB009501750881019503750105081901290327
:1008DB0091029505750191019506750826FF000596
:1008EB0007190029918100C005010906A1018502A4
:1008FB000507190429671500250175019563810208
:10090B00750195058103C00600FF0901A10185034F
:10091B000902150026FF00950A75088106090215C4
:10092B000026FF00950A75089106C05200C81201F7
:10093B000002000000203D410721000000000001E3
:10094B00603B00E509023B00010100A032090400F5
:10095B00000103000000092111010001228300079F
:10096B0005810320000107050203200001000000A0
:10097B000000000000000000000000000000004923
:10098B0000A60000000000000000004900BF0000AE
:10099B00000000000000004E0127000000000000D6
:1009AB0000000000000000004E00AF00000000003F
:1009BB000000000000000000004B00DA0000000007
:1009CB00000000000000004101230341012200410F
:1009DB000121004101B8004100BE004100BD0041B2
:1009EB00012000C106C10500EFC394085058ED1457
:1009FB00601E14602C14603C24036003020AB7A829
:100A0B00077401088002C333D8FCF452925293222C
:100A1B00A8077401088002C333D8FCFEF4529280FD
:100A2B0021A8077401088002C333D8FCFE4292EE62
:100A3B00F4529322A8077401088002C333D8FCFE3A
:100A4B004292EE429322EFD394084060ED14601E65
:100A5B0014602F14604224037052EF24F7FEF874D5
:100A6B0001088002C333D8FCF45296529722EF242C
:100A7B00F7FEF87401088002C333D8FCFEF45296DB
:100A8B008027EF24F7FEF87401088002C333D8FCEB
:100A9B00FE4296EEF4529722EF24F7FEF87401080B
:100AAB008002C333D8FCFE4296EE4297229001E2BD
:100ABB00EBF0A3EAF0A3E9F0E4A3F0A3F09001E5D7
:100ACB00F09001E5E0FFC394054003020B68900131
:100ADB00E2E0FBA3E0FAA3E0F98F82758300120139
:100AEB00556071E49001E6F09001E6E0FFC39404D9
:100AFB0050629001E2E0FBA3E0FAA3E0F9A3E0F57A
:100B0B0082758300120155FD7C007E007401A807DD
:100B1B00088005C333CE33CED8F9FFEE5CFEEF5D14
:100B2B004E60299001E5E075F008A424B9F582E444
:100B3B003401F583C083C0829001E6E0D082D0837C
:100B4B0075F0021202CAA3E0FF12134A9001E6E00D
:100B5B0004F080949001E5E004F0020ACC229001AD
:100B6B00E2EBF0A3EAF0A3E9F0C204E49001E9F0B0
:100B7B00A3F030030FD2071212AA90020DEEF0A3CE
:100B8B00EFF0807330077090020DE0FEA3E0FF12D0
:100B9B00121CC3EF9405EE9400405C9001E8E0FF5B
:100BAB00A3E4F0A3EFF09001E9E0FEA3E0FF9001D6
:100BBB00E5E0FBA3E0FAA3E0F8AC02AD039001E2A1
:100BCB00E0FBA3E0FAA3E0F912045CEF60279001CD
:100BDB00E9E0FEA3E0FF9001E5E0FBA3E0FAA3E070
:100BEB00F8AC02AD039001E2E0FBA3E0FAA3E0F95D
:100BFB00120116D204C207A204227D037F09120937
:100C0B00F37D037F0A1209F37D037F041209F37D41
:100C1B00037F0B1209F37D037F021209F37D037F20
:100C2B00031209F37D037F0E1209F37D037F0C1270
:100C3B0009F37D03E4FF1209F3D2037F09120F9C22
:100C4B00D2037F0A120F9CD2037F04120F9CD20394
:100C5B007F0B120F9CD2037F02120F9CD2037F03D8
:100C6B00120F9CD2037F0E120F9CD2037F0C120F1C
:100C7B009CD203E4FF120F9C7E007F057D007B015D
:100C8B007A0179FB1204807E007F057D007B017A5F
:100C9B000179F6020480787FE4F6D8FD7581210294
:100CAB000CE8021117E493A3F8E493A34003F68036
:100CBB0001F208DFF48029E493A3F85407240CC84D
:100CCB00C333C4540F4420C8834004F456800146F8
:100CDB00F6DFE4800B0102040810204080900867C7
:100CEB00E47E019360BCA3FF543F30E509541FFE23
:100CFB00E493A360010ECF54C025E060A840B8E494
:100D0B0093A3FAE493A3F8E493A3C8C582C8CAC516
:100D1B0083CAF0A3C8C582C8CAC583CADFE9DEE7A8
:100D2B0080BEC200C201C20230081EC208120003FC
:100D3B00900207EBF0A3EAF0A3E9F012139C9002E8
:100D4B000AEBF0A3EAF0A3E9F01212D012131D92F2
:100D5B000090020AE0F9A3E0FAA3E09001E5C9F0E4
:100D6B00A3EAF0A3E9F0A37405F0A20092039002AA
:100D7B0007E0FBA3E0FAA3E0F9120B699201300143
:100D8B001190020AE0FBA3E0FAA3E0F9120AB812F1
:100D9B000EE522C2037F09120F9C7F021210D8901E
:100DAB0001FBE040054401F0800354FEF07F031289
:100DBB0010D89001FCE040054408F0800354F7F094
:100DCB007F0E1210D89001FDE040054401F0800326
:100DDB0054FEF07F0C1210D89001FEE04005440445
:100DEB00F0800354FBF0E4FF1210D89001FFE040B9
:100DFB00054401F0800354FEF0D2037F09020F9CDF
:100E0B00C2037F0A120F9C7F021210D89001FBE0E5
:100E1B0040054402F0800354FDF07F031210D8907C
:100E2B0001FCE040054404F0800354FBF07F0E12FC
:100E3B0010D89001FDE040054402F0800354FDF012
:100E4B007F0C1210D89001FEE040054402F08003A5
:100E5B0054FDF0E4FF1210D89001FFE0400544046C
:100E6B00F0800354FBF0D2037F0A020F9CC2037F76
:100E7B0004120F9C7F021210D89001FBE040054436
:100E8B0004F0800354FBF07F031210D89001FCE0B8
:100E9B0040054402F0800354FDF07F0E1210D890F1
:100EAB0001FDE040054404F0800354FBF07F0C127D
:100EBB0010D89001FEE040054401F0800354FEF091
:100ECB00E4FF1210D89001FFE040054408F08003C6
:100EDB0054F7F0D2037F04020F9CC874A6C8CC74DD
:100EEB0000CCCD7401CD7B017A0079BF7E007F09E8
:100EFB0012045CEF6012C2067B017A0079A67D09B1
:100F0B001211B73006FDC206C87427C8CC7401CCC9
:100F1B00CD7401CD7B017A0079AF7E007F0E120478
:100F2B005CEF6012C2067B017A0179277D0E1211EC
:100F3B00B73006FDC20612000E02124D9001E2EB15
:100F4B00F0A3EAF0A3E9F0C874E5C8CC7401CCCDEA
:100F5B007401CD7BFF7A1379AA7E007F0B120116E9
:100F6B00C874E5C8CC7401CCCD7401CD9001E2E01E
:100F7B00FBA3E0FAA3E0F97E007F0B120116C20679
:100F8B007B017A0179E57D0B1211B73006FDC206A4
:100F9B0022EFC39408502030030EA8077401088079
:100FAB0002C333D8FC429022A8077401088002C305
:100FBB0033D8FCF4529022EFD39408402530031120
:100FCB00EF24F7FFF87401088002C333D8FC42B05A
:100FDB0022EF24F7FFF87401088002C333D8FCF426
:100FEB0052B0229001277402F074FC2FFFD39407A8
:100FFB005015A3E0FEC8EFC87401088002C333D8B4
:10100B00FC4E900128F022EF131313541F2428F5E4
:10101B0082E43401F583C083C082E0FEEF5407FF06
:10102B00C8EFC87401088002C333D8FC4ED082D0FD
:10103B0083F022C2EAE4F5E2CE7400CECF7400CF87
:10104B008EED8FEC75DC02CE7400CECF7422CF8E7A
:10105B00EF8FEE75EA6775D242CE7400CECF746413
:10106B00CF8EE58FE4E5EB54FE4408F5EBE4F5E3B6
:10107B0075D18075E22943D10175D8FF75E107D28F
:10108B00EA229000A67401F0EFC394E04020EFD366
:10109B0094E7501AA3E0FEEF2420FFC8EFC87401B9
:1010AB00088002C333D8FC4E9000A7F0D3229001E6
:1010BB0023E0FED3940840012274A62EF582E4347B
:1010CB0000F583EFF0900123E004F0D322EFC394FB
:1010DB000850157E007401A807088005C333CE3372
:1010EB00CED8F9FFAD90801DEFD39408401CEF24B0
:1010FB00F7FF7E007401A807088005C333CE33CEFB
:10110B00D8F9FFADB0EF5D24FF22C32212135E7F2F
:10111B00147E0012130612103E121334E4FF121346
:10112B00A77F011212EF120C05D2AFD28C7F0A7E71
:10113B0000121306121370120D2D12137F1213A32C
:10114B0080F5C0E0C0F0C083C082C0D075D018E578
:10115B00132401F513E43512F512E43511F511E4FE
:10116B003510F5107DE87C03E4FF12127CD0D0D053
:10117B0082D083D0F0D0E032C2037F0B120F9C7F62
:10118B00021210D89001FBE040054408F080035494
:10119B00F7F07F031210D89001FCE040054401F0FA
:1011AB00800354FEF0D2037F0B020F9C9001F0EDF5
:1011BB00F0FF7E00EBC0E0EAC0E0E9C0E0C87422BB
:1011CB00C8CC7400CCCD7401CDD0E0F9D0E0FAD00E
:1011DB00E0FB1201169001F0E0F5D353D2FC22EFA5
:1011EB007009E58954F04DF5898023EFB40110AFF8
:1011FB0005EFC454F0FFE589540F4FF589800FEFCD
:10120B00B40208C2CDC2CCC2C880037FFF227F00CC
:10121B0022AB07AA067F01D2AEEF6014AF13AE125A
:10122B00AD11AC109001EB12028DE4FFC2AE80E960
:10123B009001EBA3A3E0FEA3E0FFC3EF9BFFEE9AAD
:10124B00FE22C874AFC8CC7400CCCD7401CD7B0129
:10125B007A0179277E007F0E1201167E007F0E7DAC
:10126B00007B017A0179271204809001277402F028
:10127B0022C3E49DFDE49CFCEF7007EDF58AECF5D1
:10128B008C22EFB40107EDF58BECF58D22EFB40258
:10129B000DAF05EDF5CC8FCAECFFF5CD8FCB227FD3
:1012AB0001D2AEEF6014AF13AE12AD11AC109001C2
:1012BB00EB12028DE4FFC2AE80E99001EBA3A3E039
:1012CB00FEA3E0FF2278F17C017D017B017A01799D
:1012DB00FB7E007F05120116120D9E120E0B120ED5
:1012EB007802118375A15575A1AAEF600543B10171
:1012FB00800353B1FEE4F5A1F5FF22AD07AC06ED7B
:10130B004C600E7FE87E0312138EED1D70F11C8076
:10131B00EE2278F17C017D017B017A0179FB7E0065
:10132B007F0512045CEF24FF2253C9EF7D01E4FF1C
:10133B001211EA7DE87C03E4FF12127CD2A922CDC4
:10134B00EFCDCFCF12108D9203200306CFEDCF122E
:10135B000FEE2275A15575A1AAE5B954F84404F511
:10136B00B9E4F5A122E4F5D3C2069001B8F09001DF
:10137B002004F02230050BC2057B017A0079DA12CA
:10138B000F4722EF4E600905A1EF1F70F61E80F389
:10139B00227B017A0179F622E4F5FF228FFF2200EE
:0A13AB000000000000000000000038
:00000001FF
