:0A000000020C7A7B017A0179E922F3
:10000B0002112EC874BFC8CC7400CCCD7401CD7B4B
:10001B00017A0079A67E007F091201167E007F0906
:10002B007D007B017A0079A61204809000A67401F2
:10003B00F09001117403F0220204ACE709F608DF1B
:10004B00FA8046E709F208DFFA803E88828C83E764
:10005B0009F0A3DFFA8032E309F608DFFA8078E3D0
:10006B0009F208DFFA807088828C83E309F0A3DF42
:10007B00FA806489828A83E0A3F608DFFA805889C4
:10008B00828A83E0A3F208DFFA804C80D280FA8068
:10009B00C680D4806980F28033801080A680EA808D
:1000AB009A80A880DA80E280CA803389828A83ECC6
:1000BB00FAE493A3C8C582C8CCC583CCF0A3C8C54A
:1000CB0082C8CCC583CCDFE9DEE7800D89828A83C9
:1000DB00E493A3F608DFF9ECFAA9F0EDFB22898291
:1000EB008A83ECFAE0A3C8C582C8CCC583CCF0A345
:1000FB00C8C582C8CCC583CCDFEADEE880DB898249
:10010B008A83E493A3F208DFF980CC88F0EF6001D7
:10011B000E4E60C388F0ED2402B4040050B9F58292
:10012B00EB2402B4040050AF2323458223900096A6
:10013B0073BB010689828A83E0225002E722BBFE51
:10014B0002E32289828A83E49322BB010CE5822994
:10015B00F582E5833AF583E0225006E92582F8E63D
:10016B0022BBFE06E92582F8E222E58229F582E52B
:10017B00833AF583E49322C5F0F8A3E028F0C5F0A9
:10018B00F8E582158270021583E038F022A3F8E0BF
:10019B00C5F025F0F0E582158270021583E0C838B2
:1001AB00F0E82275F008758200EF2FFFEE33FECDDD
:1001BB0033CDCC33CCC58233C5829BED9AEC99E51C
:1001CB008298400CF582EE9BFEED9AFDEC99FC0FAC
:1001DB00D5F0D6E4CEFBE4CDFAE4CCF9A88222B874
:1001EB0000C1B90059BA002DEC8BF084CFCECDFCF9
:1001FB00E5F0CBF97818EF2FFFEE33FEED33FDEC86
:10020B0033FCEB33FB10D703994004EB99FB0FD86E
:10021B00E5E4F9FA227818EF2FFFEE33FEED33FD0C
:10022B00EC33FCC933C910D7059BE99A4007EC9B0B
:10023B00FCE99AF90FD8E0E4C9FAE4CCFB2275F09B
:10024B0010EF2FFFEE33FEED33FDCC33CCC833C8AC
:10025B0010D7079BEC9AE899400AED9BFDEC9AFCB2
:10026B00E899F80FD5F0DAE4CDFBE4CCFAE4C8F961
:10027B0022EB9FF5F0EA9E42F0E99D42F0E89C45A7
:10028B00F022ECF0A3EDF0A3EEF0A3EFF022A882A6
:10029B008583F0D083D0821202B01202B01202B06A
:1002AB001202B0E473E493A3C583C5F0C583C8C53C
:1002BB0082C8F0A3C583C5F0C583C8C582C822A474
:1002CB002582F582E5F03583F58322E3F5F009E22B
:1002DB0008B5F06BDFF58067E3F5F009E608B5F0DC
:1002EB005EDFF5805A87F009E608B5F052DFF6803D
:1002FB004E87F009E208B5F046DFF6804288828C23
:10030B008387F009E0A3B5F036DFF6803288828C64
:10031B008387F009E493A3B5F025DFF5802188826C
:10032B008C83E3F5F009E0A3B5F014DFF5801088BA
:10033B00828C83E3F5F009E493A3B5F002DFF402BA
:10034B000405808780E9809080D4803E8015806E84
:10035B00807E809D80B7808D80A380518074803C8F
:10036B0002041189828A83ECFAE493F5F0A3C8C5E1
:10037B0082C8CCC583CCE493A3C8C582C8CCC58343
:10038B00CCB5F076DFE3DEE1807089828A83E4937B
:10039B00F5F0A3E208B5F062DFF4805E89828A8310
:1003AB00E0F5F0A3E608B5F051DFF5804D89828AC0
:1003BB0083E0F5F0A3E208B5F040DFF5803C8982DD
:1003CB008A83E493F5F0A3E608B5F02EDFF4802AD8
:1003DB008002805789828A83ECFAE493F5F0A3C8F4
:1003EB00C582C8CCC583CCE0A3C8C582C8CCC583A5
:1003FB00CCB5F006DFE4DEE280007FFFB5F0020F44
:10040B002240027F012289828A83ECFAE0F5F0A375
:10041B00C8C582C8CCC583CCE0A3C8C582C8CCC52F
:10042B0083CCB5F0D5DFE5DEE380CF89828A83EC20
:10043B00FAE0F5F0A3C8C582C8CCC583CCE493A37E
:10044B00C8C582C8CCC583CCB5F0AFDFE4DEE28093
:10045B00A988F0EF60010E4E60ABED2402B40400EE
:10046B005098F582EB2402B40400508E232345826E
:10047B002390034D73EF4E6012EF60010EEDBB0145
:10048B000B89828A83F0A3DFFCDEFA2289F0500706
:10049B00F709DFFCA9F022BBFEFCF309DFFCA9F096
:1004AB0022C0E0C0F0C083C082C0D075D00820D974
:1004BB0003020828E5D9543F700302080424E070B6
:1004CB000302078A14603D24F16049242E60030265
:1004DB00082620DE030208269001CFE5DBF0E0FFC3
:1004EB007E00C874DAC8CC7400CCCD7401CD7B010E
:1004FB007A007964120116E5D454F34408F5D4D28A
:10050B000502082675D300E5D254FC4402F5D2D27D
:10051B00060208269001CFE5DBF0E06408600302D9
:10052B00075D900006E090010FF09001CFE4F09092
:10053B000001E0900110F0900000E05460601A9010
:10054B000110E01424FD400302076324FB24FD404B
:10055B0003020763800002075D900110E0B40B00FB
:10056B00400302075B900577F828287302073E02C9
:10057B00068E02075B0206C802075B02065B0205DA
:10058B009802075B0206660206830207639000036C
:10059B00E024FE601E24E060302421704D90011297
:1005AB007401F0A37400F0A374C8F09001CF74121F
:1005BB00F0803D9001127401F0A37400F0A374E578
:1005CB00F09001CF7429F08027900004E0701B900D
:1005DB00011204F0A37401F0A37423F09001CF7403
:1005EB0083F09001A67401F080069001CF74FFF0A8
:1005FB009001CFE0FF90010FE0D39F4002EFF0900E
:10060B00010FE0FFC3942040077E20CFEECF800088
:10061B009001CFEFF07E00C87400C8CC7400CCCD35
:10062B007401CD900112E0FBA3E0FAA3E0F91201F3
:10063B001690010FE0FF9001CFE0FEC3EF9E9001FB
:10064B000FF0EEFF900113E48FF0120182020763AB
:10065B00900002E090010FF00207639000BDE09064
:10066B000000F090010FE0C3940150030207639068
:10067B0001CF7401F0020763900002E09000BDF01F
:10068B00020763900000E0541F6402702D90000479
:10069B00E014601D2480600E14701CE5D454BC441F
:1006AB0002F5D4020763E5D254BC4402F5D202072B
:1006BB006353D27302076302075D02075D9000006C
:1006CB00E0541FFD701B900003E0FE900002E0FB66
:1006DB00EB64014E70099000ECE020E57B807380A9
:1006EB0071ED6402704B900003E0FE900002E0FDA0
:1006FB00ED4E703B900005E0FE900004E0FDEDFF39
:10070B00EE702AEF24FE60112481601714701EE531
:10071B00D454BF4403F5D4803FE5D4547F440CF547
:10072B00D48035E5D254BF4403F5D2802B8023808F
:10073B0021801F900000E4F0A3F090010FE0FFC3B5
:10074B0094029001CF40057402F0800CEFF080080A
:10075B0080009001CF74FFF09001CFE0FFB4FF0C4D
:10076B0090011074FFF075DCCF020826EFD39420B4
:10077B0050048FDD800375DD0075DCC00208269008
:10078B000110E024FB605C14706790010FE0FFC365
:10079B00942040077E20CFEECF80009001CFEFF06A
:1007AB007E00C87400C8CC7400CCCD7401CD900110
:1007BB0012E0FBA3E0FAA3E0F912011690010FE09F
:1007CB00FF9001CFE0FEC3EF9E90010FF0EEFF9084
:1007DB000113E48FF01201829001CFE0F5DD63DCB1
:1007EB00408038E5E35480FF90010FE04FF5E38044
:1007FB000375DD0075DC0280229001CFE5DBF09004
:10080B000110E0B4090F9001CFE0B4010890000093
:10081B00E090010EF075DD0075DC00C2D930D81206
:10082B0075DC0275D21275D41275E300C2DAC2D927
:10083B00C2D830DA04C2DA800375D8FFD0D0D082A8
:10084B00D083D0F0D0E032C107602801A70053005D
:10085B005400550056005F006000610057005C00BB
:10086B005D005E00000059005A005B000000620052
:10087B0000006300584201EE00004101F00142010B
:10088B00F200004101F401C1880410000000006077
:10089B0083012305010906A1018501050719E0293B
:1008AB00E7150025017501950881029501750881F1
:1008BB000195037501050819012903910295057529
:1008CB000191019506750826FF000507190029916E
:1008DB008100C005010906A101850205071904293C
:1008EB0067150025017501956381027501950581D9
:1008FB0003C00600FF0901A10185030902150026AB
:10090B00FF00950A750881060902150026FF009560
:10091B000A75089106C05200C812010002000000BF
:10092B00203D410721000000000001602900E5097E
:10093B00022900010100A03209040000020300009B
:10094B00000921110100012283000705810320000A
:10095B0001070502032000014900A600000000006A
:10096B00000000004900BF00000000000000000074
:10097B004E01150000000000000000000000000008
:10098B00004E00AF0000000000000000000000005F
:10099B0000004B00DA000000000000000000000027
:1009AB00410111034101100041010F004101A6005B
:1009BB004100BE004100BD0041010E00C106C10552
:1009CB0000EFC394085058ED14601E14602C146093
:1009DB003C24036003020A90A8077401088002C339
:1009EB0033D8FCF45292529322A807740108800268
:1009FB00C333D8FCFEF452928021A80774010880FF
:100A0B0002C333D8FCFE4292EEF4529322A8077431
:100A1B0001088002C333D8FCFE4292EE429322EFD0
:100A2B00D394084060ED14601E14602F14604224B0
:100A3B00037052EF24F7FEF87401088002C333D819
:100A4B00FCF45296529722EF24F7FEF874010880BB
:100A5B0002C333D8FCFEF452968027EF24F7FEF83E
:100A6B007401088002C333D8FCFE4296EEF4529711
:100A7B0022EF24F7FEF87401088002C333D8FCFE82
:100A8B004296EE4297229001D0EBF0A3EAF0A3E955
:100A9B00F0E4A3F0A3F09001D3F09001D3E0FFC3F7
:100AAB0094054003020B419001D0E0FBA3E0FAA3B5
:100ABB00E0F98F827583001201556071E49001D4C7
:100ACB00F09001D4E0FFC3940450629001D0E0FB9E
:100ADB00A3E0FAA3E0F9A3E0F582758300120155B8
:100AEB00FD7C007E007401A807088005C333CE335C
:100AFB00CED8F9FFEE5CFEEF5D4E60299001D3E09E
:100B0B0075F008A424A7F582E43401F583C083C0F3
:100B1B00829001D4E0D082D08375F0021202CAA376
:100B2B00E0FF12132B9001D4E004F080949001D3DA
:100B3B00E004F0020AA5229001D0EBF0A3EAF0A3A7
:100B4B00E9F0C204E49001D7F0A3F030030FD20711
:100B5B0012128B9001FBEEF0A3EFF0807330077055
:100B6B009001FBE0FEA3E0FF1211FDC3EF9405EE35
:100B7B009400405C9001D6E0FFA3E4F0A3EFF0906B
:100B8B0001D7E0FEA3E0FF9001D3E0FBA3E0FAA3C3
:100B9B00E0F8AC02AD039001D0E0FBA3E0FAA3E0D8
:100BAB00F912045CEF60279001D7E0FEA3E0FF9001
:100BBB0001D3E0FBA3E0FAA3E0F8AC02AD03900194
:100BCB00D0E0FBA3E0FAA3E0F9120116D204C207AE
:100BDB00A204227D037F091209CC7D037F0A12092F
:100BEB00CC7D037F041209CC7D037F0B1209CC7DD6
:100BFB00037F021209CC7D037F031209CC7D037F97
:100C0B000E1209CC7D037F0C1209CC7D03E4FF127D
:100C1B0009CCD2037F09120FCCD2037F0A120FCC5F
:100C2B00D2037F04120FCCD2037F0B120FCCD20353
:100C3B007F02120FCCD2037F03120FCCD2037F0E95
:100C4B00120FCCD2037F0C120FCCD203E4FF120F86
:100C5B00CC7E007F057D007B017A0179E91204804F
:100C6B007E007F057D007B017A0179E402048078A8
:100C7B007FE4F6D8FD758121020CC10210F8E493D4
:100C8B00A3F8E493A34003F68001F208DFF4802974
:100C9B00E493A3F85407240CC8C333C4540F442063
:100CAB00C8834004F456800146F6DFE4800B010252
:100CBB00040810204080900852E47E019360BCA38E
:100CCB00FF543F30E509541FFEE493A360010ECFA0
:100CDB0054C025E060A840B8E493A3FAE493A3F8CA
:100CEB00E493A3C8C582C8CAC583CAF0A3C8C5828A
:100CFB00C8CAC583CADFE9DEE780BEC200C201C233
:100D0B000230081EC2081200039001F5EBF0A3EAB3
:100D1B00F0A3E9F012137D9001F8EBF0A3EAF0A336
:100D2B00E9F01212B11212FE92009001F8E0F9A351
:100D3B00E0FAA3E09001D3C9F0A3EAF0A3E9F0A392
:100D4B007405F0A20092039001F5E0FBA3E0FAA377
:100D5B00E0F9120B4292013001119001F8E0FBA374
:100D6B00E0FAA3E0F9120A91120EBE22C2037F0928
:100D7B00120FCC7F021210B99001E9E0400544013B
:100D8B00F0800354FEF07F031210B99001EAE040AB
:100D9B00054408F0800354F7F07F0E1210B9900150
:100DAB00EBE040054401F0800354FEF07F0C121081
:100DBB00B99001ECE040054404F0800354FBF0E4EF
:100DCB00FF1210B99001EDE040054401F08003548F
:100DDB00FEF0D2037F09020FCCC2037F0A120FCCA5
:100DEB007F021210B99001E9E040054402F0800344
:100DFB0054FDF07F031210B99001EAE04005440462
:100E0B00F0800354FBF07F0E1210B99001EBE04021
:100E1B00054402F0800354FDF07F0C1210B99001D1
:100E2B00ECE040054402F0800354FDF0E4FF1210A7
:100E3B00B99001EDE040054404F0800354FBF0D27F
:100E4B00037F0A020FCCC2037F04120FCC7F021266
:100E5B0010B99001E9E040054404F0800354FBF025
:100E6B007F031210B99001EAE040054402F08003C1
:100E7B0054FDF07F0E1210B99001EBE040054404D5
:100E8B00F0800354FBF07F0C1210B99001ECE040A2
:100E9B00054401F0800354FEF0E4FF1210B99001F9
:100EAB00EDE040054408F0800354F7F0D2037F04D3
:100EBB00020FCCC874A6C8CC7400CCCD7401CD7B0A
:100ECB00017A0079BF7E007F0912045CEF6012C2C9
:100EDB00067B017A0079A67D091211983006FDC2B6
:100EEB0006C87415C8CC7401CCCD7401CD7B017AC6
:100EFB000079AF7E007F0E12045CEF6012C2067B9E
:100F0B00017A0179157D0E1211983006FDC2061279
:100F1B00000E02122EC2EAE4F5E2CE7400CECF74BC
:100F2B0000CF8EED8FEC75DC02CE7400CECF742229
:100F3B00CF8EEF8FEEE5EA54EF4440F5EA75D2120F
:100F4B00CE7400CECF7464CF8EE58FE4E5EB54FE08
:100F5B004408F5EB75D412E4F5E375D18075E229FD
:100F6B0043D10175D8FF75E107D2EA229001D0EB8E
:100F7B00F0A3EAF0A3E9F0C874D3C8CC7401CCCDCC
:100F8B007401CD7BFF7A13798B7E007F0B120116D8
:100F9B00C874D3C8CC7401CCCD7401CD9001D0E012
:100FAB00FBA3E0FAA3E0F97E007F0B120116C20649
:100FBB007B017A0179D37D0B1211983006FDC206A5
:100FCB0022EFC39408502030030EA8077401088049
:100FDB0002C333D8FC429022A8077401088002C3D5
:100FEB0033D8FCF4529022EFD394084025300311F0
:100FFB00EF24F7FFF87401088002C333D8FC42B02A
:10100B0022EF24F7FFF87401088002C333D8FCF4F5
:10101B0052B0229001157402F074FC2FFFD3940789
:10102B005015A3E0FEC8EFC87401088002C333D883
:10103B00FC4E900116F022EF131313541F2416F5D8
:10104B0082E43401F583C083C082E0FEEF5407FFD6
:10105B00C8EFC87401088002C333D8FC4ED082D0CD
:10106B0083F0229000A67401F0EFC394E04020EFD0
:10107B00D394E7501AA3E0FEEF2420FFC8EFC87407
:10108B0001088002C333D8FC4E9000A7F0D3229006
:10109B000111E0FED3940840012274A62EF582E4E0
:1010AB003400F583EFF0900111E004F0D322EFC38D
:1010BB00940850157E007401A807088005C333CE31
:1010CB0033CED8F9FFAD90801DEFD39408401CEFC1
:1010DB0024F7FF7E007401A807088005C333CE33C5
:1010EB00CED8F9FFADB0EF5D24FF22C32212133F20
:1010FB007F147E001212E7120F20121315E4FF1259
:10110B0013887F011212D0120BDED2AFD28C7F0A62
:10111B007E001212E7121351120D061213601213F6
:10112B008480F5C0E0C0F0C083C082C0D075D018F9
:10113B00E5132401F513E43512F512E43511F5111D
:10114B00E43510F5107DE87C03E4FF12125DD0D07E
:10115B00D082D083D0F0D0E032C2037F0B120FCC01
:10116B007F021210B99001E9E040054408F08003BA
:10117B0054F7F07F031210B99001EAE040054401E7
:10118B00F0800354FEF0D2037F0B020FCC9001DEF4
:10119B00EDF0FF7E00EBC0E0EAC0E0E9C0E0C87410
:1011AB0022C8CC7400CCCD7401CDD0E0F9D0E0FADC
:1011BB00D0E0FB1201169001DEE0F5D353D2FC22F6
:1011CB00EF7009E58954F04DF5898023EFB40110D8
:1011DB00AF05EFC454F0FFE589540F4FF589800F2D
:1011EB00EFB40208C2CDC2CCC2C880037FFF227FFE
:1011FB000022AB07AA067F01D2AEEF6014AF13AE8D
:10120B0012AD11AC109001D912028DE4FFC2AE8069
:10121B00E99001D9A3A3E0FEA3E0FFC3EF9BFFEE90
:10122B009AFE22C874AFC8CC7400CCCD7401CD7BB0
:10123B00017A0179157E007F0E1201167E007F0E5A
:10124B007D007B017A0179151204809001157402DF
:10125B00F022C3E49DFDE49CFCEF7007EDF58AECF6
:10126B00F58C22EFB40107EDF58BECF58D22EFB485
:10127B00020DAF05EDF5CC8FCAECFFF5CD8FCB2270
:10128B007F01D2AEEF6014AF13AE12AD11AC109064
:10129B0001D912028DE4FFC2AE80E99001D9A3A35C
:1012AB00E0FEA3E0FF2278DF7C017D017B017A0168
:1012BB0079E97E007F05120116120D77120DE412EB
:1012CB000E5102116475A15575A1AAEF600543B1CA
:1012DB0001800353B1FEE4F5A1F5FF22AD07AC0687
:1012EB00ED4C600E7FE87E0312136FED1D70F11C49
:1012FB0080EE2278DF7C017D017B017A0179E97E2A
:10130B00007F0512045CEF24FF2253C9EF7D01E43B
:10131B00FF1211CB7DE87C03E4FF12125DD2A922F0
:10132B00CDEFCDCFCF12106E9203200306CFEDCFB2
:10133B0012101E2275A15575A1AAE5B954F84404E3
:10134B00F5B9E4F5A122E4F5D3C2069001A6F0901D
:10135B00010E04F02230050BC2057B017A0079DA0D
:10136B00120F7722EF4E600905A1EF1F70F61E805A
:10137B00F3227B017A0179E422E4F5FF228FFF222D
:0B138B00000000000000000000000057
:00000001FF
