:10000000020F598F993099FDC29922021358C203E9
:100010007F0B12128D7F021212DF900120E040054B
:100020004408F0800354F7F07F031212DF9001219F
:10003000E040054401F0800354FEF0D2037F0B0240
:02004000128D1F
:100043000204A0E709F608DFFA8046E709F208DFB1
:10005300FA803E88828C83E709F0A3DFFA8032E3DB
:1000630009F608DFFA8078E309F208DFFA8070887E
:10007300828C83E309F0A3DFFA806489828A83E0B8
:10008300A3F608DFFA805889828A83E0A3F208DFA7
:10009300FA804C80D280FA80C680D4806980F28056
:1000A30033801080A680EA809A80A880DA80E2807C
:1000B300CA803389828A83ECFAE493A3C8C582C8D1
:1000C300CCC583CCF0A3C8C582C8CCC583CCDFE93B
:1000D300DEE7800D89828A83E493A3F608DFF9ECD7
:1000E300FAA9F0EDFB2289828A83ECFAE0A3C8C562
:1000F30082C8CCC583CCF0A3C8C582C8CCC583CC89
:10010300DFEADEE880DB89828A83E493A3F208DFF7
:10011300F980CC88F0EF60010E4E60C388F0ED24C7
:1001230002B4040050B9F582EB2402B4040050AFCA
:10013300232345822390009673BB010689828A8319
:10014300E0225002E722BBFE02E32289828A83E493
:100153009322BB010CE58229F582E5833AF583E01E
:10016300225006E92582F8E622BBFE06E92582F83D
:10017300E222E58229F582E5833AF583E49322C5F9
:10018300F0F8A3E028F0C5F0F8E5821582700215B7
:1001930083E038F022A3F8E0C5F025F0F0E58215FE
:1001A3008270021583E0C838F0E82275F008758282
:1001B30000EF2FFFEE33FECD33CDCC33CCC58233EE
:1001C300C5829BED9AEC99E58298400CF582EE9BF3
:1001D300FEED9AFDEC99FC0FD5F0D6E4CEFBE4CD11
:1001E300FAE4CCF9A88222B800C1B90059BA002DAB
:1001F300EC8BF084CFCECDFCE5F0CBF97818EF2F64
:10020300FFEE33FEED33FDEC33FCEB33FB10D70392
:10021300994004EB99FB0FD8E5E4F9FA227818EF3B
:100223002FFFEE33FEED33FDEC33FCC933C910D79A
:10023300059BE99A4007EC9BFCE99AF90FD8E0E4A7
:10024300C9FAE4CCFB2275F010EF2FFFEE33FEED7D
:1002530033FDCC33CCC833C810D7079BEC9AE8994D
:10026300400AED9BFDEC9AFCE899F80FD5F0DAE42F
:10027300CDFBE4CCFAE4C8F922EB9FF5F0EA9E4209
:10028300F0E99D42F0E89C45F022ECF0A3EDF0A3E9
:10029300EEF0A3EFF022A8828583F0D083D0821200
:1002A30002B01202B01202B01202B0E473E493A3DC
:1002B300C583C5F0C583C8C582C8F0A3C583C5F08F
:1002C300C583C8C582C822E3F5F009E208B5F06B1F
:1002D300DFF58067E3F5F009E608B5F05EDFF5804A
:1002E3005A87F009E608B5F052DFF6804E87F00929
:1002F300E208B5F046DFF6804288828C8387F009F6
:10030300E0A3B5F036DFF6803288828C8387F0096C
:10031300E493A3B5F025DFF5802188828C83E3F590
:10032300F009E0A3B5F014DFF5801088828C83E335
:10033300F5F009E493A3B5F002DFF40203F9808733
:1003430080E9809080D4803E8015806E807E809D81
:1003530080B7808D80A380518074803C020405891E
:10036300828A83ECFAE493F5F0A3C8C582C8CCC5AE
:1003730083CCE493A3C8C582C8CCC583CCB5F0763F
:10038300DFE3DEE1807089828A83E493F5F0A3E200
:1003930008B5F062DFF4805E89828A83E0F5F0A31A
:1003A300E608B5F051DFF5804D89828A83E0F5F0E8
:1003B300A3E208B5F040DFF5803C89828A83E493A9
:1003C300F5F0A3E608B5F02EDFF4802A800280570B
:1003D30089828A83ECFAE493F5F0A3C8C582C8CC7A
:1003E300C583CCE0A3C8C582C8CCC583CCB5F00611
:1003F300DFE4DEE280007FFFB5F0020F2240027FE0
:10040300012289828A83ECFAE0F5F0A3C8C582C889
:10041300CCC583CCE0A3C8C582C8CCC583CCB5F01A
:10042300D5DFE5DEE380CF89828A83ECFAE0F5F05D
:10043300A3C8C582C8CCC583CCE493A3C8C582C86E
:10044300CCC583CCB5F0AFDFE4DEE280A988F0EF62
:1004530060010E4E60ABED2402B404005098F582A7
:10046300EB2402B40400508E2323458223900341DE
:1004730073EF4E6012EF60010EEDBB010B89828AB0
:1004830083F0A3DFFCDEFA2289F05007F709DFFCD3
:10049300A9F022BBFEFCF309DFFCA9F022C0E0C0F7
:1004A300F0C083C082C0D075D00820D903020811E0
:1004B300E5D9543F70030207ED24E070030207738C
:1004C30014601924F16029240E600302080F75D506
:1004D30000E5D454FC4402F5D402080F75D300E5BB
:1004E300D254FC4402F5D290005E7401F002080F6E
:1004F300900125E5DBF0E064086003020746900005
:1005030006E0900094F0900007E07009900094E0FA
:10051300D3947F4006900094747FF0900125E4F01B
:10052300900001E09000A1F0900000E05460601A98
:100533009000A1E01424FD400302074C24FB24FD9A
:10054300400302074C80000207469000A1E0B40B71
:10055300004003020744900560F828287302072728
:100563000206770207440206B10207440206440268
:10057300058102074402064F02066C02074C9000F5
:1005830003E024FE601E24E060302421704D9000BF
:10059300EA7401F0A37400F0A3745FF09001257472
:1005A30012F0803D9000EA7401F0A37400F0A3748C
:1005B30071F09001257422F08027900004E0701BF5
:1005C3009000EA04F0A37400F0A374ACF09001254A
:1005D300743EF09000ED7401F0800690012574FFE5
:1005E300F0900125E0FF900094E0D39F4002EFF0EC
:1005F300900094E0FFC3940840077E08CFEECF80BD
:1006030000900125EFF07E00C87400C8CC7400CCC4
:10061300CD7401CD9000EAE0FBA3E0FAA3E0F91268
:100623000116900094E0FF900125E0FEC3EF9E9039
:100633000094F0EEFF9000EBE48FF01201820207CA
:100643004C900002E0900094F002074C900054E0BC
:10065300900000F0900094E0C39401500302074C13
:100663009001257401F002074C900002E0900054C1
:10067300F002074C900000E0541F6402702D9000BC
:1006830004E014601D2480600E14701CE5D454BC77
:100693004402F5D402074CE5D254BC4402F5D2021D
:1006A300074C53D27302074C0207460207469000D9
:1006B30000E0541FFD701B900003E0FE900002E079
:1006C300FBEB64014E7009900078E020E57B8073BA
:1006D3008071ED6402704B900003E0FE900002E035
:1006E300FDED4E703B900005E0FE900004E0FDED53
:1006F300FFEE702AEF24FE60112481601714701E30
:10070300E5D454BF4403F5D4803FE5D4547F440C6F
:10071300F5D48035E5D254BF4403F5D2802B802332
:100723008021801F900000E4F0A3F0900094E0FF8C
:10073300C3940290012540057402F0800CEFF08011
:1007430008800090012574FFF0900125E0FFB4FFBD
:100753000C9000A174FFF075DCCF02080FEFD39467
:100763000850048FDD800375DD0075DCC002080FBF
:100773009000A1E024FB605C147067900094E0FF9C
:10078300C3940840077E08CFEECF8000900125EF89
:10079300F07E00C87400C8CC7400CCCD7401CD9039
:1007A30000EAE0FBA3E0FAA3E0F91201169000943B
:1007B300E0FF900125E0FEC3EF9E900094F0EEFF72
:1007C3009000EBE48FF0120182900125E0F5DD63E8
:1007D300DC408038E5E35480FF900094E04FF5E37C
:1007E300800375DD0075DC028022900125E5DBF0D6
:1007F3009000A1E0B4090F900125E0B40108900036
:1008030000E0900093F075DD0075DC00C2D930D8AC
:100813001275DC0275D21075D41275E300C2DAC208
:10082300D9C2D830DA04C2DA800375D8FFD0D0D069
:1008330082D083D0F0D0E032900126EFF0E4900034
:100843004CF0EFC394614036900126E0D3947A5084
:100853002D900093E030E11DE490005EF090004E97
:100863007439F012146590005EE060FA1214569029
:10087300005EE060FA900126E024A3020B2F9001B2
:1008830026E0FFC394414033EFD3945A502D900098
:1008930093E020E11DE490005EF090004E7439F087
:1008A30012146590005EE060FA12145690005EE048
:1008B30060FA900126E024C3020B2F900126E0FF8B
:1008C300C39431400CEFD394395006E024ED020B6E
:1008D3002F900126E0FFB4300790004E7427F022DA
:1008E300EFD3942F40030209AAEFB4200790004EE0
:1008F300742CF022EFB4210890004E741E020AA05B
:10090300EFB4220890004E7434020AA0EFB4230817
:1009130090004E7420020AA0EFB4240890004E7495
:1009230021020AA0EFB4250890004E7422020AA007
:10093300EFB4260890004E7424020AA0EFB42707F0
:1009430090004E7434F022EFB4280890004E7426C1
:10095300020AA0EFB4290890004E7427020AA0EF00
:10096300B42A0890004E7425020AA0EFB42B089015
:10097300004E742E020AA0EFB42C0790004E74367A
:10098300F022EFB42D0790004E742DF022EFB42E19
:100993000790004E7437F022EF642F6003020B358B
:1009A30090004E7438F022EFD3943F5058EFB43A8E
:1009B3000790004E74338044900126E0FFB43B0758
:1009C30090004E7433F022EFB43C0790004E74361F
:1009D300802A900126E0FFB43D0790004E742EF06C
:1009E30022EFB43E0790004E74378010900126E04A
:1009F300643F6003020B3590004E7438F090004C56
:100A0300E04402F022900126E0FFB4400890004E3B
:100A1300741F020AA0EFC3945B404CEFD394605061
:100A230046EFB45B0790004E742FF022EFB45C07DF
:100A330090004E7431F022EFB45D0790004E743095
:100A4300F022EFB45E0790004E74238050EFB45F42
:100A53000790004E742D8045EF64606003020B35F0
:100A630090004E7435F022EFC3947B4047EFD3944C
:100A73007F5041EFB47B0790004E742F801FEFB47B
:100A83007C0790004E74318014EFB47D0790004EC4
:100A930074308009EFB47E0D90004E7435F09000F1
:100AA3004C7402F022EF647F6003020B3590004E1A
:100AB300744CF022EFC394804020EFD39487501AF4
:100AC300EF540F900126F0E0FFC8EFC874010880CF
:100AD30002C333D8FC90004CF022900126E0FFC300
:100AE30094D7400BEFD394DA5005E02478803D90FF
:100AF3000126E0FFC394B0400BEFD394B35005E05D
:100B030024788028900126E0FFC394D1400BEFD3D3
:100B130094D55005E024788013900126E0FFC39418
:100B2300C1400FEFD394CD5009E02478F0E090005A
:100B33004EF022900126EBF0A3EAF0A3E9F0E4A340
:100B4300F0A3F0A3F0A3F0A3F0A3F0900129F0A386
:100B5300F0900129E0FEA3E0FFC39405EE9400406A
:100B630003020C35900126E0FBA3E0FAA3E0F98F22
:100B7300828E831201557003020C13E490012BF053
:100B8300A3F0900126E0FBA3E0FAA3E0F9A3E0FEC3
:100B9300A3E0F5828E83120155FD7C0090012BE0CA
:100BA300FAA3E0FBFF7E007401A807088005C333A6
:100BB300CE33CED8F9FFEE5CFEEF5D4E6030EB2511
:100BC300E0FDEA33FC900129E0FEA3E07803C333A0
:100BD300CE33CED8F924EEF58274003EF583E58258
:100BE3002DF582E5833CF583A3E0FF1212219001EA
:100BF3002CE004F0700690012BE004F0C390012C6C
:100C0300E0940490012BE094005003020B85800EC6
:100C130090012EE004F0700690012DE004F09001A5
:100C23002AE004F06003020B54900129E004F0026F
:100C33000B54C390012EE0940590012DE0940040E5
:100C430005E4FF12122122C105602800EE005300C3
:100C53005400550056005F006000610057005C00BF
:100C63005D005E00000059005A005B000000620056
:100C73000000630058420133000041013501420185
:100C830037000041013901C18604100000000060F3
:100C93003E00AC05010906A101050719E029E71586
:100CA300002501750195088102950175088101955B
:100CB3000375010508190129039102950575019131
:100CC300019506750826FF00050719002991810083
:100CD300C052005F12010002000000083D410721DD
:100CE30000000000000160220071090222000101DE
:100CF30000A03209040000010300000009211101D2
:100D03000001223E000705810308000148004C0052
:100D13000000000000000048005600000000000032
:100D23000000480097000000000000000042009F00
:100D3300000042009500004200A200004100A10013
:100D4300410094004100ED004100550041005E0068
:100D5300410054004100930000EFC394085058ED44
:100D630014601E14602C14603C24036003020E20E4
:100D7300A8077401088002C333D8FCF4529252933B
:100D830022A8077401088002C333D8FCFEF45292F0
:100D93008021A8077401088002C333D8FCFE429265
:100DA300EEF4529322A8077401088002C333D8FCDF
:100DB300FE4292EE429322EFD394084060ED14601A
:100DC3001E14602F14604224037052EF24F7FEF8C0
:100DD3007401088002C333D8FCF45296529722EF71
:100DE30024F7FEF87401088002C333D8FCFEF452E2
:100DF300968027EF24F7FEF87401088002C333D8E6
:100E0300FCFE4296EEF4529722EF24F7FEF87401AB
:100E1300088002C333D8FCFE4296EE42972290012B
:100E230026EBF0A3EAF0A3E9F0C204E490012DF06D
:100E3300A3F030030FD2051214DA900140EEF0A3B1
:100E4300EFF08073300570900140E0FEA3E0FF12E5
:100E530013F6C3EF9405EE9400405C90012CE0FF81
:100E6300A3E4F0A3EFF090012DE0FEA3E0FF9001D7
:100E730029E0FBA3E0FAA3E0F8AC02AD039001265E
:100E8300E0FBA3E0FAA3E0F9120450EF602790011E
:100E93002DE0FEA3E0FF900129E0FBA3E0FAA3E02D
:100EA300F8AC02AD03900126E0FBA3E0FAA3E0F95E
:100EB300120116D204C205A204227D037F09120D7A
:100EC3005C7D037F0A120D5C7D037F04120D5C7D44
:100ED300037F0B120D5C7D037F02120D5C7D037F8C
:100EE30003120D5C7D037F0E120D5C7D037F0C12DC
:100EF3000D5C7D03E4FF120D5CD2037F0912128D9A
:100F0300D2037F0A12128DD2037F0412128DD203F1
:100F13007F0B12128DD2037F0212128DD2037F0335
:100F230012128DD2037F0E12128DD2037F0C121276
:100F33008DD203E4FF12128D7E007F057D007B01BD
:100F43007A0179201204747E007F057D007B017A8B
:100F530001791B020474787FE4F6D8FD75812002C1
:100F63000FA0021427E493A3F8E493A34003F680AD
:100F730001F208DFF48029E493A3F85407240CC892
:100F8300C333C4540F4420C8834004F4568001463D
:100F9300F6DFE4800B0102040810204080900C4A25
:100FA300E47E019360BCA3FF543F30E509541FFE68
:100FB300E493A360010ECF54C025E060A840B8E4D9
:100FC30093A3FAE493A3F8E493A3C8C582C8CAC55C
:100FD30083CAF0A3C8C582C8CAC583CADFE9DEE7EE
:100FE30080BEC200C201C20230061EC2061215AB89
:100FF30090013AEBF0A3EAF0A3E9F01215B29001E5
:101003003DEBF0A3EAF0A3E9F012150012154D929F
:101013000030000B7BFF7A1579C0E4FF12138E902A
:10102300013DE0F9A3E0FAA3E0900129C9F0A3EAA6
:10103300F0A3E9F0A37405F0A200920390013AE053
:10104300FBA3E0FAA3E0F9120E21920130010E9006
:10105300013DE0FBA3E0FAA3E0F9120B3622900076
:1010630095E0FEA3E02497F58274003EF583E0FF4C
:10107300B4E12890004C7402F0900096E004F07004
:1010830006900095E004F0C3900096E09408900069
:1010930095E094004040E4F0A3F02212083B900056
:1010A30096E004F07006900095E004F0C39000967B
:1010B300E09408900095E094004004E4F0A3F0E489
:1010C30090005EF012146590005EE060FA12145610
:1010D30090005EE060FA22C2037F0912128D7F0244
:1010E3001212DF900120E040054401F0800354FE1A
:1010F300F07F031212DF900121E040054408F080E5
:101103000354F7F07F0E1212DF900122E0400544F2
:1011130001F0800354FEF07F0C1212DF900123E0F4
:1011230040054404F0800354FBF0E4FF1212DF9007
:101133000124E040054401F0800354FEF0D2037F14
:101143000902128DC2037F0A12128D7F021212DF6F
:10115300900120E040054402F0800354FDF07F033A
:101163001212DF900121E040054404F0800354FB98
:10117300F07F0E1212DF900122E040054402F0805E
:101183000354FDF07F0C1212DF900123E04005446D
:1011930002F0800354FDF0E4FF1212DF900124E01B
:1011A30040054404F0800354FBF0D2037F0A02128B
:1011B3008DC2037F0412128D7F021212DF90012071
:1011C300E040054404F0800354FBF07F031212DF78
:1011D300900121E040054402F0800354FDF07F0EAE
:1011E3001212DF900122E040054404F0800354FB17
:1011F300F07F0C1212DF900123E040054401F080E0
:101203000354FEF0E4FF1212DF900124E040054492
:1012130008F0800354F7F0D2037F0402128DEFC36A
:1012230094E0400CEFD394E7500690004CEFF0228B
:1012330090004EEFF0C8744CC8CC7400CCCD740150
:10124300CD7B017A0079567E007F08120450EF604F
:1012530010E490005EF012146590005EE060FAE422
:10126300F0C87456C8CC7400CCCD7401CD7B017A20
:1012730000794C7E007F081201167E007F087D00F6
:101283007B017A00794C12047422EFC39408502036
:1012930030030EA8077401088002C333D8FC4290C0
:1012A30022A8077401088002C333D8FCF4529022A9
:1012B300EFD394084025300311EF24F7FFF87401AE
:1012C300088002C333D8FC42B022EF24F7FFF8743E
:1012D30001088002C333D8FCF452B022EFC3940850
:1012E30050157E007401A807088005C333CE33CEA2
:1012F300D8F9FFAD90801DEFD39408401CEF24F77D
:10130300FF7E007401A807088005C333CE33CED80F
:10131300F9FFADB0EF5D24FF22C322C2EAE4F5E298
:10132300CE7400CECF7400CF8EED8FECCE7400CE92
:10133300CF740ACF8EEF8FEE75EA6775DC0275D234
:1013430042F5E375D18075E22943D10175D8FF7564
:10135300E107D2EA22C0E0C0F0C083C082C0D075EA
:10136300D018E5132401F513E43512F512E4351111
:10137300F511E43510F5107DE87C03E4FF121485C4
:10138300D0D0D082D083D0F0D0E032900126EBF0E1
:10139300A3EAF0A3E9F0EF7027900126E0FBA3E0B6
:1013A300FAA3E0F912013C6017900126A3E475F05B
:1013B30001120198A9F0FA12013CFF12000380D92F
:1013C30022EF7009E58954F04DF5898023EFB401CC
:1013D30010AF05EFC454F0FFE589540F4FF5898032
:1013E3000FEFB40208C2CDC2CCC2C880037FFF2274
:1013F3007F0022AB07AA067F01D2AEEF6014AF13C2
:10140300AE12AD11AC1090012F12028DE4FFC2AEEB
:1014130080E990012FA3A3E0FEA3E0FFC3EF9BFFAE
:10142300EE9AFE2212157A7F147E001215361213DD
:101433001E121564E4FF1215BD7F0112151F120E53
:10144300BDD2AFD28C12158C120FE51214B3121544
:10145300B980F5E4F0FE7F08FD7B017A00794C1238
:101463000474C8740AC8CC7400CCCD7401CD7B015C
:101473007A00794C7E007F0812011675D30853D287
:10148300FC22C3E49DFDE49CFCEF7007EDF58AECC0
:10149300F58C22EFB40107EDF58BECF58D22EFB45B
:1014A300020DAF05EDF5CC8FCAECFFF5CD8FCB2246
:1014B3009000EDE06020D39000A0E0940090009FA6
:1014C300E0940040111210619000A0E024FFF0901E
:1014D300009FE034FFF0227F01D2AEEF6014AF1320
:1014E300AE12AD11AC1090012F12028DE4FFC2AE0B
:1014F30080E990012FA3A3E0FEA3E0FF2278167CEE
:10150300017D017B017A0179207E007F051201169E
:101513001210DA1211471211B402000E75A155759B
:10152300A1AAEF600543B101800353B1FEE4F5A125
:10153300F5FF22AD07AC06ED4C600E7FE87E03128B
:10154300159DED1D70F11C80EE2278167C017D0146
:101553007B017A0179207E007F05120450EF24FF7E
:101563002253C9EF7D01E4FF1213C47DE87C03E439
:10157300FF121485D2A92275A15575A1AAE5B95404
:10158300F84404F5B9E4F5A122E4F5D390005EF044
:101593009000EDF090009304F022EF4E600905A156
:1015A300EF1F70F61E80F3227B017A017920227BE4
:1015B300017A01791B22E4F5FF228FFF2254727511
:0415C300650D0A00A8
:00000001FF
