:0A000000020C367B017A01794A22D6
:10000B0002104EC87465C8CC7400CCCD7401CD7B86
:10001B00017A00794C7E007F091201167E007F0960
:10002B007D007B017A00794C12048090004C7401A6
:10003B00F09000A67403F0220204ACE709F608DF87
:10004B00FA8046E709F208DFFA803E88828C83E764
:10005B0009F0A3DFFA8032E309F608DFFA8078E3D0
:10006B0009F208DFFA807088828C83E309F0A3DF42
:10007B00FA806489828A83E0A3F608DFFA805889C4
:10008B00828A83E0A3F208DFFA804C80D280FA8068
:10009B00C680D4806980F28033801080A680EA808D
:1000AB009A80A880DA80E280CA803389828A83ECC6
:1000BB00FAE493A3C8C582C8CCC583CCF0A3C8C54A
:1000CB0082C8CCC583CCDFE9DEE7800D89828A83C9
:1000DB00E493A3F608DFF9ECFAA9F0EDFB22898291
:1000EB008A83ECFAE0A3C8C582C8CCC583CCF0A345
:1000FB00C8C582C8CCC583CCDFEADEE880DB898249
:10010B008A83E493A3F208DFF980CC88F0EF6001D7
:10011B000E4E60C388F0ED2402B4040050B9F58292
:10012B00EB2402B4040050AF2323458223900096A6
:10013B0073BB010689828A83E0225002E722BBFE51
:10014B0002E32289828A83E49322BB010CE5822994
:10015B00F582E5833AF583E0225006E92582F8E63D
:10016B0022BBFE06E92582F8E222E58229F582E52B
:10017B00833AF583E49322C5F0F8A3E028F0C5F0A9
:10018B00F8E582158270021583E038F022A3F8E0BF
:10019B00C5F025F0F0E582158270021583E0C838B2
:1001AB00F0E82275F008758200EF2FFFEE33FECDDD
:1001BB0033CDCC33CCC58233C5829BED9AEC99E51C
:1001CB008298400CF582EE9BFEED9AFDEC99FC0FAC
:1001DB00D5F0D6E4CEFBE4CDFAE4CCF9A88222B874
:1001EB0000C1B90059BA002DEC8BF084CFCECDFCF9
:1001FB00E5F0CBF97818EF2FFFEE33FEED33FDEC86
:10020B0033FCEB33FB10D703994004EB99FB0FD86E
:10021B00E5E4F9FA227818EF2FFFEE33FEED33FD0C
:10022B00EC33FCC933C910D7059BE99A4007EC9B0B
:10023B00FCE99AF90FD8E0E4C9FAE4CCFB2275F09B
:10024B0010EF2FFFEE33FEED33FDCC33CCC833C8AC
:10025B0010D7079BEC9AE899400AED9BFDEC9AFCB2
:10026B00E899F80FD5F0DAE4CDFBE4CCFAE4C8F961
:10027B0022EB9FF5F0EA9E42F0E99D42F0E89C45A7
:10028B00F022ECF0A3EDF0A3EEF0A3EFF022A882A6
:10029B008583F0D083D0821202B01202B01202B06A
:1002AB001202B0E473E493A3C583C5F0C583C8C53C
:1002BB0082C8F0A3C583C5F0C583C8C582C822A474
:1002CB002582F582E5F03583F58322E3F5F009E22B
:1002DB0008B5F06BDFF58067E3F5F009E608B5F0DC
:1002EB005EDFF5805A87F009E608B5F052DFF6803D
:1002FB004E87F009E208B5F046DFF6804288828C23
:10030B008387F009E0A3B5F036DFF6803288828C64
:10031B008387F009E493A3B5F025DFF5802188826C
:10032B008C83E3F5F009E0A3B5F014DFF5801088BA
:10033B00828C83E3F5F009E493A3B5F002DFF402BA
:10034B000405808780E9809080D4803E8015806E84
:10035B00807E809D80B7808D80A380518074803C8F
:10036B0002041189828A83ECFAE493F5F0A3C8C5E1
:10037B0082C8CCC583CCE493A3C8C582C8CCC58343
:10038B00CCB5F076DFE3DEE1807089828A83E4937B
:10039B00F5F0A3E208B5F062DFF4805E89828A8310
:1003AB00E0F5F0A3E608B5F051DFF5804D89828AC0
:1003BB0083E0F5F0A3E208B5F040DFF5803C8982DD
:1003CB008A83E493F5F0A3E608B5F02EDFF4802AD8
:1003DB008002805789828A83ECFAE493F5F0A3C8F4
:1003EB00C582C8CCC583CCE0A3C8C582C8CCC583A5
:1003FB00CCB5F006DFE4DEE280007FFFB5F0020F44
:10040B002240027F012289828A83ECFAE0F5F0A375
:10041B00C8C582C8CCC583CCE0A3C8C582C8CCC52F
:10042B0083CCB5F0D5DFE5DEE380CF89828A83EC20
:10043B00FAE0F5F0A3C8C582C8CCC583CCE493A37E
:10044B00C8C582C8CCC583CCB5F0AFDFE4DEE28093
:10045B00A988F0EF60010E4E60ABED2402B40400EE
:10046B005098F582EB2402B40400508E232345826E
:10047B002390034D73EF4E6012EF60010EEDBB0145
:10048B000B89828A83F0A3DFFCDEFA2289F0500706
:10049B00F709DFFCA9F022BBFEFCF309DFFCA9F096
:1004AB0022C0E0C0F0C083C082C0D075D00820D974
:1004BB000302081DE5D9543F70030207F924E070CD
:1004CB000302077F14601924F16029240E600302D4
:1004DB00081B75D500E5D454FC4402F5D402081B67
:1004EB0075D300E5D254FC4402F5D290006E740132
:1004FB00F002081B90014FE5DBF0E064086003029B
:10050B000752900006E09000A4F0900007E07009FD
:10051B009000A4E0D3947F40069000A4747FF090E9
:10052B00014FE4F0900001E09000A5F0900000E096
:10053B005460601A9000A5E01424FD400302075894
:10054B0024FB24FD40030207588000020752900051
:10055B00A5E0B40B00400302075090056CF8282867
:10056B00730207330206830207500206BD020750CF
:10057B0002065002058D02075002065B0206780246
:10058B000758900003E024FE601E24E06030242115
:10059B00704D9001067401F0A37400F0A3746FF01A
:1005AB0090014F7412F0803D9001067401F0A3741A
:1005BB0000F0A37481F090014F7422F0802790001B
:1005CB0004E0701B90010604F0A37400F0A374A761
:1005DB00F090014F745FF09001177401F08006905A
:1005EB00014F74FFF090014FE0FF9000A4E0D39F08
:1005FB004002EFF09000A4E0FFC3940840077E0890
:10060B00CFEECF800090014FEFF07E00C87400C892
:10061B00CC7400CCCD7401CD900106E0FBA3E0FAC5
:10062B00A3E0F91201169000A4E0FF90014FE0FE49
:10063B00C3EF9E9000A4F0EEFF900107E48FF01241
:10064B000182020758900002E09000A4F0020758C4
:10065B00900063E0900000F09000A4E0C394015080
:10066B000302075890014F7401F0020758900002E3
:10067B00E0900063F0020758900000E0541F640202
:10068B00702D900004E014601D2480600E14701C0B
:10069B00E5D454BC4402F5D4020758E5D254BC440B
:1006AB0002F5D202075853D27302075802075202BF
:1006BB000752900000E0541FFD701B900003E0FEFA
:1006CB00900002E0FBEB64014E7009900088E02083
:1006DB00E57B80738071ED6402704B900003E0FE4C
:1006EB00900002E0FDED4E703B900005E0FE9000A7
:1006FB0004E0FDEDFFEE702AEF24FE601124816013
:10070B001714701EE5D454BF4403F5D4803FE5D4D1
:10071B00547F440CF5D48035E5D254BF4403F5D255
:10072B00802B80238021801F900000E4F0A3F090A9
:10073B0000A4E0FFC3940290014F40057402F080C7
:10074B000CEFF08008800090014F74FFF090014F88
:10075B00E0FFB4FF0C9000A574FFF075DCCF02082E
:10076B001BEFD3940850048FDD800375DD0075DC1F
:10077B00C002081B9000A5E024FB605C147067901E
:10078B0000A4E0FFC3940840077E08CFEECF8000A3
:10079B0090014FEFF07E00C87400C8CC7400CCCD34
:1007AB007401CD900106E0FBA3E0FAA3E0F912017E
:1007BB00169000A4E0FF90014FE0FEC3EF9E900067
:1007CB00A4F0EEFF900107E48FF012018290014F2D
:1007DB00E0F5DD63DC408038E5E35480FF9000A456
:1007EB00E04FF5E3800375DD0075DC02802290019C
:1007FB004FE5DBF09000A5E0B4090F90014FE0B49A
:10080B000108900000E09000A3F075DD0075DC009E
:10081B00C2D930D81275DC0275D21075D41275E3BB
:10082B0000C2DAC2D9C2D830DA04C2DA800375D872
:10083B00FFD0D0D082D083D0F0D0E032C105602879
:10084B0001180053005400550056005F0060006112
:10085B000057005C005D005E00000059005A005B11
:10086B0000000062000000630058605F00A70501F4
:10087B000906A1018501050719E029E715002501E6
:10088B007501950881029501750881019503750124
:10089B00050819012903910295057501910195062A
:1008AB00750826FF000507190029918100C0050175
:1008BB000906A10185020507190429671500250101
:1008CB00750195638102750195058103C052006F17
:1008DB0012010002000000083D410721000000004A
:1008EB0000016022008109022200010100A03209EF
:1008FB000400000103000000092111010001225F27
:10090B00000705810320000149004C000000000096
:10091B00000000004900650000000000000000001E
:10092B004E01090000000000000000000000000064
:10093B00004E005500000000000000000000000009
:10094B0000004100A6034100A5004100A4004101A5
:10095B0017004100640041006E004100630041003C
:10096B00A30042015D000041015F014201610000F3
:10097B0041016301C18604100000000000EFC39425
:10098B00085058ED14601E14602C14603C24036056
:10099B0003020A4CA8077401088002C333D8FCF485
:1009AB005292529322A8077401088002C333D8FCD9
:1009BB00FEF452928021A8077401088002C333D839
:1009CB00FCFE4292EEF4529322A8077401088002B7
:1009DB00C333D8FCFE4292EE429322EFD3940840ED
:1009EB0060ED14601E14602F14604224037052EFEC
:1009FB0024F7FEF87401088002C333D8FCF4529636
:100A0B00529722EF24F7FEF87401088002C333D803
:100A1B00FCFEF452968027EF24F7FEF87401088051
:100A2B0002C333D8FCFE4296EEF4529722EF24F722
:100A3B00FEF87401088002C333D8FCFE4296EE42E6
:100A4B009722900150EBF0A3EAF0A3E9F0E4A3F0B6
:100A5B00A3F0900153F0900153E0FFC394054003C2
:100A6B00020AFD900150E0FBA3E0FAA3E0F98F82AC
:100A7B007583001201556071E4900154F09001549C
:100A8B00E0FFC394045062900150E0FBA3E0FAA393
:100A9B00E0F9A3E0F582758300120155FD7C007E21
:100AAB00007401A807088005C333CE33CED8F9FFF5
:100ABB00EE5CFEEF5D4E6029900153E075F008A4EB
:100ACB002418F582E43401F583C083C0829001546D
:100ADB00E0D082D08375F0021202CAA3E0FF12129B
:100AEB0077900154E004F08094900153E004F002FD
:100AFB000A6122900150EBF0A3EAF0A3E9F0C204E3
:100B0B00E4900157F0A3F030030FD2051211D790E8
:100B1B00016AEEF0A3EFF0807330057090016AE08C
:100B2B00FEA3E0FF12111DC3EF9405EE9400405C91
:100B3B00900156E0FFA3E4F0A3EFF0900157E0FE25
:100B4B00A3E0FF900153E0FBA3E0FAA3E0F8AC02B3
:100B5B00AD03900150E0FBA3E0FAA3E0F912045CB3
:100B6B00EF6027900157E0FEA3E0FF900153E0FBFD
:100B7B00A3E0FAA3E0F8AC02AD03900150E0FBA3B5
:100B8B00E0FAA3E0F9120116D204C205A204227DF9
:100B9B00037F091209887D037F0A1209887D037F71
:100BAB00041209887D037F0B1209887D037F0212D3
:100BBB0009887D037F031209887D037F0E12098844
:100BCB007D037F0C1209887D03E4FF120988D20391
:100BDB007F09120EE8D2037F0A120EE8D2037F04BC
:100BEB00120EE8D2037F0B120EE8D2037F02120E15
:100BFB00E8D2037F03120EE8D2037F0E120EE8D267
:100C0B00037F0C120EE8D203E4FF120EE87E007F86
:100C1B00057D007B017A01794A1204807E007F05F5
:100C2B007D007B017A017945020480787FE4F6D858
:100C3B00FD758120020C7D0211ABE493A3F8E493C4
:100C4B00A34003F68001F208DFF48029E493A3F8B4
:100C5B005407240CC8C333C4540F4420C883400426
:100C6B00F456800146F6DFE4800B010204081020E5
:100C7B004080900847E47E019360BCA3FF543F3053
:100C8B00E509541FFEE493A360010ECF54C025E089
:100C9B0060A840B8E493A3FAE493A3F8E493A3C841
:100CAB00C582C8CAC583CAF0A3C8C582C8CAC583D2
:100CBB00CADFE9DEE780BEC200C201C20230061EF7
:100CCB00C206120003900164EBF0A3EAF0A3E9F073
:100CDB001212BC900167EBF0A3EAF0A3E9F012113A
:100CEB00FD12121C9200900167E0F9A3E0FAA3E059
:100CFB00900153C9F0A3EAF0A3E9F0A37405F0A2A5
:100D0B00009203900164E0FBA3E0FAA3E0F9120A5E
:100D1B00FE9201300111900167E0FBA3E0FAA3E022
:100D2B00F9120A4D120D3322C8744CC8CC7400CC86
:100D3B00CD7401CD7B017A0079657E007F091204A9
:100D4B005CEF6018E490006EF07B017A00794C7DCB
:100D5B00091210B890006EE060FAE4F0C87409C88C
:100D6B00CC7401CCCD7401CD7B017A0079557E001A
:100D7B007F0E12045CEF6018E490006EF07B017A3A
:100D8B000179097D0E1210B890006EE060FAE4F064
:100D9B0012000E02114EC2037F09120EE87F0212DF
:100DAB000FD590014AE040054401F0800354FEF05A
:100DBB007F03120FD590014BE040054408F08003F0
:100DCB0054F7F07F0E120FD590014CE04005440113
:100DDB00F0800354FEF07F0C120FD590014DE040D4
:100DEB00054404F0800354FBF0E4FF120FD590018F
:100DFB004EE040054401F0800354FEF0D2037F091E
:100E0B00020EE8C2037F0A120EE87F02120FD59082
:100E1B00014AE040054402F0800354FDF07F0312C9
:100E2B000FD590014BE040054404F0800354FBF0D8
:100E3B007F0E120FD590014CE040054402F0800369
:100E4B0054FDF07F0C120FD590014DE0400544028C
:100E5B00F0800354FDF0E4FF120FD590014EE040FB
:100E6B00054404F0800354FBF0D2037F0A020EE822
:100E7B00C2037F04120EE87F02120FD590014AE0E5
:100E8B0040054404F0800354FBF07F03120FD59010
:100E9B00014BE040054402F0800354FDF07F0E123D
:100EAB000FD590014CE040054404F0800354FBF057
:100EBB007F0C120FD590014DE040054401F08003EB
:100ECB0054FEF0E4FF120FD590014EE040054408AC
:100EDB00F0800354F7F0D2037F04020EE8EFC394C3
:100EEB0008502030030EA8077401088002C333D8C2
:100EFB00FC429022A8077401088002C333D8FCF48B
:100F0B00529022EFD394084025300311EF24F7FFC2
:100F1B00F87401088002C333D8FC42B022EF24F7E7
:100F2B00FFF87401088002C333D8FCF452B022904E
:100F3B0001097402F074FC2FFFD394075015A3E042
:100F4B00FEC8EFC87401088002C333D8FC4E900171
:100F5B000AF022EF131313541F240AF582E4340111
:100F6B00F583C083C082E0FEEF5407FFC8EFC8745F
:100F7B0001088002C333D8FC4ED082D083F022907C
:100F8B00004C7401F0EFC394E04020EFD394E75092
:100F9B001AA3E0FEEF2420FFC8EFC87401088002FB
:100FAB00C333D8FC4E90004DF0D3229000A6E0FE48
:100FBB00D39408400122744C2EF582E43400F5835F
:100FCB00EFF09000A6E004F0D322EFC39408501585
:100FDB007E007401A807088005C333CE33CED8F941
:100FEB00FFAD90801DEFD39408401CEF24F7FF7EDC
:100FFB00007401A807088005C333CE33CED8F9FFA0
:10100B00ADB0EF5D24FF22C322C2EAE4F5E2CE7459
:10101B0000CECF7400CF8EED8FECCE7400CECF749C
:10102B000ACF8EEF8FEE75EA6775DC0275D242F54B
:10103B00E375D18075E22943D10175D8FF75E107BE
:10104B00D2EA22C0E0C0F0C083C082C0D075D018F5
:10105B00E5132401F513E43512F512E43511F511FE
:10106B00E43510F5107DE87C03E4FF12117DD0D040
:10107B00D082D083D0F0D0E032C2037F0B120EE8C7
:10108B007F02120FD590014AE040054408F080031F
:10109B0054F7F07F03120FD590014BE0400544014C
:1010AB00F0800354FEF0D2037F0B020EE890015048
:1010BB00EDF0FF7E00EBC0E0EAC0E0E9C0E0C874F1
:1010CB000AC8CC7400CCCD7401CDD0E0F9D0E0FAD5
:1010DB00D0E0FB120116900150E0F5D353D2FC2265
:1010EB00EF7009E58954F04DF5898023EFB40110B9
:1010FB00AF05EFC454F0FFE589540F4FF589800F0E
:10110B00EFB40208C2CDC2CCC2C880037FFF227FDE
:10111B000022AB07AA067F01D2AEEF6014AF13AE6D
:10112B0012AD11AC1090015912028DE4FFC2AE80CA
:10113B00E9900159A3A3E0FEA3E0FFC3EF9BFFEEF1
:10114B009AFE22C87455C8CC7400CCCD7401CD7BEB
:10115B00017A0179097E007F0E1201167E007F0E47
:10116B007D007B017A0179091204809001097402D8
:10117B00F022C3E49DFDE49CFCEF7007EDF58AECD7
:10118B00F58C22EFB40107EDF58BECF58D22EFB466
:10119B00020DAF05EDF5CC8FCAECFFF5CD8FCB2251
:1011AB0012128B7F147E0012124A1210141212614B
:1011BB00E4FF1212C77F01121233120B9AD2AFD275
:1011CB008C12129D120CC21212C380F87F01D2AE88
:1011DB00EF6014AF13AE12AD11AC109001591202A7
:1011EB008DE4FFC2AE80E9900159A3A3E0FEA3E01A
:1011FB00FF2278407C017D017B017A01794A7E00D8
:10120B007F05120116120DA1120E0E120E7B02108B
:10121B008478407C017D017B017A01794A7E007FD5
:10122B000512045CEF24FF2275A15575A1AAEF608E
:10123B000543B101800353B1FEE4F5A1F5FF22ADE7
:10124B0007AC06ED4C600E7FE87E031212AEED1D6F
:10125B0070F11C80EE2253C9EF7D01E4FF1210EBFD
:10126B007DE87C03E4FF12117DD2A922CDEFCDCF17
:10127B00CF120F8A9203200306CFEDCF120F3A2223
:10128B0075A15575A1AAE5B954F84404F5B9E4F56F
:10129B00A122E4F5D390006EF0900117F09000A31B
:1012AB0004F022EF4E600905A1EF1F70F61E80F3CC
:0F12BB00227B017A01794522E4F5FF228FFF2281
:00000001FF
