:10000000020F8543C61022E4F5FF2202131375A1E7
:100010005575A1AAE5B954F84404F5B9E4F5A1224F
:100020008FFF2202147D75A15575A1AAEF600543CB
:0D003000B101800353B1FEE4F5A1F5FF22FC
:10004300020046C0E0C0F0C083C082C0D075D008B3
:1000530020D9030203B9E5D9543F70030203952461
:10006300E0700302031B14601924F16029240E605D
:10007300030203B775D500E5D454FC4402F5D4025A
:1000830003B775D300E5D254FC4402F5D290005671
:100093007401F00203B79000E6E5DBF0E06408606A
:1000A300030202EE900006E090008CF0900007E05F
:1000B300700990008CE0D3947F400690008C747F8D
:1000C300F09000E6E4F0900001E0900099F09000D9
:1000D30000E05460601A900099E01424FD4003028C
:1000E30002F424FB24FD40030202F480000202EE2A
:1000F300900099E0B40B0040030202EC900106F873
:100103002828730202CF02021F0202EC02025902E4
:1001130002EC0201EC0201270202EC0201F70202E7
:10012300140202F4900003E024FE601E24E0603019
:100133002421704F9000E27401F0A37400F0A374C3
:1001430057F09000E67412F0803F9000E27401F0E3
:10015300A37400F0A37469F09000E67422F0802980
:10016300900004E0701D9000E204F0A37400F0A37B
:1001730074A4F09000E6743EF09000E57401F0D2B0
:10018300AC80069000E674FFF09000E6E0FF90007C
:100193008CE0D39F4002EFF090008CE0FFC3940803
:1001A30040077E08CFEECF80009000E6EFF07E00A0
:1001B300C87400C8CC7400CCCD7401CD9000E2E0CB
:1001C300FBA3E0FAA3E0F912081890008CE0FF907B
:1001D30000E6E0FEC3EF9E90008CF0EEFF9000E39C
:1001E300E48FF01208570202F4900002E090008CB2
:1001F300F00202F4900054E0900000F090008CE0D4
:10020300C3940150030202F49000E67401F0020269
:10021300F4900002E0900054F00202F4900000E039
:10022300541F6402702D900004E014601D2480604C
:100233000E14701CE5D454BC4402F5D40202F4E558
:10024300D254BC4402F5D20202F453D2730202F434
:100253000202EE0202EE900000E0541FFD701B90BC
:100263000003E0FE900002E0FBEB64014E70099096
:100273000070E020E57B80738071ED6402704B9029
:100283000003E0FE900002E0FDED4E703B900005A0
:10029300E0FE900004E0FDEDFFEE702AEF24FE6027
:1002A300112481601714701EE5D454BF4403F5D4A0
:1002B300803FE5D4547F440CF5D48035E5D254BF58
:1002C3004403F5D2802B80238021801F900000E41B
:1002D300F0A3F090008CE0FFC394029000E6400589
:1002E3007402F0800CEFF0800880009000E674FF49
:1002F300F09000E6E0FFB4FF0C90009974FFF075F6
:10030300DCCF0203B7EFD3940850048FDD8003756D
:10031300DD0075DCC00203B7900099E024FB605C4C
:1003230014706790008CE0FFC3940840077E08CFE9
:10033300EECF80009000E6EFF07E00C87400C8CCDA
:100343007400CCCD7401CD9000E2E0FBA3E0FAA3EE
:10035300E0F912081890008CE0FF9000E6E0FEC37D
:10036300EF9E90008CF0EEFF9000E3E48FF0120814
:10037300579000E6E0F5DD63DC408038E5E3548028
:10038300FF90008CE04FF5E3800375DD0075DC0220
:1003930080229000E6E5DBF0900099E0B4090F902D
:1003A30000E6E0B40108900000E090008BF075DDFA
:1003B3000075DC00C2D930D81275DC0275D2107515
:1003C300D41275E300C2DAC2D9C2D830DA04C2DA71
:1003D300800375D8FFD0D0D082D083D0F0D0E03264
:1003E300E52224EAF582E43400F583E00522229035
:1003F30000E73007039000EAE475F001120A0A02ED
:10040300083E2000E97F2ED2008018EF540F24907D
:10041300D43440D4FF30040BEF24BFB41A0050038C
:100423002461FFE523600215230526E526700205F6
:100433002530070E9000E7E475F001120A0AEF0277
:1004430009F80214307403D2078003E4C207F522CB
:100453009000E7120A21E4F523F525F526E523604C
:10046300077F2012042680F57524FFC201C200C253
:1004730002C203C205C206C2081203F2FF700D30A6
:1004830007057F00120437AF26AE2522B4255FC2CD
:10049300D5C2041203F2FF24D0B40A00501A75F037
:1004A3000A782330D50508B6FF0106C6A426F62030
:1004B300D5047002D20380D924CFB41A00EF5004BC
:1004C300C2E5D204020638D20180C6D20080C0D26F
:1004D3000280BCD2D580BAD20580B47F2012042614
:1004E3002002077401B5230040F11203E3FF120455
:1004F30026020460D208D20680951203E3FB12039E
:10050300E3FA1203E3F94A4B700679097A077BFF92
:1005130020022EE523602A7E008E82758300120955
:10052300CB60060EEE652470F0C2D5EBC0E0EAC0E6
:10053300E0E9C0E0EE12067FD0E0F9D0E0FAD0E0C7
:10054300FB12083EFF60AAEBC0E0EAC0E0E9C0E0AE
:10055300120426D0E02401F9D0E03400FAD0E0FB05
:10056300E5240460DCD524D980877BFF7A06797B78
:10057300D202809C791080027908C206C2088008E2
:10058300D2D5790A8004790AC2D5E524047002F52C
:1005930024E4FAFDFEFF1203E3FC7B08200113129F
:1005A30003E3FD7B1030000A1203E3FE1203E3FFB3
:1005B3007B20EC3382D592D55013C3E43000069FE1
:1005C300FFE49EFEE42001039DFDE49CFCE4CBF8E4
:1005D300C201EC700CCFCECDCCE824F8F870F380D8
:1005E30017C3EF33FFEE33FEED33FDEC33FCEB3398
:1005F300FB994002FB0FD8E9EB300105F8D0E0C4CA
:1006030048B201C0E00AEC4D4E4F78207B0070C227
:10061300EAB5240040BCC0E0120681D0F0D0E0204F
:100623000104C4C0E0C4B201C0F012040FD0F0D57D
:10063300F0EB020460120A2A04FD5305775804CE36
:100643004C04CA42057B4F05834405834904E343B5
:10065300058955056D46056D45056D470729500408
:10066300D22D04D62E04F92B04DA2304F720071223
:100673002A049248000004F13F3F3F00790AA2D5C3
:10068300200314300509B910020404B9080104A2B7
:10069300D52006025001042002689202B5230050BF
:1006A30034C0E07F203003197F30A2027206720546
:1006B300500F1206D8C202C206C205C2087F30809C
:1006C3000F300503E9C0E0120426300503D0E0F93A
:1006D300D0E0B523CC3005177F30B9100C120426B7
:1006E3007F583004077F788003B90803120426304B
:1006F30002057F2D0204267F202008F87F2B200689
:10070300F322920280CF286E756C6C2900D20112FD
:1007130003E33001F8C201782330D50108F602045F
:10072300922D504349581203E32403B405004001BA
:10073300E490072493120417743A120417D2037532
:100743002304020577E709F608DFFA8046E709F292
:1007530008DFFA803E88828C83E709F0A3DFFA8002
:1007630032E309F608DFFA8078E309F208DFFA805A
:100773007088828C83E309F0A3DFFA806489828A1C
:1007830083E0A3F608DFFA805889828A83E0A3F224
:1007930008DFFA804C80D280FA80C680D4806980DA
:1007A300F28033801080A680EA809A80A880DA8065
:1007B300E280CA803389828A83ECFAE493A3C8C5B2
:1007C30082C8CCC583CCF0A3C8C582C8CCC583CCB2
:1007D300DFE9DEE7800D89828A83E493A3F608DFED
:1007E300F9ECFAA9F0EDFB2289828A83ECFAE0A303
:1007F300C8C582C8CCC583CCF0A3C8C582C8CCC544
:1008030083CCDFEADEE880DB89828A83E493A3F288
:1008130008DFF980CC88F0EF60010E4E60C388F0EA
:10082300ED2402B4040050B9F582EB2402B40400B1
:1008330050AF232345822390079873BB0106898217
:100843008A83E0225002E722BBFE02E32289828AE6
:1008530083E49322C5F0F8A3E028F0C5F0F8E5821D
:10086300158270021583E038F022A3F8E0C5F02565
:10087300F0F0E582158270021583E0C838F0E822B3
:1008830075F008758200EF2FFFEE33FECD33CDCC2C
:1008930033CCC58233C5829BED9AEC99E5829840AF
:1008A3000CF582EE9BFEED9AFDEC99FC0FD5F0D68C
:1008B300E4CEFBE4CDFAE4CCF9A88222B800C1B9B6
:1008C3000059BA002DEC8BF084CFCECDFCE5F0CBF4
:1008D300F97818EF2FFFEE33FEED33FDEC33FCEB2D
:1008E30033FB10D703994004EB99FB0FD8E5E4F9E8
:1008F300FA227818EF2FFFEE33FEED33FDEC33FCD5
:10090300C933C910D7059BE99A4007EC9BFCE99AC8
:10091300F90FD8E0E4C9FAE4CCFB2275F010EF2F0D
:10092300FFEE33FEED33FDCC33CCC833C810D7070D
:100933009BEC9AE899400AED9BFDEC9AFCE899F848
:100943000FD5F0DAE4CDFBE4CCFAE4C8F922EB9F4F
:10095300F5F0EA9E42F0E99D42F0E89C45F022EC76
:10096300F0A3EDF0A3EEF0A3EFF022A8828583F0CD
:10097300D083D0821209851209851209851209854F
:10098300E473E493A3C583C5F0C583C8C582C8F0E7
:10099300A3C583C5F0C583C8C582C822EF4E6012C4
:1009A300EF60010EEDBB010B89828A83F0A3DFFCAC
:1009B300DEFA2289F05007F709DFFCA9F022BBFE1B
:1009C300FCF309DFFCA9F022BB010CE58229F582C7
:1009D300E5833AF583E0225006E92582F8E622BB57
:1009E300FE06E92582F8E222E58229F582E5833ACB
:1009F300F583E49322BB010689828A83F0225002A5
:100A0300F722BBFE01F322F8E0FBA3A3E0F925F0F4
:100A1300F0E582158270021583E0FA38F022EBF0DC
:100A2300A3EAF0A3E9F022D083D082F8E493701212
:100A3300740193700DA3A393F8740193F5828883D3
:100A4300E4737402936860EFA3A3A380DF9000E7CD
:100A5300EFF0E490004CF0EFC3946140369000E770
:100A6300E0D3947A502D90008BE030E11DE49000A8
:100A730056F090004E7439F01213BB900056E060AC
:100A8300FA1213AC900056E060FA9000E7E024A35A
:100A9300020D449000E7E0FFC394414033EFD39449
:100AA3005A502D90008BE020E11DE4900056F09009
:100AB300004E7439F01213BB900056E060FA121323
:100AC300AC900056E060FA9000E7E024C3020D44C6
:100AD3009000E7E0FFC39431400CEFD39439500604
:100AE300E024ED020D449000E7E0FFB430079000EE
:100AF3004E7427F022EFD3942F4003020BBFEFB4C1
:100B0300200790004E742CF022EFB4210890004E81
:100B1300741E020CB5EFB4220890004E7434020C1C
:100B2300B5EFB4230890004E7420020CB5EFB42443
:100B33000890004E7421020CB5EFB4250890004EC6
:100B43007422020CB5EFB4260890004E7424020CF4
:100B5300B5EFB4270790004E7434F022EFB42808A1
:100B630090004E7426020CB5EFB4290890004E7421
:100B730027020CB5EFB42A0890004E7425020CB579
:100B8300EFB42B0890004E742E020CB5EFB42C0773
:100B930090004E7436F022EFB42D0790004E742D62
:100BA300F022EFB42E0790004E7437F022EF642F3B
:100BB3006003020D4A90004E7438F022EFD3943F45
:100BC3005058EFB43A0790004E743380449000E7D6
:100BD300E0FFB43B0790004E7433F022EFB43C07C0
:100BE30090004E7436802A9000E7E0FFB43D0790F2
:100BF300004E742EF022EFB43E0790004E743780FF
:100C0300109000E7E0643F6003020D4A90004E74C9
:100C130038F090004CE04402F0229000E7E0FFB48B
:100C2300400890004E741F020CB5EFC3945B404C18
:100C3300EFD394605046EFB45B0790004E742FF0EF
:100C430022EFB45C0790004E7431F022EFB45D07DD
:100C530090004E7430F022EFB45E0790004E742380
:100C63008050EFB45F0790004E742D8045EF6460B1
:100C73006003020D4A90004E7435F022EFC3947B5B
:100C83004047EFD3947F5041EFB47B0790004E74FD
:100C93002F801FEFB47C0790004E74318014EFB4A3
:100CA3007D0790004E74308009EFB47E0D90004EA6
:100CB3007435F090004C7402F022EF647F600302FD
:100CC3000D4A90004E744CF022EFC394804020EF05
:100CD300D39487501AEF540F9000E7F0E0FFC8EF6A
:100CE300C87401088002C333D8FC90004CF02290F2
:100CF30000E7E0FFC394D7400BEFD394DA5005E04D
:100D03002478803D9000E7E0FFC394B0400BEFD31D
:100D130094B35005E0247880289000E7E0FFC39463
:100D2300D1400BEFD394D55005E024788013900085
:100D3300E7E0FFC394C1400FEFD394CD5009E02403
:100D430078F0E090004EF02242010F0000410111C3
:100D53000142011300004101150142011600004147
:100D6300011801042700000000603E00A4050109EA
:100D730006A101050719E029E7150025017501956D
:100D8300088102950175088101950375010508190C
:100D930001290391029505750191019506750826B0
:100DA300FF000507190029918100C0520057120165
:100DB3000002000000083D4107210000000000017F
:100DC3006022006909022200010100A03209040027
:100DD300000103000000092111010001223E000768
:100DE30005810308000148004C00000000000000DA
:100DF3000048008F00000000000000004200970040
:100E03000042008D000042009A0000410099004119
:100E1300008C004100E500410055004100560041AF
:100E230000540041008B0000EFC394085058ED14A8
:100E3300601E14602C14603C24036003020EEFA8B0
:100E4300077401088002C333D8FCF45292529322F0
:100E5300A8077401088002C333D8FCFEF4529280C1
:100E630021A8077401088002C333D8FCFE4292EE26
:100E7300F4529322A8077401088002C333D8FCFEFE
:100E83004292EE429322EFD394084060ED14601E29
:100E930014602F14604224037052EF24F7FEF87499
:100EA30001088002C333D8FCF45296529722EF24F0
:100EB300F7FEF87401088002C333D8FCFEF452969F
:100EC3008027EF24F7FEF87401088002C333D8FCAF
:100ED300FE4296EEF4529722EF24F7FEF8740108CF
:100EE3008002C333D8FCFE4296EE429722C29FD2C1
:100EF3009EC29DC2CDC2CC4387809000E712096E8B
:100F030000000082E47B0AFAF9F89000E7E0FCA312
:100F1300E0FDA3E0FEA3E0FF1208BF9000EBEBF0BF
:100F23009000E7E0FCA3E0FDA3E0FEA3E0FFE47B89
:100F33000AFAF9F81208BF9000E71209629000EB71
:100F4300E0C39405401F9000E7E0FCA3E0FDA3E0AD
:100F5300FEA3E02401FFE43EFEE43DFDE43CFC90FF
:100F630000E7120962E589540F4420F58943C9A0BB
:100F73009000E7A3A3A3E0F404F58DD28ED299D217
:100F83009C22787FE4F6D8FD75812A020FCC0211EA
:100F9300E0E493A3F8E493A34003F68001F208DFAF
:100FA300F48029E493A3F85407240CC8C333C4542E
:100FB3000F4420C8834004F456800146F6DFE480E2
:100FC3000B0102040810204080900D4BE47E019336
:100FD30060BCA3FF543F30E509541FFEE493A360B4
:100FE300010ECF54C025E060A840B8E493A3FAE40F
:100FF30093A3F8E493A3C8C582C8CAC583CAF0A360
:10100300C8C582C8CAC583CADFE9DEE780BED292FB
:10101300D293D2B5D2B3D290C29220B0037F002232
:1010230020B1037F01222094037F022220B2037F99
:101033000322D292C29320B0037F042220B1037F04
:1010430005222094037F062220B2037F0722D29336
:10105300C2B520B0037F082220B1037F0922209468
:10106300037F0A22D2B5C2B320B0037F0B2220B183
:10107300037F0C222094037F0D22D2B3C29020B0B1
:10108300037F0E2220B1037F0F222094037F1022BF
:10109300D2907FFF22900118E0600E121457900146
:1010A30016EEF0A3EFF0E4A3F0900116E0FEA3E048
:1010B300FF12137BD3EF9402EE9400402E12101113
:1010C300EFF4601CEF24FB600A24FC600A24FB603D
:1010D3000A800D7F3980067F3580027F301212D956
:1010E300121457900116EEF0A3EFF022EFC3940809
:1010F300502030000EA8077401088002C333D8FCC7
:10110300429022A8077401088002C333D8FCF4522A
:101113009022EFD394084025300011EF24F7FFF815
:101123007401088002C333D8FC42B022EF24F7FFD6
:10113300F87401088002C333D8FCF452B022900142
:1011430011E0601812145790010FEEF0A3EFF0E4D2
:10115300A3F0A37409F07D01FF120E2B90010FE0A1
:10116300FEA3E0FF12137BD3EF94E8EE9403401E3B
:10117300900112E0FF121221B39200900112E0FFDE
:101183001210EF12145790010FEEF0A3EFF022901C
:10119300008DE0FEA3E0248FF58274003EF583E02A
:1011A300FF120A5090008EE004F0700690008DE06C
:1011B30004F0C390008EE0940890008DE09400400A
:1011C30004E4F0A3F0E4900056F01213BB90005631
:1011D300E060FA1213AC900056E060FA2212000E9F
:1011E3007F147E001214A1120EF01200037BFF7A0B
:1011F3001479FA12044E12129F1214B8E4FF12006B
:10120300207F01120026121260D2AFD28C1214CEAC
:1012130012114112109812140912000780F2EFC341
:10122300940850157E007401A807088005C333CEC7
:1012330033CED8F9FFAD90801DEFD39408401CEF57
:1012430024F7FF7E007401A807088005C333CE335B
:10125300CED8F9FFADB0EF5D24FF22C3227D037F1B
:1012630002120E2B7D037F03120E2B7D037F0E12C2
:101273000E2B7D037F0C120E2B7D03E4FF120E2B2E
:101283007D037F09120E2B7D037F0A120E2B7D0334
:101293007F04120E2B7D037F0B020E2BC2EAE4F5B3
:1012A300E2CE7400CECF7400CF8EED8FECCE7400FF
:1012B300CECF740ACF8EEF8FEE75EA6775DC0275B9
:1012C300D242F5E375D18075E22943D10175D8FF88
:1012D30075E107D2EA2290009AE475F00112086DD5
:1012E300FC748F25F0F58274003CF583EFF09000D9
:1012F30098E004F07006900097E004F0C390009B20
:10130300E0940890009AE094004004E4F0A3F022F3
:10131300C0E0C0F0C083C082C0D075D018E52A24D5
:1013230001F52AE43529F529E43528F528E435279C
:10133300F5277DE87C03E4FF1213DBD0D0D082D005
:1013430083D0F0D0E032EF7009E58954F04DF58990
:101353008023EFB40110AF05EFC454F0FFE58954C7
:101363000F4FF589800FEFB40208C2CDC2CCC2C8BB
:1013730080037FFF227F0022AB07AA067F01D2AE44
:10138300EF6014AF2AAE29AD28AC279000E712090D
:1013930062E4FFC2AE80E99000E7A3A3E0FEA3E00E
:1013A300FFC3EF9BFFEE9AFE22E4F0FE7F08FD7B76
:1013B300017A00794C12099FC8740AC8CC7400CC16
:1013C300CD7401CD7B017A00794C7E007F08120831
:1013D3001875D30853D2FC22C3E49DFDE49CFCEFB3
:1013E3007007EDF58AECF58C22EFB40107EDF58B70
:1013F300ECF58D22EFB4020DAF05EDF5CC8FCAEC01
:10140300FFF5CD8FCB229000E5E06020D3900098CC
:10141300E09400900097E094004011121192900024
:1014230098E024FFF0900097E034FFF022EFB40A35
:1014330007740D12143B740A309811A899B8130C51
:10144300C2983098FDA899C298B811F63099FDC298
:1014530099F599227F01D2AEEF6014AF2AAE29AD80
:1014630028AC279000E7120962E4FFC2AE80E9903E
:1014730000E7A3A3E0FEA3E0FF22C0E0C0F0C08327
:10148300C082C0D075D010309807AF99C29812129D
:10149300D9C299D0D0D082D083D0F0D0E032AD077A
:1014A300AC06ED4C600E7FE87E031214DFED1D7079
:1014B300F11C80EE2253C9EF7D01E4FF1213497D35
:1014C300E87C03E4FF1213DBD2A922E4F5D39000F6
:1014D30056F09000E5F090008B04F022EF4E600987
:1014E30005A1EF1F70F61E80F322756172745F64AD
:0F14F300656275670D0A0073746172740D0A00EB
:00000001FF
