:0A000000020CFE7B017A0179322226
:10000B0002100AC2037F0B120F3F7F02120F919057
:10001B000132E040054408F0800354F7F07F0312EF
:10002B000F91900133E040054401F0800354FEF042
:07003B00D2037F0B020F3F0F
:100043000204ACE709F608DFFA8046E709F208DFA5
:10005300FA803E88828C83E709F0A3DFFA8032E3DB
:1000630009F608DFFA8078E309F208DFFA8070887E
:10007300828C83E309F0A3DFFA806489828A83E0B8
:10008300A3F608DFFA805889828A83E0A3F208DFA7
:10009300FA804C80D280FA80C680D4806980F28056
:1000A30033801080A680EA809A80A880DA80E2807C
:1000B300CA803389828A83ECFAE493A3C8C582C8D1
:1000C300CCC583CCF0A3C8C582C8CCC583CCDFE93B
:1000D300DEE7800D89828A83E493A3F608DFF9ECD7
:1000E300FAA9F0EDFB2289828A83ECFAE0A3C8C562
:1000F30082C8CCC583CCF0A3C8C582C8CCC583CC89
:10010300DFEADEE880DB89828A83E493A3F208DFF7
:10011300F980CC88F0EF60010E4E60C388F0ED24C7
:1001230002B4040050B9F582EB2402B4040050AFCA
:10013300232345822390009673BB010689828A8319
:10014300E0225002E722BBFE02E32289828A83E493
:100153009322BB010CE58229F582E5833AF583E01E
:10016300225006E92582F8E622BBFE06E92582F83D
:10017300E222E58229F582E5833AF583E49322C5F9
:10018300F0F8A3E028F0C5F0F8E5821582700215B7
:1001930083E038F022A3F8E0C5F025F0F0E58215FE
:1001A3008270021583E0C838F0E82275F008758282
:1001B30000EF2FFFEE33FECD33CDCC33CCC58233EE
:1001C300C5829BED9AEC99E58298400CF582EE9BF3
:1001D300FEED9AFDEC99FC0FD5F0D6E4CEFBE4CD11
:1001E300FAE4CCF9A88222B800C1B90059BA002DAB
:1001F300EC8BF084CFCECDFCE5F0CBF97818EF2F64
:10020300FFEE33FEED33FDEC33FCEB33FB10D70392
:10021300994004EB99FB0FD8E5E4F9FA227818EF3B
:100223002FFFEE33FEED33FDEC33FCC933C910D79A
:10023300059BE99A4007EC9BFCE99AF90FD8E0E4A7
:10024300C9FAE4CCFB2275F010EF2FFFEE33FEED7D
:1002530033FDCC33CCC833C810D7079BEC9AE8994D
:10026300400AED9BFDEC9AFCE899F80FD5F0DAE42F
:10027300CDFBE4CCFAE4C8F922EB9FF5F0EA9E4209
:10028300F0E99D42F0E89C45F022ECF0A3EDF0A3E9
:10029300EEF0A3EFF022A8828583F0D083D0821200
:1002A30002B01202B01202B01202B0E473E493A3DC
:1002B300C583C5F0C583C8C582C8F0A3C583C5F08F
:1002C300C583C8C582C822A42582F582E5F035839B
:1002D300F58322E3F5F009E208B5F06BDFF58067FB
:1002E300E3F5F009E608B5F05EDFF5805A87F0091B
:1002F300E608B5F052DFF6804E87F009E208B5F064
:1003030046DFF6804288828C8387F009E0A3B5F04C
:1003130036DFF6803288828C8387F009E493A3B5B5
:10032300F025DFF5802188828C83E3F5F009E0A3D3
:10033300B5F014DFF5801088828C83E3F5F009E4CF
:1003430093A3B5F002DFF4020405808780E980906F
:1003530080D4803E8015806E807E809D80B7808DA6
:1003630080A380518074803C02041189828A83ECCB
:10037300FAE493F5F0A3C8C582C8CCC583CCE49353
:10038300A3C8C582C8CCC583CCB5F076DFE3DEE174
:10039300807089828A83E493F5F0A3E208B5F06262
:1003A300DFF4805E89828A83E0F5F0A3E608B5F086
:1003B30051DFF5804D89828A83E0F5F0A3E208B529
:1003C300F040DFF5803C89828A83E493F5F0A3E66D
:1003D30008B5F02EDFF4802A8002805789828A8351
:1003E300ECFAE493F5F0A3C8C582C8CCC583CCE08E
:1003F300A3C8C582C8CCC583CCB5F006DFE4DEE272
:1004030080007FFFB5F0020F2240027F0122898224
:100413008A83ECFAE0F5F0A3C8C582C8CCC583CCC7
:10042300E0A3C8C582C8CCC583CCB5F0D5DFE5DE73
:10043300E380CF89828A83ECFAE0F5F0A3C8C58212
:10044300C8CCC583CCE493A3C8C582C8CCC583CC30
:10045300B5F0AFDFE4DEE280A988F0EF60010E4E75
:1004630060ABED2402B404005098F582EB2402B48F
:100473000400508E232345822390034D73EF4E6077
:1004830012EF60010EEDBB010B89828A83F0A3DFBB
:10049300FCDEFA2289F05007F709DFFCA9F022BB42
:1004A300FEFCF309DFFCA9F022C0E0C0F0C083C06A
:1004B30082C0D075D00820D90302081DE5D9543F66
:1004C30070030207F924E0700302077F1460192404
:1004D300F16029240E600302081B75D500E5D4548E
:1004E300FC4402F5D402081B75D300E5D254FC4446
:1004F30002F5D29000607401F002081B90010CE534
:10050300DBF0E064086003020752900006E090000D
:1005130096F0900007E07009900096E0D3947F4036
:1005230006900096747FF090010CE4F0900001E0D7
:10053300900097F0900000E05460601A900097E0FC
:100543001424FD400302075824FB24FD4003020743
:10055300588000020752900097E0B40B004003025A
:10056300075090056CF828287302073302068302AC
:1005730007500206BD02075002065002058D02070E
:100583005002065B020678020758900003E024FE3F
:10059300601E24E060302421704D9000E07401F06F
:1005A300A37400F0A37461F090010C7412F0803D09
:1005B3009000E07401F0A37400F0A37473F0900151
:1005C3000C7422F08027900004E0701B9000E0047C
:1005D300F0A37400F0A374A0F090010C7440F090A9
:1005E30000E37401F0800690010C74FFF090010C9D
:1005F300E0FF900096E0D39F4002EFF0900096E07A
:10060300FFC3940840077E08CFEECF800090010C13
:10061300EFF07E00C87400C8CC7400CCCD7401CD5B
:100623009000E0E0FBA3E0FAA3E0F91201169000CA
:1006330096E0FF90010CE0FEC3EF9E900096F0EE73
:10064300FF9000E1E48FF01201820207589000024C
:10065300E0900096F0020758900055E0900000F0FB
:10066300900096E0C39401500302075890010C7464
:1006730001F0020758900002E0900055F00207587D
:10068300900000E0541F6402702D900004E0146099
:100693001D2480600E14701CE5D454BC4402F5D4B0
:1006A300020758E5D254BC4402F5D202075853D28C
:1006B30073020758020752020752900000E0541FCA
:1006C300FD701B900003E0FE900002E0FBEB640171
:1006D3004E700990007AE020E57B80738071ED64B1
:1006E30002704B900003E0FE900002E0FDED4E70BF
:1006F3003B900005E0FE900004E0FDEDFFEE702A64
:10070300EF24FE60112481601714701EE5D454BFDA
:100713004403F5D4803FE5D4547F440CF5D48035AD
:10072300E5D254BF4403F5D2802B80238021801F60
:10073300900000E4F0A3F0900096E0FFC3940290D1
:10074300010C40057402F0800CEFF08008800090EB
:10075300010C74FFF090010CE0FFB4FF0C900097C4
:1007630074FFF075DCCF02081BEFD3940850048F9D
:10077300DD800375DD0075DCC002081B900097E087
:1007830024FB605C147067900096E0FFC3940840FC
:10079300077E08CFEECF800090010CEFF07E00C8FB
:1007A3007400C8CC7400CCCD7401CD9000E0E0FBA4
:1007B300A3E0FAA3E0F9120116900096E0FF90017E
:1007C3000CE0FEC3EF9E900096F0EEFF9000E1E494
:1007D3008FF012018290010CE0F5DD63DC4080387C
:1007E300E5E35480FF900096E04FF5E3800375DD69
:1007F3000075DC02802290010CE5DBF0900097E0AD
:10080300B4090F90010CE0B40108900000E09000DF
:1008130095F075DD0075DC00C2D930D81275DC02A5
:1008230075D21075D41275E300C2DAC2D9C2D830BA
:10083300DA04C2DA800375D8FFD0D0D082D083D057
:10084300F0D0E032C105602800E4005300540055A5
:100853000056005F006000610057005C005D005EB1
:1008630000000059005A005B0000006200000063B2
:100873000058604000A005010906A1018501050794
:1008830019E029E7150025017501950881029501F5
:100893007508810195037501050819012903910262
:1008A3009505750191019506750826FF0005071941
:1008B3000029918100C05200611201000200000072
:1008C300083D410721000000000001602200730978
:1008D300022200010100A03209040000010300000C
:1008E30000092111010001224000070581032000B6
:1008F3000149004C000000000000000000490057BF
:100903000000000000000000004100970041009635
:10091300004100E3004100560041006000410055E2
:1009230000410095004201370000410139014201B5
:100933003B000041013D01C186041000000000009E
:10094300900124EBF0A3EAF0A3E9F0A3EDF0E4FDBA
:100953007C0390004C04F0900127E0FFEDC39F500F
:100963006C900124E0FBA3E0FAA3E0F98D82758388
:1009730000120155FFC394E04029EFD394E75023BD
:1009830090004DE0FF8D827583001201552420FEF7
:10099300C8EEC87401088002C333D8FC4F90004DE1
:1009A300F08021900124E0FBA3E0FAA3E0F98D821B
:1009B300758300120155FF744C2CF582E43400F565
:1009C30083EFF00CECD3940850030D808AC8744C69
:1009D300C8CC7400CCCD7401CD7B017A0079577EED
:1009E300007F0912045CEF6028E4900060F01211AC
:1009F30046900060E060FAE4F0C87457C8CC740015
:100A0300CCCD7401CD7B017A00794CFE7F091201B4
:100A1300167E007F097D007B017A00794C020480F9
:100A230090010DEBF0A3EAF0A3E9F0E4A3F0A3F047
:100A3300A3F0900110F0900110E0FFC39405400370
:100A4300020AEA90010DE0FBA3E0FAA3E0F98F822A
:100A53007583001201557003020AE1E4900111F05D
:100A6300900111E0FFC39404507490010DE0FBA3C7
:100A7300E0FAA3E0F9A3E0F582758300120155FDC6
:100A83007C007E007401A807088005C333CE33CEF3
:100A9300D8F9FFEE5CFEEF5D4E603B900110E07510
:100AA300F008A424E4F582E43400F583C083C08213
:100AB300900111E0D082D08375F0021202CAA3E044
:100AC300FF900112E02413F582E43401F583EFF083
:100AD300900112E004F0900111E004F08082900193
:100AE30010E004F0020A39900112E0FDD3940040B3
:100AF300097B017A01791302094312112322EFC3FF
:100B030094085058ED14601E14602C14603C2403A8
:100B13006003020BC5A8077401088002C333D8FC25
:100B2300F45292529322A8077401088002C333D867
:100B3300FCFEF452928021A8077401088002C3339B
:100B4300D8FCFE4292EEF4529322A8077401088067
:100B530002C333D8FCFE4292EE429322EFD39408B1
:100B63004060ED14601E14602F1460422403705221
:100B7300EF24F7FEF87401088002C333D8FCF45263
:100B830096529722EF24F7FEF87401088002C333CC
:100B9300D8FCFEF452968027EF24F7FEF874010880
:100BA3008002C333D8FCFE4296EEF4529722EF2420
:100BB300F7FEF87401088002C333D8FCFE4296EEB8
:100BC30042972290010DEBF0A3EAF0A3E9F0C204EF
:100BD300E4900114F0A3F030030FD2051210FD903E
:100BE3000144EEF0A3EFF08073300570900144E010
:100BF300FEA3E0FF121072C3EF9405EE9400405C75
:100C0300900113E0FFA3E4F0A3EFF0900114E0FEE2
:100C1300A3E0FF900110E0FBA3E0FAA3E0F8AC022D
:100C2300AD0390010DE0FBA3E0FAA3E0F912045C2D
:100C3300EF6027900114E0FEA3E0FF900110E0FBBA
:100C4300A3E0FAA3E0F8AC02AD0390010DE0FBA32F
:100C5300E0FAA3E0F9120116D204C205A204227D30
:100C6300037F09120B017D037F0A120B017D037FB2
:100C730004120B017D037F0B120B017D037F021214
:100C83000B017D037F03120B017D037F0E120B010A
:100C93007D037F0C120B017D03E4FF120B01D203D2
:100CA3007F09120F3FD2037F0A120F3FD2037F0443
:100CB300120F3FD2037F0B120F3FD2037F02120F9B
:100CC3003FD2037F03120F3FD2037F0E120F3FD297
:100CD300037F0C120F3FD203E4FF120F3F7E007F0E
:100CE300057D007B017A0179321204807E007F0545
:100CF3007D007B017A01792D020480787FE4F6D8A8
:100D0300FD758120020D450210D1E493A3F8E4930D
:100D1300A34003F68001F208DFF48029E493A3F8EB
:100D23005407240CC8C333C4540F4420C88340045D
:100D3300F456800146F6DFE4800B0102040810201C
:100D43004080900847E47E019360BCA3FF543F308A
:100D5300E509541FFEE493A360010ECF54C025E0C0
:100D630060A840B8E493A3FAE493A3F8E493A3C878
:100D7300C582C8CAC583CAF0A3C8C582C8CAC58309
:100D8300CADFE9DEE780BEC200C201C20230061E2E
:100D9300C20612000390013EEBF0A3EAF0A3E9F0D0
:100DA300121211900141EBF0A3EAF0A3E9F0121142
:100DB300661211859200900141E0F9A3E0FAA3E0E5
:100DC300900110C9F0A3EAF0A3E9F0A37405F0A21F
:100DD30000920390013EE0FBA3E0FAA3E0F9120BBB
:100DE300C6920130010E900141E0FBA3E0FAA3E0BB
:100DF300F9120A2322C2037F09120F3F7F02120F47
:100E030091900132E040054401F0800354FEF07FED
:100E130003120F91900133E040054408F08003541E
:100E2300F7F07F0E120F91900134E040054401F07A
:100E3300800354FEF07F0C120F91900135E04005C2
:100E43004404F0800354FBF0E4FF120F9190013649
:100E5300E040054401F0800354FEF0D2037F090211
:100E63000F3FC2037F0A120F3F7F02120F919001BF
:100E730032E040054402F0800354FDF07F03120F7B
:100E830091900133E040054404F0800354FBF07F6C
:100E93000E120F91900134E040054402F080035498
:100EA300FDF07F0C120F91900135E040054402F0F4
:100EB300800354FDF0E4FF120F91900136E04005EA
:100EC3004404F0800354FBF0D2037F0A020F3FC2B5
:100ED300037F04120F3F7F02120F91900132E04013
:100EE300054404F0800354FBF07F03120F9190013B
:100EF30033E040054402F0800354FDF07F0E120FEF
:100F030091900134E040054404F0800354FBF07FEA
:100F13000C120F91900135E040054401F080035419
:100F2300FEF0E4FF120F91900136E040054408F013
:100F3300800354F7F0D2037F04020F3FEFC39408FA
:100F4300502030030EA8077401088002C333D8FC75
:100F5300429022A8077401088002C333D8FCF452DC
:100F63009022EFD394084025300311EF24F7FFF8C4
:100F73007401088002C333D8FC42B022EF24F7FF88
:100F8300F87401088002C333D8FCF452B022EFC3D3
:100F9300940850157E007401A807088005C333CE5A
:100FA30033CED8F9FFAD90801DEFD39408401CEFEA
:100FB30024F7FF7E007401A807088005C333CE33EE
:100FC300CED8F9FFADB0EF5D24FF22C322C2EAE41D
:100FD300F5E2CE7400CECF7400CF8EED8FECCE74DD
:100FE30000CECF740ACF8EEF8FEE75EA6775DC0201
:100FF30075D242F5E375D18075E22943D10175D8E5
:10100300FF75E107D2EA22C0E0C0F0C083C082C00E
:10101300D075D018E5132401F513E43512F512E465
:101023003511F511E43510F5107DE87C03E4FF126A
:1010330010A3D0D0D082D083D0F0D0E032EF7009AB
:10104300E58954F04DF5898023EFB40110AF05EF26
:10105300C454F0FFE589540F4FF589800FEFB402B4
:1010630008C2CDC2CCC2C880037FFF227F0022AB5F
:1010730007AA067F01D2AEEF6014AF13AE12AD1113
:10108300AC1090011612028DE4FFC2AE80E990010C
:1010930016A3A3E0FEA3E0FFC3EF9BFFEE9AFE229D
:1010A300C3E49DFDE49CFCEF7007EDF58AECF58C41
:1010B30022EFB40107EDF58BECF58D22EFB4020DB1
:1010C300AF05EDF5CC8FCAECFFF5CD8FCB22121116
:1010D300E07F147E001211B3120FD01211CAE4FF85
:1010E30012121C7F0112119C120C62D2AFD28C120D
:1010F30011F2120D8A12121880F87F01D2AEEF603E
:1011030014AF13AE12AD11AC1090011612028DE4A0
:10111300FFC2AE80E9900116A3A3E0FEA3E0FF2285
:1011230090004C7401F0E4900060F01211469000BE
:1011330060E060FAE4F0FE7F09FD7B017A007957F5
:10114300020480C8740AC8CC7400CCCD7401CD7B72
:10115300017A00794C7E007F0912011675D3095379
:10116300D2FC2278287C017D017B017A0179327ED1
:10117300007F05120116120DF8120E65120ED2022F
:10118300000E78287C017D017B017A0179327E0093
:101193007F0512045CEF24FF2275A15575A1AAEF08
:1011A300600543B101800353B1FEE4F5A1F5FF22CD
:1011B300AD07AC06ED4C600E7FE87E03121203ED23
:1011C3001D70F11C80EE2253C9EF7D01E4FF121064
:1011D300407DE87C03E4FF1210A3D2A92275A15538
:1011E30075A1AAE5B954F84404F5B9E4F5A122E4DC
:1011F300F5D3900060F09000E3F090009504F022A6
:10120300EF4E600905A1EF1F70F61E80F3227B01EC
:0C1213007A01792D22E4F5FF228FFF22E2
:00000001FF
