:0A000000020CD77B017A0279052279
:10000B00021183C874BFC8CC7400CCCD7401CD7BF6
:10001B00017A0079A67E007F091201167E007F0906
:10002B007D007B017A0079A61204809000A67401F2
:10003B00F09001237403F0220204ACE709F608DF09
:10004B00FA8046E709F208DFFA803E88828C83E764
:10005B0009F0A3DFFA8032E309F608DFFA8078E3D0
:10006B0009F208DFFA807088828C83E309F0A3DF42
:10007B00FA806489828A83E0A3F608DFFA805889C4
:10008B00828A83E0A3F208DFFA804C80D280FA8068
:10009B00C680D4806980F28033801080A680EA808D
:1000AB009A80A880DA80E280CA803389828A83ECC6
:1000BB00FAE493A3C8C582C8CCC583CCF0A3C8C54A
:1000CB0082C8CCC583CCDFE9DEE7800D89828A83C9
:1000DB00E493A3F608DFF9ECFAA9F0EDFB22898291
:1000EB008A83ECFAE0A3C8C582C8CCC583CCF0A345
:1000FB00C8C582C8CCC583CCDFEADEE880DB898249
:10010B008A83E493A3F208DFF980CC88F0EF6001D7
:10011B000E4E60C388F0ED2402B4040050B9F58292
:10012B00EB2402B4040050AF2323458223900096A6
:10013B0073BB010689828A83E0225002E722BBFE51
:10014B0002E32289828A83E49322BB010CE5822994
:10015B00F582E5833AF583E0225006E92582F8E63D
:10016B0022BBFE06E92582F8E222E58229F582E52B
:10017B00833AF583E49322C5F0F8A3E028F0C5F0A9
:10018B00F8E582158270021583E038F022A3F8E0BF
:10019B00C5F025F0F0E582158270021583E0C838B2
:1001AB00F0E82275F008758200EF2FFFEE33FECDDD
:1001BB0033CDCC33CCC58233C5829BED9AEC99E51C
:1001CB008298400CF582EE9BFEED9AFDEC99FC0FAC
:1001DB00D5F0D6E4CEFBE4CDFAE4CCF9A88222B874
:1001EB0000C1B90059BA002DEC8BF084CFCECDFCF9
:1001FB00E5F0CBF97818EF2FFFEE33FEED33FDEC86
:10020B0033FCEB33FB10D703994004EB99FB0FD86E
:10021B00E5E4F9FA227818EF2FFFEE33FEED33FD0C
:10022B00EC33FCC933C910D7059BE99A4007EC9B0B
:10023B00FCE99AF90FD8E0E4C9FAE4CCFB2275F09B
:10024B0010EF2FFFEE33FEED33FDCC33CCC833C8AC
:10025B0010D7079BEC9AE899400AED9BFDEC9AFCB2
:10026B00E899F80FD5F0DAE4CDFBE4CCFAE4C8F961
:10027B0022EB9FF5F0EA9E42F0E99D42F0E89C45A7
:10028B00F022ECF0A3EDF0A3EEF0A3EFF022A882A6
:10029B008583F0D083D0821202B01202B01202B06A
:1002AB001202B0E473E493A3C583C5F0C583C8C53C
:1002BB0082C8F0A3C583C5F0C583C8C582C822A474
:1002CB002582F582E5F03583F58322E3F5F009E22B
:1002DB0008B5F06BDFF58067E3F5F009E608B5F0DC
:1002EB005EDFF5805A87F009E608B5F052DFF6803D
:1002FB004E87F009E208B5F046DFF6804288828C23
:10030B008387F009E0A3B5F036DFF6803288828C64
:10031B008387F009E493A3B5F025DFF5802188826C
:10032B008C83E3F5F009E0A3B5F014DFF5801088BA
:10033B00828C83E3F5F009E493A3B5F002DFF402BA
:10034B000405808780E9809080D4803E8015806E84
:10035B00807E809D80B7808D80A380518074803C8F
:10036B0002041189828A83ECFAE493F5F0A3C8C5E1
:10037B0082C8CCC583CCE493A3C8C582C8CCC58343
:10038B00CCB5F076DFE3DEE1807089828A83E4937B
:10039B00F5F0A3E208B5F062DFF4805E89828A8310
:1003AB00E0F5F0A3E608B5F051DFF5804D89828AC0
:1003BB0083E0F5F0A3E208B5F040DFF5803C8982DD
:1003CB008A83E493F5F0A3E608B5F02EDFF4802AD8
:1003DB008002805789828A83ECFAE493F5F0A3C8F4
:1003EB00C582C8CCC583CCE0A3C8C582C8CCC583A5
:1003FB00CCB5F006DFE4DEE280007FFFB5F0020F44
:10040B002240027F012289828A83ECFAE0F5F0A375
:10041B00C8C582C8CCC583CCE0A3C8C582C8CCC52F
:10042B0083CCB5F0D5DFE5DEE380CF89828A83EC20
:10043B00FAE0F5F0A3C8C582C8CCC583CCE493A37E
:10044B00C8C582C8CCC583CCB5F0AFDFE4DEE28093
:10045B00A988F0EF60010E4E60ABED2402B40400EE
:10046B005098F582EB2402B40400508E232345826E
:10047B002390034D73EF4E6012EF60010EEDBB0145
:10048B000B89828A83F0A3DFFCDEFA2289F0500706
:10049B00F709DFFCA9F022BBFEFCF309DFFCA9F096
:1004AB0022C0E0C0F0C083C082C0D075D00820D974
:1004BB0003020866E5D9543F700302084224E0703A
:1004CB00030207C814604924F16055242E6003020F
:1004DB0008649001EBE5DBF0E0FF7E00C874DAC83E
:1004EB00CC7400CCCD7401CD7B017A007964120100
:1004FB00169001EBE0FF7E007D007B017A007964B2
:10050B00120480E5D454F34408F5D4D205020864F0
:10051B0075D300E5D254FC4402F5D2D2060208642E
:10052B009001EBE5DBF0E06408600302079B9000B1
:10053B0006E0900121F0900007E07009900121E0A6
:10054B00D3947F4006900121747FF09001EBE4F08F
:10055B00900001E0900122F0900000E05460601ADE
:10056B00900122E01424FD40030207A124FB24FD8B
:10057B0040030207A1800002079B900122E0B40B0D
:10058B00004003020799900598F828287302077C0E
:10059B000206CC0207990207060207990206990286
:1005AB0005B90207990206A40206C10207A1900031
:1005BB0003E024FE601E24E060302421706A900169
:1005CB00247401F0A37400F0A374C8F09001EB74D1
:1005DB0012F0805A9001247401F0A37400F0A374FC
:1005EB00E5F09001EB743BF08044900004E0FF7069
:1005FB001590012404F0A37401F0A37435F090015D
:10060B00EB7476F08028EFB4011C9001247401F098
:10061B00A37401F0A374ABF09001EB7417F090018D
:10062B00C27401F0800880009001EB74FFF0900120
:10063B00EBE0FF900121E0D39F4002EFF09001210E
:10064B00E0FFC3942040077E20CFEECF80009001C7
:10065B00EBEFF07E00C87400C8CC7400CCCD7401F5
:10066B00CD900124E0FBA3E0FAA3E0F91201169070
:10067B000121E0FF9001EBE0FEC3EF9E900121F022
:10068B00EEFF900125E48FF01201820207A190008A
:10069B0002E0900121F00207A19000BDE090000064
:1006AB00F0900121E0C3940150030207A19001EBEC
:1006BB007401F00207A1900002E09000BDF0020768
:1006CB00A1900000E0541F6402702D900004E01410
:1006DB00601D2480600E14701CE5D454BC4402F5DC
:1006EB00D40207A1E5D254BC4402F5D20207A153B0
:1006FB00D2730207A102079B02079B900000E054F4
:10070B001FFD701B900003E0FE900002E0FBEB640A
:10071B00014E70099000ECE020E57B80738071ED59
:10072B006402704B900003E0FE900002E0FDED4E82
:10073B00703B900005E0FE900004E0FDEDFFEE70D5
:10074B002AEF24FE60112481601714701EE5D45427
:10075B00BF4403F5D4803FE5D4547F440CF5D480DB
:10076B0035E5D254BF4403F5D2802B802380218002
:10077B001F900000E4F0A3F0900121E0FFC394026E
:10078B009001EB40057402F0800CEFF080088000C4
:10079B009001EB74FFF09001EBE0FFB4FF0C9001C4
:1007AB002274FFF075DCCF020864EFD39420500461
:1007BB008FDD800375DD0075DCC0020864900122BB
:1007CB00E024FB605C147067900121E0FFC3942070
:1007DB0040077E20CFEECF80009001EBEFF07E0044
:1007EB00C87400C8CC7400CCCD7401CD900124E04A
:1007FB00FBA3E0FAA3E0F9120116900121E0FF90B0
:10080B0001EBE0FEC3EF9E900121F0EEFF9001257E
:10081B00E48FF01201829001EBE0F5DD63DC4080A8
:10082B0038E5E35480FF900121E04FF5E380037539
:10083B00DD0075DC0280229001EBE5DBF0900122FC
:10084B00E0B4090F9001EBE0B40108900000E090D8
:10085B000120F075DD0075DC00C2D930D81275DCD3
:10086B000275D21075D41875E300C2DAC2D9C2D89A
:10087B0030DA04C2DA800375D8FFD0D0D082D083AF
:10088B00D0F0D0E032C107602801C3005300540000
:10089B00550056005F006000610057005C005D0072
:1008AB005E00000059005A005B000000620000006F
:1008BB0063005842020A000041020C0142020E0082
:1008CB000041021001C18804100000000060760195
:1008DB003505010906A1018501050719E029E71571
:1008EB000025017501950881029501750881019517
:1008FB0003750105081901290391029505750191ED
:10090B00019506750826FF0005071900299181003E
:10091B00C005010906A10185020507190429671500
:10092B00002501750195638102750195058103C051
:10093B000600FF0901A10185030902150026FF002E
:10094B00950A75088102C05701AB0600FF0902A189
:10095B000185040902150026FF00950A750891020E
:10096B00C05200C812010002000000203D410721C7
:10097B00000000000001603B00E509023B000201A2
:10098B0000A032090400000103000000092111013D
:10099B0000012276000705810320000109040100F4
:1009AB0001030000000921110100012217000705B6
:1009BB00020320000A4900A600000000000000000E
:1009CB00004900BF0000000000000000004E01279E
:1009DB0000000000000000000000000000004E00BE
:1009EB00AF00000000000000000000000000004B02
:1009FB0000DA0000000000000000000000410123AD
:100A0B000341012200410121004101C2004100BE0E
:100A1B00004100BD0041012000C106C10500EFC32C
:100A2B0094085058ED14601E14602C14603C240381
:100A3B006003020AEDA8077401088002C333D8FCD7
:100A4B00F45292529322A8077401088002C333D840
:100A5B00FCFEF452928021A8077401088002C33374
:100A6B00D8FCFE4292EEF4529322A8077401088040
:100A7B0002C333D8FCFE4292EE429322EFD394088A
:100A8B004060ED14601E14602F14604224037052FA
:100A9B00EF24F7FEF87401088002C333D8FCF4523C
:100AAB0096529722EF24F7FEF87401088002C333A5
:100ABB00D8FCFEF452968027EF24F7FEF874010859
:100ACB008002C333D8FCFE4296EEF4529722EF24F9
:100ADB00F7FEF87401088002C333D8FCFE4296EE91
:100AEB004297229001ECEBF0A3EAF0A3E9F0E4A328
:100AFB00F0A3F09001EFF09001EFE0FFC3940540FD
:100B0B0003020B9E9001ECE0FBA3E0FAA3E0F98F4C
:100B1B00827583001201556071E49001F0F0900131
:100B2B00F0E0FFC3940450629001ECE0FBA3E0FA09
:100B3B00A3E0F9A3E0F582758300120155FD7C005B
:100B4B007E007401A807088005C333CE33CED8F9D5
:100B5B00FFEE5CFEEF5D4E60299001EFE075F00853
:100B6B00A424C3F582E43401F583C083C0829001D1
:100B7B00F0E0D082D08375F0021202CAA3E0FF121C
:100B8B0013809001F0E004F080949001EFE004F00A
:100B9B00020B02229001ECEBF0A3EAF0A3E9F0C206
:100BAB0004E49001F3F0A3F030030FD2071212E02C
:100BBB00900217EEF0A3EFF08073300770900217DE
:100BCB00E0FEA3E0FF121252C3EF9405EE94004037
:100BDB005C9001F2E0FFA3E4F0A3EFF09001F3E0EF
:100BEB00FEA3E0FF9001EFE0FBA3E0FAA3E0F8AC7B
:100BFB0002AD039001ECE0FBA3E0FAA3E0F91204D1
:100C0B005CEF60279001F3E0FEA3E0FF9001EFE0C3
:100C1B00FBA3E0FAA3E0F8AC02AD039001ECE0FB20
:100C2B00A3E0FAA3E0F9120116D204C207A2042230
:100C3B007D037F09120A297D037F0A120A297D038E
:100C4B007F04120A297D037F0B120A297D037F0281
:100C5B00120A297D037F03120A297D037F0E120AD4
:100C6B00297D037F0C120A297D03E4FF120A29D286
:100C7B00037F09120FD2D2037F0A120FD2D2037F46
:100C8B0004120FD2D2037F0B120FD2D2037F0212A8
:100C9B000FD2D2037F03120FD2D2037F0E120FD2C9
:100CAB00D2037F0C120FD2D203E4FF120FD27E00BD
:100CBB007F057D007B017A0279051204807E007F1F
:100CCB00057D007B017A027900020480787FE4F6CF
:100CDB00D8FD758121020D1E02114DE493A3F8E49A
:100CEB0093A34003F68001F208DFF48029E493A379
:100CFB00F85407240CC8C333C4540F4420C8834092
:100D0B0004F456800146F6DFE4800B010204081060
:100D1B00204080900890E47E019360BCA3FF543F79
:100D2B0030E509541FFEE493A360010ECF54C02598
:100D3B00E060A840B8E493A3FAE493A3F8E493A388
:100D4B00C8C582C8CAC583CAF0A3C8C582C8CAC5EC
:100D5B0083CADFE9DEE780BEC200C201C2023008EF
:100D6B001EC208120003900211EBF0A3EAF0A3E9F4
:100D7B00F01213D2900214EBF0A3EAF0A3E9F012F5
:100D8B0013061213539200900214E0F9A3E0FAA396
:100D9B00E09001EFC9F0A3EAF0A3E9F0A37405F02A
:100DAB00A2009203900211E0FBA3E0FAA3E0F91278
:100DBB000B9F9201300111900214E0FBA3E0FAA308
:100DCB00E0F9120AEE120F1B22C2037F09120FD297
:100DDB007F0212110E900205E040054401F08003E2
:100DEB0054FEF07F0312110E900206E040054408FA
:100DFB00F0800354F7F07F0E12110E900207E040C3
:100E0B00054401F0800354FEF07F0C12110E90028A
:100E1B0008E040054404F0800354FBF0E4FF12119A
:100E2B000E900209E040054401F0800354FEF0D21D
:100E3B00037F09020FD2C2037F0A120FD27F021265
:100E4B00110E900205E040054402F0800354FDF0C2
:100E5B007F0312110E900206E040054404F080035C
:100E6B0054FBF07F0E12110E900207E04005440276
:100E7B00F0800354FDF07F0C12110E900208E0403D
:100E8B00054402F0800354FDF0E4FF12110E9002B2
:100E9B0009E040054404F0800354FBF0D2037F0AC1
:100EAB00020FD2C2037F04120FD27F0212110E90D7
:100EBB000205E040054404F0800354FBF07F03126D
:100ECB00110E900206E040054402F0800354FDF041
:100EDB007F0E12110E900207E040054404F08003D0
:100EEB0054FBF07F0C12110E900208E040054401F8
:100EFB00F0800354FEF0E4FF12110E900209E04063
:100F0B00054408F0800354F7F0D2037F04020FD29C
:100F1B00C874A6C8CC7400CCCD7401CD7B017A000B
:100F2B0079BF7E007F0912045CEF6012C2067B0161
:100F3B007A0079A67D091211ED3006FDC206C87440
:100F4B0027C8CC7401CCCD7401CD7B017A0079AF6D
:100F5B007E007F0E12045CEF6012C2067B017A01E9
:100F6B0079277D0E1211ED3006FDC20612000E021E
:100F7B0012839001ECEBF0A3EAF0A3E9F0C874EF55
:100F8B00C8CC7401CCCD7401CD7BFF7A1379E07E94
:100F9B00007F0B120116C874EFC8CC7401CCCD7452
:100FAB0001CD9001ECE0FBA3E0FAA3E0F97E007F1A
:100FBB000B120116C2067B017A0179EF7D0B121120
:100FCB00ED3006FDC20622EFC39408502030030E0D
:100FDB00A8077401088002C333D8FC429022A807EB
:100FEB007401088002C333D8FCF4529022EFD394DF
:100FFB00084025300311EF24F7FFF8740108800235
:10100B00C333D8FC42B022EF24F7FFF874010880F9
:10101B0002C333D8FCF452B0229001277402F0744F
:10102B00FC2FFFD394075015A3E0FEC8EFC8740143
:10103B00088002C333D8FC4E900128F022EF131323
:10104B0013541F2428F582E43401F583C083C08236
:10105B00E0FEEF5407FFC8EFC87401088002C333EA
:10106B00D8FC4ED082D083F022C2EAE4F5E2CE74F3
:10107B0000CECF7400CF8EED8FEC75DC02CE7400FA
:10108B00CECF7422CF8EEF8FEE75EA6775D242CE3C
:10109B007400CECF7464CF8EE58FE4E5EB54FE4441
:1010AB0008F5EBE4F5E375D18075E22943D10175C1
:1010BB00D8FF75E107D2EA229000A67401F0EFC3C6
:1010CB0094E04020EFD394E7501AA3E0FEEF2420E6
:1010DB00FFC8EFC87401088002C333D8FC4E9000E0
:1010EB00A7F0D322900123E0FED394084001227491
:1010FB00A62EF582E43400F583EFF0900123E00493
:10110B00F0D322EFC3940850157E007401A8070892
:10111B008005C333CE33CED8F9FFAD90801DEFD30E
:10112B009408401CEF24F7FF7E007401A807088089
:10113B0005C333CE33CED8F9FFADB0EF5D24FF221C
:10114B00C3221213947F147E0012133C12107412DC
:10115B00136AE4FF1213DD7F01121325120C3BD22D
:10116B00AFD28C7F0A7E0012133C1213A6120D63B2
:10117B001213B51213D980F5C0E0C0F0C083C08242
:10118B00C0D075D018E5132401F513E43512F51210
:10119B00E43511F511E43510F5107DE87C03E4FF1F
:1011AB001212B2D0D0D082D083D0F0D0E032C203B2
:1011BB007F0B120FD27F0212110E900205E0400539
:1011CB004408F0800354F7F07F0312110E900206CF
:1011DB00E040054401F0800354FEF0D2037F0B0284
:1011EB000FD29001FAEDF0FF7E00EBC0E0EAC0E019
:1011FB00E9C0E0C87422C8CC7400CCCD7401CDD04A
:10120B00E0F9D0E0FAD0E0FB1201169001FAE0F51C
:10121B00D353D2FC22EF7009E58954F04DF5898048
:10122B0023EFB40110AF05EFC454F0FFE589540F61
:10123B004FF589800FEFB40208C2CDC2CCC2C88073
:10124B00037FFF227F0022AB07AA067F01D2AEEFFE
:10125B006014AF13AE12AD11AC109001F512028DEC
:10126B00E4FFC2AE80E99001F5A3A3E0FEA3E0FF8B
:10127B00C3EF9BFFEE9AFE22C874AFC8CC7400CCB0
:10128B00CD7401CD7B017A0179277E007F0E12018F
:10129B00167E007F0E7D007B017A01792712048078
:1012AB009001277402F022C3E49DFDE49CFCEF70D7
:1012BB0007EDF58AECF58C22EFB40107EDF58BEC1D
:1012CB00F58D22EFB4020DAF05EDF5CC8FCAECFF17
:1012DB00F5CD8FCB227F01D2AEEF6014AF13AE12E0
:1012EB00AD11AC109001F512028DE4FFC2AE80E996
:1012FB009001F5A3A3E0FEA3E0FF2278FB7C017D28
:10130B00017B017A0279057E007F05120116120D11
:10131B00D4120E41120EAE0211B975A15575A1AAC8
:10132B00EF600543B101800353B1FEE4F5A1F5FF76
:10133B0022AD07AC06ED4C600E7FE87E031213C4A2
:10134B00ED1D70F11C80EE2278FB7C017D017B0191
:10135B007A0279057E007F0512045CEF24FF22538D
:10136B00C9EF7D01E4FF1212207DE87C03E4FF123C
:10137B0012B2D2A922CDEFCDCFCF1210C392032040
:10138B000306CFEDCF1210242275A15575A1AAE546
:10139B00B954F84404F5B9E4F5A122E4F5D3C20637
:1013AB009001C2F090012004F02230050BC2057BA6
:1013BB00017A0079DA120F7D22EF4E600905A1EF59
:1013CB001F70F61E80F3227B017A02790022E4F56E
:1013DB00FF228FFF22000000000000000000000031
:00000001FF
