:1000000002110043C61022E4F5FF220213B0EF7084
:1000100009E58954F04DF5898023EFB40110AF054F
:10002000EFC454F0FFE589540F4FF589800FEFB40A
:100030000208C2CDC2CCC2C880037FFF227F00224B
:100040008FFF22020046C0E0C0F0C083C082C0D053
:1000500075D00820D9030203B7E5D9543F700302D5
:10006000039324E0700302031914601924F160293A
:10007000240E60030203B575D500E5D454FC440298
:10008000F5D40203B575D300E5D254FC4402F5D291
:100090009000567401F00203B59000E6E5DBF0E055
:1000A000640860030202EC900006E090008CF0907F
:1000B0000007E0700990008CE0D3947F4006900028
:1000C0008C747FF09000E6E4F0900001E0900099DD
:1000D000F0900000E05460601A900099E01424FD54
:1000E00040030202F224FB24FD40030202F28000DE
:1000F0000202EC900099E0B40B0040030202EA9087
:100100000106F82828730202CD02021D0202EA024B
:1001100002570202EA0201EA0201270202EA020190
:10012000F50202120202F2900003E024FE601E2497
:10013000E060302421704D9000E27401F0A374005F
:10014000F0A37457F09000E67412F0803D9000E246
:100150007401F0A37400F0A37469F09000E67422B7
:10016000F08027900004E0701B9000E204F0A3747C
:1001700000F0A374A4F09000E6743EF09000E574E3
:1001800001F080069000E674FFF09000E6E0FF903A
:10019000008CE0D39F4002EFF090008CE0FFC3940E
:1001A0000840077E08CFEECF80009000E6EFF07E9B
:1001B00000C87400C8CC7400CCCD7401CD9000E2AE
:1001C000E0FBA3E0FAA3E0F912081690008CE0FF30
:1001D0009000E6E0FEC3EF9E90008CF0EEFF9000F2
:1001E000E3E48FF01208550202F2900002E0900062
:1001F0008CF00202F2900054E0900000F090008C2D
:10020000E0C3940150030202F29000E67401F00290
:1002100002F2900002E0900054F00202F29000001E
:10022000E0541F6402702D900004E014601D2480CF
:10023000600E14701CE5D454BC4402F5D40202F2E2
:10024000E5D254BC4402F5D20202F253D273020248
:10025000F20202EC0202EC900000E0541FFD701B61
:10026000900003E0FE900002E0FBEB64014E700999
:10027000900070E020E57B80738071ED6402704B2C
:10028000900003E0FE900002E0FDED4E703B900018
:1002900005E0FE900004E0FDEDFFEE702AEF24FE85
:1002A00060112481601714701EE5D454BF4403F517
:1002B000D4803FE5D4547F440CF5D48035E5D25446
:1002C000BF4403F5D2802B80238021801F90000043
:1002D000E4F0A3F090008CE0FFC394029000E640AD
:1002E000057402F0800CEFF0800880009000E67446
:1002F000FFF09000E6E0FFB4FF0C90009974FFF06F
:1003000075DCCF0203B5EFD3940850048FDD800372
:1003100075DD0075DCC00203B5900099E024FB6038
:100320005C14706790008CE0FFC3940840077E085F
:10033000CFEECF80009000E6EFF07E00C87400C8DA
:10034000CC7400CCCD7401CD9000E2E0FBA3E0FAC8
:10035000A3E0F912081690008CE0FF9000E6E0FEA2
:10036000C3EF9E90008CF0EEFF9000E3E48FF0125C
:1003700008559000E6E0F5DD63DC408038E5E354A5
:1003800080FF90008CE04FF5E3800375DD0075DCA5
:100390000280229000E6E5DBF0900099E0B4090FBE
:1003A0009000E6E0B40108900000E090008BF0754A
:1003B000DD0075DC00C2D930D81275DC0275D210B0
:1003C00075D41275E300C2DAC2D9C2D830DA04C2D9
:1003D000DA800375D8FFD0D0D082D083D0F0D0E0BF
:1003E00032E51024EAF582E43400F583E0051022BA
:1003F0009000E73007039000EAE475F001120A0864
:1004000002083C2000E97F2ED2008018EF540F2410
:1004100090D43440D4FF30040BEF24BFB41A005002
:10042000032461FFE511600215110514E514700243
:10043000051330070E9000E7E475F001120A08EF8B
:100440000209F602149B7403D2078003E4C207F585
:10045000109000E7120A1FE4F511F513F514E511E9
:1004600060077F2012042480F57512FFC201C200CC
:10047000C202C203C205C206C2081203F0FF700D19
:100480003007057F00120435AF14AE1322B4255F88
:10049000C2D5C2041203F0FF24D0B40A00501A756A
:1004A000F00A781130D50508B6FF0106C6A426F675
:1004B00020D5047002D20380D924CFB41A00EF50A3
:1004C00004C2E5D204020636D20180C6D20080C042
:1004D000D20280BCD2D580BAD20580B47F2012046B
:1004E000242002077401B5110040F11203E1FF124C
:1004F000042402045ED208D20680951203E1FB12A6
:1005000003E1FA1203E1F94A4B700679077A077B97
:10051000FF20022EE511602A7E008E827583001274
:1005200009C960060EEE651270F0C2D5EBC0E0EAB4
:10053000C0E0E9C0E0EE12067DD0E0F9D0E0FAD0EC
:10054000E0FB12083CFF60AAEBC0E0EAC0E0E9C0B3
:10055000E0120424D0E02401F9D0E03400FAD0E025
:10056000FBE5120460DCD512D980877BFF7A06791F
:1005700079D202809C791080027908C206C2088074
:1005800008D2D5790A8004790AC2D5E5120470022E
:10059000F512E4FAFDFEFF1203E1FC7B08200113D3
:1005A0001203E1FD7B1030000A1203E1FE1203E1A9
:1005B000FF7B20EC3382D592D55013C3E430000684
:1005C0009FFFE49EFEE42001039DFDE49CFCE4CB40
:1005D000F8C201EC700CCFCECDCCE824F8F870F363
:1005E0008017C3EF33FFEE33FEED33FDEC33FCEB4E
:1005F00033FB994002FB0FD8E9EB300105F8D0E05E
:10060000C448B201C0E00AEC4D4E4F78207B007028
:10061000C2EAB5120040BCC0E012067FD0F0D0E0C4
:10062000200104C4C0E0C4B201C0F012040DD0F037
:10063000D5F0EB02045E120A2804FB53057558043A
:10064000CC4C04C84205794F05814405814904E139
:1006500043058755056B46056B45056B47072750D6
:1006600004D02D04D42E04F72B04D82304F520073E
:10067000102A049048000004EF3F3F3F00790AA28F
:10068000D5200314300509B910020404B908010487
:10069000A2D52006025001042002689202B5110082
:1006A0005034C0E07F203003197F30A202720672FE
:1006B00005500F1206D6C202C206C205C2087F301C
:1006C000800F300503E9C0E0120424300503D0E0B8
:1006D000F9D0E0B511CC3005177F30B9100C1204F9
:1006E000247F583004077F788003B908031204245C
:1006F0003002057F2D0204247F202008F87F2B2064
:1007000006F322920280CF286E756C6C2900D2010C
:100710001203E13001F8C201781130D50108F60268
:1007200004902D504349581203E12403B4050040BE
:1007300001E490072293120415743A120415D203AF
:10074000751104020575E709F608DFFA8046E70926
:10075000F208DFFA803E88828C83E709F0A3DFFA93
:100760008032E309F608DFFA8078E309F208DFFA5D
:10077000807088828C83E309F0A3DFFA8064898229
:100780008A83E0A3F608DFFA805889828A83E0A38F
:10079000F208DFFA804C80D280FA80C680D480696B
:1007A00080F28033801080A680EA809A80A880DA68
:1007B00080E280CA803389828A83ECFAE493A3C8FA
:1007C000C582C8CCC583CCF0A3C8C582C8CCC583BC
:1007D000CCDFE9DEE7800D89828A83E493A3F60803
:1007E000DFF9ECFAA9F0EDFB2289828A83ECFAE0CA
:1007F000A3C8C582C8CCC583CCF0A3C8C582C8CC69
:10080000C583CCDFEADEE880DB89828A83E493A3B8
:10081000F208DFF980CC88F0EF60010E4E60C388EB
:10082000F0ED2402B4040050B9F582EB2402B404C4
:100830000050AF232345822390079673BB0106899E
:10084000828A83E0225002E722BBFE02E3228982F1
:100850008A83E49322C5F0F8A3E028F0C5F0F8E518
:1008600082158270021583E038F022A3F8E0C5F00B
:1008700025F0F0E582158270021583E0C838F0E8B3
:100880002275F008758200EF2FFFEE33FECD33CDD9
:10089000CC33CCC58233C5829BED9AEC99E5829826
:1008A000400CF582EE9BFEED9AFDEC99FC0FD5F025
:1008B000D6E4CEFBE4CDFAE4CCF9A88222B800C19C
:1008C000B90059BA002DEC8BF084CFCECDFCE5F009
:1008D000CBF97818EF2FFFEE33FEED33FDEC33FC50
:1008E000EB33FB10D703994004EB99FB0FD8E5E4F9
:1008F000F9FA227818EF2FFFEE33FEED33FDEC33DB
:10090000FCC933C910D7059BE99A4007EC9BFCE969
:100910009AF90FD8E0E4C9FAE4CCFB2275F010EFA5
:100920002FFFEE33FEED33FDCC33CCC833C810D7E8
:10093000079BEC9AE899400AED9BFDEC9AFCE8993C
:10094000F80FD5F0DAE4CDFBE4CCFAE4C8F922EBF9
:100950009FF5F0EA9E42F0E99D42F0E89C45F022C6
:10096000ECF0A3EDF0A3EEF0A3EFF022A8828583D4
:10097000F0D083D0821209831209831209831209ED
:1009800083E473E493A3C583C5F0C583C8C582C857
:10099000F0A3C583C5F0C583C8C582C822EF4E60E9
:1009A00012EF60010EEDBB010B89828A83F0A3DF99
:1009B000FCDEFA2289F05007F709DFFCA9F022BB20
:1009C000FEFCF309DFFCA9F022BB010CE58229F54E
:1009D00082E5833AF583E0225006E92582F8E62293
:1009E000BBFE06E92582F8E222E58229F582E5834D
:1009F0003AF583E49322BB010689828A83F0225070
:100A000002F722BBFE01F322F8E0FBA3A3E0F925E5
:100A1000F0F0E582158270021583E0FA38F022EBDF
:100A2000F0A3EAF0A3E9F022D083D082F8E4937037
:100A300012740193700DA3A393F8740193F5828847
:100A400083E4737402936860EFA3A3A380DF900034
:100A5000E7EFF0E490004CF0EFC394614036900073
:100A6000E7E0D3947A502D90008BE030E11DE490C4
:100A70000056F090004E7439F0121426900056E0A3
:100A800060FA121417900056E060FA9000E7E02434
:100A9000A3020D429000E7E0FFC394414033EFD33F
:100AA000945A502D90008BE020E11DE4900056F008
:100AB00090004E7439F0121426900056E060FA123D
:100AC0001417900056E060FA9000E7E024C3020D8E
:100AD000429000E7E0FFC39431400CEFD3943950CB
:100AE00006E024ED020D429000E7E0FFB4300790ED
:100AF000004E7427F022EFD3942F4003020BBDEF7A
:100B0000B4200790004E742CF022EFB4210890001E
:100B10004E741E020CB3EFB4220890004E743402DF
:100B20000CB3EFB4230890004E7420020CB3EFB462
:100B3000240890004E7421020CB3EFB425089000F5
:100B40004E7422020CB3EFB4260890004E742402B7
:100B50000CB3EFB4270790004E7434F022EFB428A2
:100B60000890004E7426020CB3EFB4290890004E92
:100B70007427020CB3EFB42A0890004E7425020CBF
:100B8000B3EFB42B0890004E742E020CB3EFB42CCC
:100B90000790004E7436F022EFB42D0790004E748B
:100BA0002DF022EFB42E0790004E7437F022EF6440
:100BB0002F6003020D4890004E7438F022EFD3945A
:100BC0003F5058EFB43A0790004E74338044900081
:100BD000E7E0FFB43B0790004E7433F022EFB43CE3
:100BE0000790004E7436802A9000E7E0FFB43D077E
:100BF00090004E742EF022EFB43E0790004E7437F2
:100C000080109000E7E0643F6003020D4890004EC2
:100C10007438F090004CE04402F0229000E7E0FFCE
:100C2000B4400890004E741F020CB3EFC3945B40B5
:100C30004CEFD394605046EFB45B0790004E742F96
:100C4000F022EFB45C0790004E7431F022EFB45DF7
:100C50000790004E7430F022EFB45E0790004E749F
:100C6000238050EFB45F0790004E742D8045EF64F1
:100C7000606003020D4890004E7435F022EFC3947B
:100C80007B4047EFD3947F5041EFB47B0790004EF9
:100C9000742F801FEFB47C0790004E74318014EFE6
:100CA000B47D0790004E74308009EFB47E0D900043
:100CB0004E7435F090004C7402F022EF647F6003B4
:100CC000020D4890004E744CF022EFC394804020F7
:100CD000EFD39487501AEF540F9000E7F0E0FFC86D
:100CE000EFC87401088002C333D8FC90004CF02296
:100CF0009000E7E0FFC394D7400BEFD394DA5005A0
:100D0000E02478803D9000E7E0FFC394B0400BEF13
:100D1000D394B35005E0247880289000E7E0FFC327
:100D200094D1400BEFD394D55005E02478801390F4
:100D300000E7E0FFC394C1400FEFD394CD5009E02A
:100D40002478F0E090004EF02242010F00004101B3
:100D5000110142011300004101150142011600007A
:100D600041011801042200000000603E00A40501BA
:100D70000906A101050719E029E7150025017501FC
:100D80009508810295017508810195037501050893
:100D900019012903910295057501910195067508C0
:100DA00026FF000507190029918100C05200571243
:100DB000010002000000083D410721000000000082
:100DC000016022006909022200010100A032090429
:100DD00000000103000000092111010001223E0072
:100DE0000705810308000148004C000000000000D6
:100DF000000048008F000000000000000042009743
:100E0000000042008D000042009A0000410099005D
:100E100041008C004100E5004100550041005600B2
:100E20004100540041008B0000D2007F0912118C58
:100E3000D2007F0A12118CD2007F0412118CD200D2
:100E40007F0B12118CC2007F0912118C7F021212CB
:100E5000BE40037F00227F0E1212BE40037F0A2293
:100E60007F0C1212BE40037F0B22E4FF1212BE4021
:100E7000037F0E22D2007F0912118CC2007F0A125A
:100E8000118C7F021212BE40037F01227F0E1212CC
:100E9000BE40037F09227F0C1212BE40037F0C224A
:100EA000E4FF1212BE40037F0F22D2007F0A12110C
:100EB0008CC2007F0412118C7F021212BE40037F8D
:100EC00002227F0E1212BE40037F08227F0C1212F4
:100ED000BE40037F0D22E4FF1212BE40037F1022AA
:100EE000D2007F0412118CC2007F0B12118C7F0282
:100EF0001212BE40037F0322D2007F0B12118C7F9F
:100F0000FF22EFC394085058ED14601E14602C1497
:100F1000603C24036003020FC6A807740108800226
:100F2000C333D8FCF45292529322A807740108806C
:100F300002C333D8FCFEF452928021A80774010842
:100F40008002C333D8FCFE4292EEF4529322A807EB
:100F50007401088002C333D8FCFE4292EE42932211
:100F6000EFD394084060ED14601E14602F146042AB
:100F700024037052EF24F7FEF87401088002C33393
:100F8000D8FCF45296529722EF24F7FEF874010829
:100F90008002C333D8FCFEF452968027EF24F7FE7C
:100FA000F87401088002C333D8FCFE4296EEF45276
:100FB0009722EF24F7FEF87401088002C333D8FCAF
:100FC000FE4296EE4297229000E774FFF0900118DF
:100FD000E0600E1214C2900116EEF0A3EFF0E4A34D
:100FE000F0900116E0FEA3E0FF1213E6D3EF946445
:100FF000EE94004075120E299000E7EFF0F4605F68
:10100000E024FBB40A00505790101675F003A4C5F5
:101010008325F0C5837302103602103A02103E0297
:10102000104202104602104A02104E0210520210E4
:101030005602105A80297F3980227F38801E7F37E0
:10104000801A7F3680167F3580127F34800E7F3382
:10105000800A7F3280067F3180027F301213761241
:1010600014C2900116EEF0A3EFF022C29FD29EC2EE
:101070009DC2CDC2CC4387809000E712096C00006E
:101080000082E47B0AFAF9F89000E7E0FCA3E0FDB7
:10109000A3E0FEA3E0FF1208BD9000EBEBF0900090
:1010A000E7E0FCA3E0FDA3E0FEA3E0FFE47B0AFA97
:1010B000F9F81208BD9000E71209609000EBE0C358
:1010C0009405401F9000E7E0FCA3E0FDA3E0FEA331
:1010D000E02401FFE43EFEE43DFDE43CFC9000E73B
:1010E000120960E589540F4420F58943C9A0900096
:1010F000E7A3A3A3E0F404F58DD28ED299D29C226B
:10110000787FE4F6D8FD75812502114702127DE44F
:1011100093A3F8E493A34003F68001F208DFF48080
:1011200029E493A3F85407240CC8C333C4540F44D0
:1011300020C8834004F456800146F6DFE4800B01AA
:1011400002040810204080900D49E47E019360BCA9
:10115000A3FF543F30E509541FFEE493A360010E42
:10116000CF54C025E060A840B8E493A3FAE493A369
:10117000F8E493A3C8C582C8CAC583CAF0A3C8C58A
:1011800082C8CAC583CADFE9DEE780BEEFC3940820
:10119000502030000EA8077401088002C333D8FC29
:1011A000429022A8077401088002C333D8FCF4528D
:1011B0009022EFD394084025300011EF24F7FFF878
:1011C0007401088002C333D8FC42B022EF24F7FF39
:1011D000F87401088002C333D8FCF452B0229001A5
:1011E00011E060181214C290010FEEF0A3EFF0E4CA
:1011F000A3F0A37409F07D01FF120F0290010FE02C
:10120000FEA3E0FF1213E6D3EF94E8EE9403401E32
:10121000900112E0FF1212BEB39200900112E0FFA3
:1012200012118C1214C290010FEEF0A3EFF0229075
:10123000008DE0FEA3E0248FF58274003EF583E08C
:10124000FF120A4E90008EE004F0700690008DE0D0
:1012500004F0C390008EE0940890008DE09400406C
:1012600004E4F0A3F0E4900056F012142690005627
:10127000E060FA121417900056E060FA2212152C62
:101280007F147E001214FF12106B1200037BFF7A92
:1012900015796A12044C12133C121516E4FF120061
:1012A000407F011214E81212FDD2AFD28C12153E0B
:1012B0001211DE120FC712147412000780F2EFC36E
:1012C000940850157E007401A807088005C333CE2A
:1012D00033CED8F9FFAD90801DEFD39408401CEFBA
:1012E00024F7FF7E007401A807088005C333CE33BE
:1012F000CED8F9FFADB0EF5D24FF22C3227D037F7E
:1013000009120F027D037F0A120F027D037F041270
:101310000F027D037F0B120F027D037F02120F026B
:101320007D037F03120F027D037F0E120F027D03E8
:101330007F0C120F027D03E4FF020F02C2EAE4F504
:10134000E2CE7400CECF7400CF8EED8FECCE740061
:10135000CECF740ACF8EEF8FEE75EA6775DC02751B
:10136000D242F5E375D18075E22943D10175D8FFEA
:1013700075E107D2EA2290009AE475F00112086B39
:10138000FC748F25F0F58274003CF583EFF090003B
:1013900098E004F07006900097E004F0C390009B82
:1013A000E0940890009AE094004004E4F0A3F02256
:1013B000C0E0C0F0C083C082C0D075D018E525243D
:1013C00001F525E43524F524E43523F523E435221D
:1013D000F5227DE87C03E4FF121446D0D0D082D001
:1013E00083D0F0D0E032AB07AA067F01D2AEEF6027
:1013F00014AF25AE24AD23AC229000E8120960E4BE
:10140000FFC2AE80E99000E8A3A3E0FEA3E0FFC323
:10141000EF9BFFEE9AFE22E4F0FE7F08FD7B017A4F
:1014200000794C12099DC8740AC8CC7400CCCD74E4
:1014300001CD7B017A00794C7E007F081208167579
:10144000D30853D2FC22C3E49DFDE49CFCEF70075B
:10145000EDF58AECF58C22EFB40107EDF58BECF598
:101460008D22EFB4020DAF05EDF5CC8FCAECFFF580
:10147000CD8FCB229000E5E06020D3900098E094DF
:1014800000900097E09400401112122F900098E015
:1014900024FFF0900097E034FFF022EFB40A0774C5
:1014A0000D1214A6740A309811A899B8130CC2989A
:1014B0003098FDA899C298B811F63099FDC299F5F7
:1014C00099227F01D2AEEF6014AF25AE24AD23ACDC
:1014D000229000E8120960E4FFC2AE80E99000E8C3
:1014E000A3A3E0FEA3E0FF2275A15575A1AAEF60BA
:1014F0000543B101800353B1FEE4F5A1F5FF22AD30
:1015000007AC06ED4C600E7FE87E0312154FED1D13
:1015100070F11C80EE2253C9EF7D01E4FF12000E32
:101520007DE87C03E4FF121446D2A92275A155750B
:10153000A1AAE5B954F84404F5B9E4F5A122E4F50B
:10154000D3900056F09000E5F090008B04F022EF6D
:101550004E600905A1EF1F70F61E80F322756172BF
:10156000745F64656275670D0A0073746172740D4F
:021570000A006F
:00000001FF
