:10026000EF14601C14602B14603C2403704AC8ED2A
:10027000C87401088002C333D8FCF452925293220E
:10028000C8EDC87401088002C333D8FCFFF4529251
:100290008023C8EDC87401088002C333D8FCFF4234
:1002A00092EFF4529322C8EDC87401088002C33360
:0902B000D8FCFF4292EF429322B8
:1002B900EF14601C14602B14603C2403704AC8EDD1
:1002C900C87401088002C333D8FCF45296529722AD
:1002D900C8EDC87401088002C333D8FCFFF45296F4
:1002E9008023C8EDC87401088002C333D8FCFF42DB
:1002F90096EFF4529722C8EDC87401088002C333FF
:09030900D8FCFF4296EF42972256
:0904A40053C77F43C73CD2EE228E
:0504B5004200070000F9
:10031200E4900000F0A3F01204037F147E001204A4
:100322004A12012FE4FD7F011202B953C9EF7D0188
:10033200E4FF1203CA7DF47C01E4FF120390D2A908
:0F034200D2AFD28CC2B07F647E0012044A80F723
:03000B000203519C
:0D035100C0E0C0F0C083C082C0D075D008ED
:10035E00900007E475F00112000EAFF0FEBE010C26
:10036E00BFF409900007E4F0A3F0B2B0C28D7DF4A3
:07037E007C01E4FF12039073
:0B038500D0D0D082D083D0F0D0E03286
:1003CA00EFFB7A007009E58954F04DF5898027EB37
:1003DA0064014A7011CFEDCFEFC454F0FFE58954A0
:1003EA000F4FF5898010EF64027008C2CDC2CCC2EB
:0903FA00C880037FFF227F00226E
:10039000C3E49DFDE49CFCEF700ACFEDCFEFF58A3E
:1003A000ECF58C22EF6401700ACFEDCFEFF58BEC0A
:1003B000F58D22EF64027011CFEDCFEFF5CC8FCA2F
:0903C000CEECCEEEFFF5CD8FCBA3
:0103C9002211
:10049200C2CDC2CCC2C9D2CBD2C8EF25E025E04240
:0204A200C9226D
:10046300C2CDC2CCD2C8C2C9EF25E025E0FFE5C9A1
:0804730054FD4F4401F5C922BC
:1004030075A15575A1AA43B9407F0A7E0012044A1B
:1004130075A15575A1AA53B97FE4F5A175A15575C9
:0E042300A1AAE5B954F84403F5B9E4F5A12205
:100431007802EFCEC313CE13D8F9FFEF4E60090552
:09044100A1EF1F70F61E80F322EA
:10044A00CDEFCDCCEECCED4C600E7FE87E031204EE
:09045A0031ED1D70F11C80EE2251
:0404BB0043C6102202
:10012F00C29FD29EC29DC2CDC2CC43878090000297
:10013F001200FE00000041E47B0AFAF9F890000279
:10014F00E0FCA3E0FDA3E0FEA3E0FF120060CCE81B
:10015F00CCCDE9CDCEEACECFEBCF900006EFF0902D
:10016F000002E0FCA3E0FDA3E0FEA3E0FFE47B0AB6
:10017F00FAF9F81200609000021200F2900006E007
:10018F00C3940574809480401F900002E0FCA3E0AC
:10019F00FDA3E0FEA3E02401FFE43EFEE43DFDE409
:1001AF003CFC9000021200F2E589540F4420F589BF
:1001BF0043C9A0900002A3A3A3E0F404F58DD28E4F
:0401CF00D299D29C53
:0101D3002209
:080003003098FDC298AF99226C
:0804AD008F993099FDC29922DC
:10047B0075A15575A1AAEF600543B101800353B176
:07048B00FEE4F5A1F5FF22DC
:0304BF008FFF228A
:030000000201D426
:0C01D400787FE4F6D8FD75810F02021B55
:10000E00A3F8E0C5F025F0F0E582158270021583A5
:06001E00E0C838F0E82202
:1000240075F008758200EF2FFFEE33FECD33CDCC93
:1000340033CCC58233C5829BED9AEC99E582984016
:100044000CF582EE9BFEED9AFDEC99FC0FD5F0D6F3
:10005400E4CEFBE4CDFAE4CCF9A88222B800C1B91D
:100064000059BA002DEC8BF084CFCECDFCE5F0CB5B
:10007400F97818EF2FFFEE33FEED33FDEC33FCEB94
:1000840033FB10D703994004EB99FB0FD8E5E4F94F
:10009400FA227818EF2FFFEE33FEED33FDEC33FC3C
:1000A400C933C910D7059BE99A4007EC9BFCE99A30
:1000B400F90FD8E0E4C9FAE4CCFB2275F010EF2F75
:1000C400FFEE33FEED33FDCC33CCC833C810D70775
:1000D4009BEC9AE899400AED9BFDEC9AFCE899F8B0
:0E00E4000FD5F0DAE4CDFBE4CCFAE4C8F92243
:0C00F200ECF0A3EDF0A3EEF0A3EFF02281
:1000FE00A8828583F0D083D08212011512011512C9
:10010E000115120115E473E493A3C583C5F0C583ED
:10011E00C8C582C8F0A3C583C5F0C583C8C582C84B
:01012E0022AE
:1001E000020312E493A3F8E493A34003F68001F220
:1001F00008DFF48029E493A3F85407240CC8C33320
:10020000C4540F4420C8834004F456800146F6DFEE
:10021000E4800B01020408102040809004B5E47EC5
:10022000019360BCA3FF543F30E509541FFEE493E3
:10023000A360010ECF54C025E060A840B8E493A3AA
:10024000FAE493A3F8E493A3C8C582C8CAC583CAD5
:10025000F0A3C8C582C8CAC583CADFE9DEE780BE8D
:0104BA000041
:00000001FF
